{
  "contractName": "APIConsumer",
  "abi": [
    {
      "inputs": [],
      "stateMutability": "nonpayable",
      "type": "constructor"
    },
    {
      "anonymous": false,
      "inputs": [
        {
          "indexed": true,
          "internalType": "bytes32",
          "name": "id",
          "type": "bytes32"
        }
      ],
      "name": "ChainlinkCancelled",
      "type": "event"
    },
    {
      "anonymous": false,
      "inputs": [
        {
          "indexed": true,
          "internalType": "bytes32",
          "name": "id",
          "type": "bytes32"
        }
      ],
      "name": "ChainlinkFulfilled",
      "type": "event"
    },
    {
      "anonymous": false,
      "inputs": [
        {
          "indexed": true,
          "internalType": "bytes32",
          "name": "id",
          "type": "bytes32"
        }
      ],
      "name": "ChainlinkRequested",
      "type": "event"
    },
    {
      "inputs": [],
      "name": "volume",
      "outputs": [
        {
          "internalType": "uint256",
          "name": "",
          "type": "uint256"
        }
      ],
      "stateMutability": "view",
      "type": "function"
    },
    {
      "inputs": [],
      "name": "requestVolumeData",
      "outputs": [
        {
          "internalType": "bytes32",
          "name": "requestId",
          "type": "bytes32"
        }
      ],
      "stateMutability": "nonpayable",
      "type": "function"
    },
    {
      "inputs": [
        {
          "internalType": "bytes32",
          "name": "_requestId",
          "type": "bytes32"
        },
        {
          "internalType": "uint256",
          "name": "_volume",
          "type": "uint256"
        }
      ],
      "name": "fulfill",
      "outputs": [],
      "stateMutability": "nonpayable",
      "type": "function"
    }
  ],
  "bytecode": "0x6080604052600160045534801561001557600080fd5b506100246100b460201b60201c565b732f90a6d021db21e1b2a077c5a37b3c7e75d15b7e600760006101000a81548173ffffffffffffffffffffffffffffffffffffffff021916908373ffffffffffffffffffffffffffffffffffffffff1602179055507f323966613961613133626631343638373838623763633461353030613435623860088190555067016345785d8a000060098190555061019d565b61015773c89bd4e1632d3a43cb03aaad5262cbe4038bc57173ffffffffffffffffffffffffffffffffffffffff166338cc48316040518163ffffffff1660e01b815260040160206040518083038186803b15801561011157600080fd5b505afa158015610125573d6000803e3d6000fd5b505050506040513d602081101561013b57600080fd5b810190808051906020019092919050505061015960201b60201c565b565b80600260006101000a81548173ffffffffffffffffffffffffffffffffffffffff021916908373ffffffffffffffffffffffffffffffffffffffff16021790555050565b611033806101ac6000396000f3fe608060405234801561001057600080fd5b50600436106100415760003560e01c80634357855e146100465780636021abac1461007e578063c618a1e41461009c575b600080fd5b61007c6004803603604081101561005c57600080fd5b8101908080359060200190929190803590602001909291905050506100ba565b005b6100866101e1565b6040518082815260200191505060405180910390f35b6100a461036f565b6040518082815260200191505060405180910390f35b816005600082815260200190815260200160002060009054906101000a900473ffffffffffffffffffffffffffffffffffffffff1673ffffffffffffffffffffffffffffffffffffffff163373ffffffffffffffffffffffffffffffffffffffff1614610172576040517f08c379a0000000000000000000000000000000000000000000000000000000008152600401808060200182810382526028815260200180610f8d6028913960400191505060405180910390fd5b6005600082815260200190815260200160002060006101000a81549073ffffffffffffffffffffffffffffffffffffffff0219169055807f7cc135e0cebb02c3480ae5d74d377283180a2601f8f644edf7987b009316c63a60405160405180910390a281600681905550505050565b60006101eb610ec8565b6101ff60085430634357855e60e01b610375565b90506102636040518060400160405280600381526020017f6765740000000000000000000000000000000000000000000000000000000000815250604051806080016040528060498152602001610fb560499139836103a69092919063ffffffff16565b6102e26040518060400160405280600481526020017f70617468000000000000000000000000000000000000000000000000000000008152506040518060400160405280601881526020017f5241572e4554482e5553442e564f4c554d453234484f55520000000000000000815250836103a69092919063ffffffff16565b6000670de0b6b3a764000090506103396040518060400160405280600581526020017f74696d657300000000000000000000000000000000000000000000000000000081525082846103d99092919063ffffffff16565b610368600760009054906101000a900473ffffffffffffffffffffffffffffffffffffffff168360095461040c565b9250505090565b60065481565b61037d610ec8565b610385610ec8565b61039c858585846106c4909392919063ffffffff16565b9150509392505050565b6103bd82846080015161077490919063ffffffff16565b6103d481846080015161077490919063ffffffff16565b505050565b6103f082846080015161077490919063ffffffff16565b61040781846080015161079990919063ffffffff16565b505050565b600030600454604051602001808373ffffffffffffffffffffffffffffffffffffffff1673ffffffffffffffffffffffffffffffffffffffff1660601b815260140182815260200192505050604051602081830303815290604052805190602001209050600454836060018181525050836005600083815260200190815260200160002060006101000a81548173ffffffffffffffffffffffffffffffffffffffff021916908373ffffffffffffffffffffffffffffffffffffffff160217905550807fb5e6e01e79f91267dc17b4e6314d5d4d03593d2ceee0fbb452b750bd70ea5af960405160405180910390a2600260009054906101000a900473ffffffffffffffffffffffffffffffffffffffff1673ffffffffffffffffffffffffffffffffffffffff16634000aea085846105448761083d565b6040518463ffffffff1660e01b8152600401808473ffffffffffffffffffffffffffffffffffffffff1673ffffffffffffffffffffffffffffffffffffffff16815260200183815260200180602001828103825283818151815260200191508051906020019080838360005b838110156105cb5780820151818401526020810190506105b0565b50505050905090810190601f1680156105f85780820380516001836020036101000a031916815260200191505b50945050505050602060405180830381600087803b15801561061957600080fd5b505af115801561062d573d6000803e3d6000fd5b505050506040513d602081101561064357600080fd5b81019080805190602001909291905050506106a9576040517f08c379a0000000000000000000000000000000000000000000000000000000008152600401808060200182810382526023815260200180610f6a6023913960400191505060405180910390fd5b60016004600082825401925050819055508090509392505050565b6106cc610ec8565b6106dc8560800151610100610a44565b508385600001818152505082856020019073ffffffffffffffffffffffffffffffffffffffff16908173ffffffffffffffffffffffffffffffffffffffff16815250508185604001907bffffffffffffffffffffffffffffffffffffffffffffffffffffffff191690817bffffffffffffffffffffffffffffffffffffffffffffffffffffffff191681525050849050949350505050565b6107818260038351610a98565b6107948183610bdd90919063ffffffff16565b505050565b7fffffffffffffffffffffffffffffffffffffffffffffffff00000000000000008112156107d0576107cb8282610bff565b610839565b67ffffffffffffffff8113156107ef576107ea8282610c6d565b610838565b600081126108085761080382600083610a98565b610837565b610836826001837fffffffffffffffffffffffffffffffffffffffffffffffffffffffffffffffff03610a98565b5b5b5b5050565b6060600360009054906101000a900473ffffffffffffffffffffffffffffffffffffffff1673ffffffffffffffffffffffffffffffffffffffff166340429946905060e01b60008084600001518560200151866040015187606001516001896080015160000151604051602401808973ffffffffffffffffffffffffffffffffffffffff1673ffffffffffffffffffffffffffffffffffffffff1681526020018881526020018781526020018673ffffffffffffffffffffffffffffffffffffffff1673ffffffffffffffffffffffffffffffffffffffff168152602001857bffffffffffffffffffffffffffffffffffffffffffffffffffffffff19167bffffffffffffffffffffffffffffffffffffffffffffffffffffffff1916815260200184815260200183815260200180602001828103825283818151815260200191508051906020019080838360005b838110156109a757808201518184015260208101905061098c565b50505050905090810190601f1680156109d45780820380516001836020036101000a031916815260200191505b509950505050505050505050604051602081830303815290604052907bffffffffffffffffffffffffffffffffffffffffffffffffffffffff19166020820180517bffffffffffffffffffffffffffffffffffffffffffffffffffffffff83818316178352505050509050919050565b610a4c610f35565b600060208381610a5857fe5b0614610a715760208281610a6857fe5b06602003820191505b81836020018181525050604051808452600081528281016020016040525082905092915050565b60178111610ac557610abf8160058460ff16901b60ff161784610cb990919063ffffffff16565b50610bd8565b60ff8111610b0757610aea601860058460ff16901b1784610cb990919063ffffffff16565b50610b0181600185610cd99092919063ffffffff16565b50610bd7565b61ffff8111610b4a57610b2d601960058460ff16901b1784610cb990919063ffffffff16565b50610b4481600285610cd99092919063ffffffff16565b50610bd6565b63ffffffff8111610b8f57610b72601a60058460ff16901b1784610cb990919063ffffffff16565b50610b8981600485610cd99092919063ffffffff16565b50610bd5565b67ffffffffffffffff8111610bd457610bbb601b60058460ff16901b1784610cb990919063ffffffff16565b50610bd281600885610cd99092919063ffffffff16565b505b5b5b5b5b505050565b610be5610f35565b610bf783846000015151848551610cfb565b905092915050565b610c1d60036005600660ff16901b1783610cb990919063ffffffff16565b50610c6982827fffffffffffffffffffffffffffffffffffffffffffffffffffffffffffffffff0360405160200180828152602001915050604051602081830303815290604052610db4565b5050565b610c8b60026005600660ff16901b1783610cb990919063ffffffff16565b50610cb5828260405160200180828152602001915050604051602081830303815290604052610db4565b5050565b610cc1610f35565b610cd18384600001515184610dd9565b905092915050565b610ce1610f35565b610cf2848560000151518585610e27565b90509392505050565b610d03610f35565b8251821115610d1157600080fd5b84602001518285011115610d3c57610d3b856002610d358860200151888701610e88565b02610ea4565b5b600080865180518760208301019350808887011115610d5b5787860182525b60208701925050505b60208410610d875780518252602082019150602081019050602084039350610d64565b60006001856020036101000a03905080198251168184511681811785525050879350505050949350505050565b610dc18260028351610a98565b610dd48183610bdd90919063ffffffff16565b505050565b610de1610f35565b83602001518310610dfe57610dfd846002866020015102610ea4565b5b8351805160208583010184815381861415610e1a576001820183525b5050508390509392505050565b610e2f610f35565b84602001518483011115610e4d57610e4c85600286850102610ea4565b5b60006001836101000a0390508551838682010185831982511617815281518588011115610e7a5784870182525b505085915050949350505050565b600081831115610e9a57829050610e9e565b8190505b92915050565b606082600001519050610eb78383610a44565b50610ec28382610bdd565b50505050565b6040518060a0016040528060008019168152602001600073ffffffffffffffffffffffffffffffffffffffff16815260200160007bffffffffffffffffffffffffffffffffffffffffffffffffffffffff1916815260200160008152602001610f2f610f4f565b81525090565b604051806040016040528060608152602001600081525090565b60405180604001604052806060815260200160008152509056fe756e61626c6520746f207472616e73666572416e6443616c6c20746f206f7261636c65536f75726365206d75737420626520746865206f7261636c65206f6620746865207265717565737468747470733a2f2f6d696e2d6170692e63727970746f636f6d706172652e636f6d2f646174612f70726963656d756c746966756c6c3f6673796d733d455448267473796d733d555344a2646970667358221220f573ecf5a180abb584903eaec7042e96a837955daa918ed5b26952e91e648f9e64736f6c63430006000033",
  "source": "//OM NAMO NARAYANA\n\npragma solidity ^0.6.0;\n\nimport \"@chainlink/contracts/src/v0.6/ChainlinkClient.sol\";\ncontract ChainlinkDemo{\n    bytes32 data;\n    constructor() public{\n        data = 0;\n    }\n}\n\ncontract APIConsumer is ChainlinkClient {\n  \n    uint256 public volume;\n    \n    address private oracle;\n    bytes32 private jobId;\n    uint256 private fee;\n    \n    /**\n     * Network: Kovan\n     * Oracle: 0x2f90A6D021db21e1B2A077c5a37B3C7E75D15b7e\n     * Job ID: 29fa9aa13bf1468788b7cc4a500a45b8\n     * Fee: 0.1 LINK\n     */\n    constructor() public {\n        setPublicChainlinkToken();\n        oracle = 0x2f90A6D021db21e1B2A077c5a37B3C7E75D15b7e;\n        jobId = \"29fa9aa13bf1468788b7cc4a500a45b8\";\n        fee = 0.1 * 10 ** 18; // 0.1 LINK\n    }\n    \n    /**\n     * Create a Chainlink request to retrieve API response, find the target\n     * data, then multiply by 1000000000000000000 (to remove decimal places from data).\n     */\n    function requestVolumeData() public returns (bytes32 requestId) \n    {\n        Chainlink.Request memory request = buildChainlinkRequest(jobId, address(this), this.fulfill.selector);\n        \n        // Set the URL to perform the GET request on\n        request.add(\"get\", \"https://min-api.cryptocompare.com/data/pricemultifull?fsyms=ETH&tsyms=USD\");\n        \n        // Set the path to find the desired data in the API response, where the response format is:\n        // {\"RAW\":\n        //   {\"ETH\":\n        //    {\"USD\":\n        //     {\n        //      \"VOLUME24HOUR\": xxx.xxx,\n        //     }\n        //    }\n        //   }\n        //  }\n        request.add(\"path\", \"RAW.ETH.USD.VOLUME24HOUR\");\n        \n        // Multiply the result by 1000000000000000000 to remove decimals\n        int timesAmount = 10**18;\n        request.addInt(\"times\", timesAmount);\n        \n        // Sends the request\n        return sendChainlinkRequestTo(oracle, request, fee);\n    }\n    \n    /**\n     * Receive the response in the form of uint256\n     */ \n    function fulfill(bytes32 _requestId, uint256 _volume) public recordChainlinkFulfillment(_requestId)\n    {\n        volume = _volume;\n    }\n}",
  "sourcePath": "/home/arvinth/projects/blockchain/spectrum/ethereum/contracts/ChainlinkDemo.sol",
  "compiler": {
    "name": "solc",
    "version": "0.6.0+commit.26b70077.Emscripten.clang"
  },
  "schemaVersion": "3.3.4",
  "updatedAt": "2021-02-19T13:19:46.986Z",
  "devdoc": {
    "methods": {}
  },
  "userdoc": {
    "methods": {
      "constructor": "Network: Kovan Oracle: 0x2f90A6D021db21e1B2A077c5a37B3C7E75D15b7e Job ID: 29fa9aa13bf1468788b7cc4a500a45b8 Fee: 0.1 LINK",
      "fulfill(bytes32,uint256)": {
        "notice": "Receive the response in the form of uint256"
      },
      "requestVolumeData()": {
        "notice": "Create a Chainlink request to retrieve API response, find the target data, then multiply by 1000000000000000000 (to remove decimal places from data)."
      }
    }
  }
}