{
  "contractName": "APIConsumer",
  "abi": [
    {
      "inputs": [],
      "stateMutability": "nonpayable",
      "type": "constructor"
    },
    {
      "anonymous": false,
      "inputs": [
        {
          "indexed": true,
          "internalType": "bytes32",
          "name": "id",
          "type": "bytes32"
        }
      ],
      "name": "ChainlinkCancelled",
      "type": "event"
    },
    {
      "anonymous": false,
      "inputs": [
        {
          "indexed": true,
          "internalType": "bytes32",
          "name": "id",
          "type": "bytes32"
        }
      ],
      "name": "ChainlinkFulfilled",
      "type": "event"
    },
    {
      "anonymous": false,
      "inputs": [
        {
          "indexed": true,
          "internalType": "bytes32",
          "name": "id",
          "type": "bytes32"
        }
      ],
      "name": "ChainlinkRequested",
      "type": "event"
    },
    {
      "inputs": [],
      "name": "volume",
      "outputs": [
        {
          "internalType": "uint256",
          "name": "",
          "type": "uint256"
        }
      ],
      "stateMutability": "view",
      "type": "function"
    },
    {
      "inputs": [],
      "name": "testFunction",
      "outputs": [
        {
          "internalType": "int256",
          "name": "test_data",
          "type": "int256"
        }
      ],
      "stateMutability": "nonpayable",
      "type": "function"
    },
    {
      "inputs": [],
      "name": "requestVolumeData",
      "outputs": [
        {
          "internalType": "bytes32",
          "name": "requestId",
          "type": "bytes32"
        }
      ],
      "stateMutability": "nonpayable",
      "type": "function"
    },
    {
      "inputs": [
        {
          "internalType": "bytes32",
          "name": "_requestId",
          "type": "bytes32"
        },
        {
          "internalType": "uint256",
          "name": "_volume",
          "type": "uint256"
        }
      ],
      "name": "fulfill",
      "outputs": [],
      "stateMutability": "nonpayable",
      "type": "function"
    }
  ],
  "bytecode": "0x6080604052600160045534801561001557600080fd5b5061002461012860201b60201c565b737afe1118ea78c1eae84ca8fee5c65bc76ccf879e600760006101000a81548173ffffffffffffffffffffffffffffffffffffffff021916908373ffffffffffffffffffffffffffffffffffffffff1602179055507f366431626665323765373033346231643837623532373035353662313732373760088190555067016345785d8a00006009819055506001610123576040517f08c379a00000000000000000000000000000000000000000000000000000000081526004018080602001828103825260128152602001807f70617373656420636f6e7374727563746f72000000000000000000000000000081525060200191505060405180910390fd5b610211565b6101cb73c89bd4e1632d3a43cb03aaad5262cbe4038bc57173ffffffffffffffffffffffffffffffffffffffff166338cc48316040518163ffffffff1660e01b815260040160206040518083038186803b15801561018557600080fd5b505afa158015610199573d6000803e3d6000fd5b505050506040513d60208110156101af57600080fd5b81019080805190602001909291905050506101cd60201b60201c565b565b80600260006101000a81548173ffffffffffffffffffffffffffffffffffffffff021916908373ffffffffffffffffffffffffffffffffffffffff16021790555050565b611150806102206000396000f3fe608060405234801561001057600080fd5b506004361061004c5760003560e01c80634357855e146100515780636021abac14610089578063c618a1e4146100a7578063e16b4a9b146100c5575b600080fd5b6100876004803603604081101561006757600080fd5b8101908080359060200190929190803590602001909291905050506100e3565b005b61009161020a565b6040518082815260200191505060405180910390f35b6100af610480565b6040518082815260200191505060405180910390f35b6100cd610486565b6040518082815260200191505060405180910390f35b816005600082815260200190815260200160002060009054906101000a900473ffffffffffffffffffffffffffffffffffffffff1673ffffffffffffffffffffffffffffffffffffffff163373ffffffffffffffffffffffffffffffffffffffff161461019b576040517f08c379a00000000000000000000000000000000000000000000000000000000081526004018080602001828103825260288152602001806110aa6028913960400191505060405180910390fd5b6005600082815260200190815260200160002060006101000a81549073ffffffffffffffffffffffffffffffffffffffff0219169055807f7cc135e0cebb02c3480ae5d74d377283180a2601f8f644edf7987b009316c63a60405160405180910390a281600681905550505050565b60006001610280576040517f08c379a00000000000000000000000000000000000000000000000000000000081526004018080602001828103825260118152602001807f726571756573744461746143616c6c656400000000000000000000000000000081525060200191505060405180910390fd5b610288610fe5565b61029c60085430634357855e60e01b610492565b90506001610312576040517f08c379a000000000000000000000000000000000000000000000000000000000815260040180806020018281038252601a8152602001807f6275696c64436861696e4c696e6b5265717565737420646f6e6500000000000081525060200191505060405180910390fd5b6103746040518060400160405280600381526020017f67657400000000000000000000000000000000000000000000000000000000008152506040518060800160405280604981526020016110d260499139836104c39092919063ffffffff16565b6103f36040518060400160405280600481526020017f70617468000000000000000000000000000000000000000000000000000000008152506040518060400160405280601881526020017f5241572e4554482e5553442e564f4c554d453234484f55520000000000000000815250836104c39092919063ffffffff16565b6000670de0b6b3a7640000905061044a6040518060400160405280600581526020017f74696d657300000000000000000000000000000000000000000000000000000081525082846104f69092919063ffffffff16565b610479600760009054906101000a900473ffffffffffffffffffffffffffffffffffffffff1683600954610529565b9250505090565b60065481565b60006001905080905090565b61049a610fe5565b6104a2610fe5565b6104b9858585846107e1909392919063ffffffff16565b9150509392505050565b6104da82846080015161089190919063ffffffff16565b6104f181846080015161089190919063ffffffff16565b505050565b61050d82846080015161089190919063ffffffff16565b6105248184608001516108b690919063ffffffff16565b505050565b600030600454604051602001808373ffffffffffffffffffffffffffffffffffffffff1673ffffffffffffffffffffffffffffffffffffffff1660601b815260140182815260200192505050604051602081830303815290604052805190602001209050600454836060018181525050836005600083815260200190815260200160002060006101000a81548173ffffffffffffffffffffffffffffffffffffffff021916908373ffffffffffffffffffffffffffffffffffffffff160217905550807fb5e6e01e79f91267dc17b4e6314d5d4d03593d2ceee0fbb452b750bd70ea5af960405160405180910390a2600260009054906101000a900473ffffffffffffffffffffffffffffffffffffffff1673ffffffffffffffffffffffffffffffffffffffff16634000aea085846106618761095a565b6040518463ffffffff1660e01b8152600401808473ffffffffffffffffffffffffffffffffffffffff1673ffffffffffffffffffffffffffffffffffffffff16815260200183815260200180602001828103825283818151815260200191508051906020019080838360005b838110156106e85780820151818401526020810190506106cd565b50505050905090810190601f1680156107155780820380516001836020036101000a031916815260200191505b50945050505050602060405180830381600087803b15801561073657600080fd5b505af115801561074a573d6000803e3d6000fd5b505050506040513d602081101561076057600080fd5b81019080805190602001909291905050506107c6576040517f08c379a00000000000000000000000000000000000000000000000000000000081526004018080602001828103825260238152602001806110876023913960400191505060405180910390fd5b60016004600082825401925050819055508090509392505050565b6107e9610fe5565b6107f98560800151610100610b61565b508385600001818152505082856020019073ffffffffffffffffffffffffffffffffffffffff16908173ffffffffffffffffffffffffffffffffffffffff16815250508185604001907bffffffffffffffffffffffffffffffffffffffffffffffffffffffff191690817bffffffffffffffffffffffffffffffffffffffffffffffffffffffff191681525050849050949350505050565b61089e8260038351610bb5565b6108b18183610cfa90919063ffffffff16565b505050565b7fffffffffffffffffffffffffffffffffffffffffffffffff00000000000000008112156108ed576108e88282610d1c565b610956565b67ffffffffffffffff81131561090c576109078282610d8a565b610955565b600081126109255761092082600083610bb5565b610954565b610953826001837fffffffffffffffffffffffffffffffffffffffffffffffffffffffffffffffff03610bb5565b5b5b5b5050565b6060600360009054906101000a900473ffffffffffffffffffffffffffffffffffffffff1673ffffffffffffffffffffffffffffffffffffffff166340429946905060e01b60008084600001518560200151866040015187606001516001896080015160000151604051602401808973ffffffffffffffffffffffffffffffffffffffff1673ffffffffffffffffffffffffffffffffffffffff1681526020018881526020018781526020018673ffffffffffffffffffffffffffffffffffffffff1673ffffffffffffffffffffffffffffffffffffffff168152602001857bffffffffffffffffffffffffffffffffffffffffffffffffffffffff19167bffffffffffffffffffffffffffffffffffffffffffffffffffffffff1916815260200184815260200183815260200180602001828103825283818151815260200191508051906020019080838360005b83811015610ac4578082015181840152602081019050610aa9565b50505050905090810190601f168015610af15780820380516001836020036101000a031916815260200191505b509950505050505050505050604051602081830303815290604052907bffffffffffffffffffffffffffffffffffffffffffffffffffffffff19166020820180517bffffffffffffffffffffffffffffffffffffffffffffffffffffffff83818316178352505050509050919050565b610b69611052565b600060208381610b7557fe5b0614610b8e5760208281610b8557fe5b06602003820191505b81836020018181525050604051808452600081528281016020016040525082905092915050565b60178111610be257610bdc8160058460ff16901b60ff161784610dd690919063ffffffff16565b50610cf5565b60ff8111610c2457610c07601860058460ff16901b1784610dd690919063ffffffff16565b50610c1e81600185610df69092919063ffffffff16565b50610cf4565b61ffff8111610c6757610c4a601960058460ff16901b1784610dd690919063ffffffff16565b50610c6181600285610df69092919063ffffffff16565b50610cf3565b63ffffffff8111610cac57610c8f601a60058460ff16901b1784610dd690919063ffffffff16565b50610ca681600485610df69092919063ffffffff16565b50610cf2565b67ffffffffffffffff8111610cf157610cd8601b60058460ff16901b1784610dd690919063ffffffff16565b50610cef81600885610df69092919063ffffffff16565b505b5b5b5b5b505050565b610d02611052565b610d1483846000015151848551610e18565b905092915050565b610d3a60036005600660ff16901b1783610dd690919063ffffffff16565b50610d8682827fffffffffffffffffffffffffffffffffffffffffffffffffffffffffffffffff0360405160200180828152602001915050604051602081830303815290604052610ed1565b5050565b610da860026005600660ff16901b1783610dd690919063ffffffff16565b50610dd2828260405160200180828152602001915050604051602081830303815290604052610ed1565b5050565b610dde611052565b610dee8384600001515184610ef6565b905092915050565b610dfe611052565b610e0f848560000151518585610f44565b90509392505050565b610e20611052565b8251821115610e2e57600080fd5b84602001518285011115610e5957610e58856002610e528860200151888701610fa5565b02610fc1565b5b600080865180518760208301019350808887011115610e785787860182525b60208701925050505b60208410610ea45780518252602082019150602081019050602084039350610e81565b60006001856020036101000a03905080198251168184511681811785525050879350505050949350505050565b610ede8260028351610bb5565b610ef18183610cfa90919063ffffffff16565b505050565b610efe611052565b83602001518310610f1b57610f1a846002866020015102610fc1565b5b8351805160208583010184815381861415610f37576001820183525b5050508390509392505050565b610f4c611052565b84602001518483011115610f6a57610f6985600286850102610fc1565b5b60006001836101000a0390508551838682010185831982511617815281518588011115610f975784870182525b505085915050949350505050565b600081831115610fb757829050610fbb565b8190505b92915050565b606082600001519050610fd48383610b61565b50610fdf8382610cfa565b50505050565b6040518060a0016040528060008019168152602001600073ffffffffffffffffffffffffffffffffffffffff16815260200160007bffffffffffffffffffffffffffffffffffffffffffffffffffffffff191681526020016000815260200161104c61106c565b81525090565b604051806040016040528060608152602001600081525090565b60405180604001604052806060815260200160008152509056fe756e61626c6520746f207472616e73666572416e6443616c6c20746f206f7261636c65536f75726365206d75737420626520746865206f7261636c65206f6620746865207265717565737468747470733a2f2f6d696e2d6170692e63727970746f636f6d706172652e636f6d2f646174612f70726963656d756c746966756c6c3f6673796d733d455448267473796d733d555344a2646970667358221220421c966a3d4e492bca28f24094d14c63dc997867df009b4a9df4a749254ddc0664736f6c63430006000033",
  "source": "//OM NAMO NARAYANA\n\npragma solidity ^0.6.0;\n\nimport \"@chainlink/contracts/src/v0.6/ChainlinkClient.sol\";\n\n\ncontract APIConsumer is ChainlinkClient {\n  \n    uint256 public volume;\n    \n    address private oracle;\n    bytes32 private jobId;\n    uint256 private fee;\n\n\n\n    constructor() public {\n\n\n        //change the oracle and jobId during rinkeby deployment\n\n        setPublicChainlinkToken();\n        oracle = 0x7AFe1118Ea78C1eae84ca8feE5C65Bc76CcF879e;\n        jobId = \"6d1bfe27e7034b1d87b5270556b17277\";\n        fee = 0.1 * 10 ** 18; \n        require(true, \"passed constructor\");\n    }\n\n\n    //function to debug APIConsumer\n    function testFunction() public returns (int test_data){\n        test_data = 1;\n        return test_data;\n        bytes32 request_data = requestVolumeData();\n    }\n\n    function requestVolumeData() public returns (bytes32 requestId) \n    {\n\n        require(true, \"requestDataCalled\");\n        Chainlink.Request memory request = buildChainlinkRequest(jobId, address(this), this.fulfill.selector);\n        require(true, \"buildChainLinkRequest done\");\n        \n        //here we put the address of the api call. This can be used to get images.\n        request.add(\"get\", \"https://min-api.cryptocompare.com/data/pricemultifull?fsyms=ETH&tsyms=USD\");\n        \n       \n        request.add(\"path\", \"RAW.ETH.USD.VOLUME24HOUR\");\n        \n        int timesAmount = 10**18;\n        request.addInt(\"times\", timesAmount);\n        \n\n        //change the aggregator settings during deployment in infura\n        return sendChainlinkRequestTo(oracle, request, fee);\n    }\n\n    function fulfill(bytes32 _requestId, uint256 _volume) public recordChainlinkFulfillment(_requestId)\n    {\n        volume = _volume;\n    }\n}\n\ncontract SpecChain is APIConsumer{\n    address public manager;\n    string public name;\n    string public content;\n    bytes32 data;\n    constructor() public {\n        data = requestVolumeData();\n    }\n    function getData() public{\n\n    }\n}",
  "sourcePath": "/home/arvinth/projects/blockchain/spectrum/ethereum/contracts/SpecChain.sol",
  "compiler": {
    "name": "solc",
    "version": "0.6.0+commit.26b70077.Emscripten.clang"
  },
  "schemaVersion": "3.3.4",
  "updatedAt": "2021-03-07T05:21:53.089Z",
  "devdoc": {
    "methods": {}
  },
  "userdoc": {
    "methods": {}
  }
}