{
  "contractName": "APIConsumer",
  "abi": [
    {
      "inputs": [],
      "stateMutability": "nonpayable",
      "type": "constructor"
    },
    {
      "anonymous": false,
      "inputs": [
        {
          "indexed": true,
          "internalType": "bytes32",
          "name": "id",
          "type": "bytes32"
        }
      ],
      "name": "ChainlinkCancelled",
      "type": "event"
    },
    {
      "anonymous": false,
      "inputs": [
        {
          "indexed": true,
          "internalType": "bytes32",
          "name": "id",
          "type": "bytes32"
        }
      ],
      "name": "ChainlinkFulfilled",
      "type": "event"
    },
    {
      "anonymous": false,
      "inputs": [
        {
          "indexed": true,
          "internalType": "bytes32",
          "name": "id",
          "type": "bytes32"
        }
      ],
      "name": "ChainlinkRequested",
      "type": "event"
    },
    {
      "inputs": [],
      "name": "volume",
      "outputs": [
        {
          "internalType": "uint256",
          "name": "",
          "type": "uint256"
        }
      ],
      "stateMutability": "view",
      "type": "function"
    },
    {
      "inputs": [],
      "name": "dummyFunction",
      "outputs": [
        {
          "internalType": "int256",
          "name": "dummy",
          "type": "int256"
        }
      ],
      "stateMutability": "pure",
      "type": "function"
    },
    {
      "inputs": [],
      "name": "requestVolumeData",
      "outputs": [
        {
          "internalType": "bytes32",
          "name": "requestId",
          "type": "bytes32"
        }
      ],
      "stateMutability": "nonpayable",
      "type": "function"
    },
    {
      "inputs": [
        {
          "internalType": "bytes32",
          "name": "_requestId",
          "type": "bytes32"
        },
        {
          "internalType": "uint256",
          "name": "_volume",
          "type": "uint256"
        }
      ],
      "name": "fulfill",
      "outputs": [],
      "stateMutability": "nonpayable",
      "type": "function"
    }
  ],
  "bytecode": "0x6080604052600160045534801561001557600080fd5b50732f90a6d021db21e1b2a077c5a37b3c7e75d15b7e600760006101000a81548173ffffffffffffffffffffffffffffffffffffffff021916908373ffffffffffffffffffffffffffffffffffffffff1602179055507f323966613961613133626631343638373838623763633461353030613435623860088190555067016345785d8a0000600981905550611068806100b06000396000f3fe608060405234801561001057600080fd5b506004361061004c5760003560e01c80634357855e146100515780636021abac146100895780637ec9d81f146100a7578063c618a1e4146100c5575b600080fd5b6100876004803603604081101561006757600080fd5b8101908080359060200190929190803590602001909291905050506100e3565b005b61009161020a565b6040518082815260200191505060405180910390f35b6100af610398565b6040518082815260200191505060405180910390f35b6100cd6103a4565b6040518082815260200191505060405180910390f35b816005600082815260200190815260200160002060009054906101000a900473ffffffffffffffffffffffffffffffffffffffff1673ffffffffffffffffffffffffffffffffffffffff163373ffffffffffffffffffffffffffffffffffffffff161461019b576040517f08c379a0000000000000000000000000000000000000000000000000000000008152600401808060200182810382526028815260200180610fc26028913960400191505060405180910390fd5b6005600082815260200190815260200160002060006101000a81549073ffffffffffffffffffffffffffffffffffffffff0219169055807f7cc135e0cebb02c3480ae5d74d377283180a2601f8f644edf7987b009316c63a60405160405180910390a281600681905550505050565b6000610214610efd565b61022860085430634357855e60e01b6103aa565b905061028c6040518060400160405280600381526020017f6765740000000000000000000000000000000000000000000000000000000000815250604051806080016040528060498152602001610fea60499139836103db9092919063ffffffff16565b61030b6040518060400160405280600481526020017f70617468000000000000000000000000000000000000000000000000000000008152506040518060400160405280601881526020017f5241572e4554482e5553442e564f4c554d453234484f55520000000000000000815250836103db9092919063ffffffff16565b6000670de0b6b3a764000090506103626040518060400160405280600581526020017f74696d6573000000000000000000000000000000000000000000000000000000815250828461040e9092919063ffffffff16565b610391600760009054906101000a900473ffffffffffffffffffffffffffffffffffffffff1683600954610441565b9250505090565b60006001905080905090565b60065481565b6103b2610efd565b6103ba610efd565b6103d1858585846106f9909392919063ffffffff16565b9150509392505050565b6103f28284608001516107a990919063ffffffff16565b6104098184608001516107a990919063ffffffff16565b505050565b6104258284608001516107a990919063ffffffff16565b61043c8184608001516107ce90919063ffffffff16565b505050565b600030600454604051602001808373ffffffffffffffffffffffffffffffffffffffff1673ffffffffffffffffffffffffffffffffffffffff1660601b815260140182815260200192505050604051602081830303815290604052805190602001209050600454836060018181525050836005600083815260200190815260200160002060006101000a81548173ffffffffffffffffffffffffffffffffffffffff021916908373ffffffffffffffffffffffffffffffffffffffff160217905550807fb5e6e01e79f91267dc17b4e6314d5d4d03593d2ceee0fbb452b750bd70ea5af960405160405180910390a2600260009054906101000a900473ffffffffffffffffffffffffffffffffffffffff1673ffffffffffffffffffffffffffffffffffffffff16634000aea0858461057987610872565b6040518463ffffffff1660e01b8152600401808473ffffffffffffffffffffffffffffffffffffffff1673ffffffffffffffffffffffffffffffffffffffff16815260200183815260200180602001828103825283818151815260200191508051906020019080838360005b838110156106005780820151818401526020810190506105e5565b50505050905090810190601f16801561062d5780820380516001836020036101000a031916815260200191505b50945050505050602060405180830381600087803b15801561064e57600080fd5b505af1158015610662573d6000803e3d6000fd5b505050506040513d602081101561067857600080fd5b81019080805190602001909291905050506106de576040517f08c379a0000000000000000000000000000000000000000000000000000000008152600401808060200182810382526023815260200180610f9f6023913960400191505060405180910390fd5b60016004600082825401925050819055508090509392505050565b610701610efd565b6107118560800151610100610a79565b508385600001818152505082856020019073ffffffffffffffffffffffffffffffffffffffff16908173ffffffffffffffffffffffffffffffffffffffff16815250508185604001907bffffffffffffffffffffffffffffffffffffffffffffffffffffffff191690817bffffffffffffffffffffffffffffffffffffffffffffffffffffffff191681525050849050949350505050565b6107b68260038351610acd565b6107c98183610c1290919063ffffffff16565b505050565b7fffffffffffffffffffffffffffffffffffffffffffffffff0000000000000000811215610805576108008282610c34565b61086e565b67ffffffffffffffff8113156108245761081f8282610ca2565b61086d565b6000811261083d5761083882600083610acd565b61086c565b61086b826001837fffffffffffffffffffffffffffffffffffffffffffffffffffffffffffffffff03610acd565b5b5b5b5050565b6060600360009054906101000a900473ffffffffffffffffffffffffffffffffffffffff1673ffffffffffffffffffffffffffffffffffffffff166340429946905060e01b60008084600001518560200151866040015187606001516001896080015160000151604051602401808973ffffffffffffffffffffffffffffffffffffffff1673ffffffffffffffffffffffffffffffffffffffff1681526020018881526020018781526020018673ffffffffffffffffffffffffffffffffffffffff1673ffffffffffffffffffffffffffffffffffffffff168152602001857bffffffffffffffffffffffffffffffffffffffffffffffffffffffff19167bffffffffffffffffffffffffffffffffffffffffffffffffffffffff1916815260200184815260200183815260200180602001828103825283818151815260200191508051906020019080838360005b838110156109dc5780820151818401526020810190506109c1565b50505050905090810190601f168015610a095780820380516001836020036101000a031916815260200191505b509950505050505050505050604051602081830303815290604052907bffffffffffffffffffffffffffffffffffffffffffffffffffffffff19166020820180517bffffffffffffffffffffffffffffffffffffffffffffffffffffffff83818316178352505050509050919050565b610a81610f6a565b600060208381610a8d57fe5b0614610aa65760208281610a9d57fe5b06602003820191505b81836020018181525050604051808452600081528281016020016040525082905092915050565b60178111610afa57610af48160058460ff16901b60ff161784610cee90919063ffffffff16565b50610c0d565b60ff8111610b3c57610b1f601860058460ff16901b1784610cee90919063ffffffff16565b50610b3681600185610d0e9092919063ffffffff16565b50610c0c565b61ffff8111610b7f57610b62601960058460ff16901b1784610cee90919063ffffffff16565b50610b7981600285610d0e9092919063ffffffff16565b50610c0b565b63ffffffff8111610bc457610ba7601a60058460ff16901b1784610cee90919063ffffffff16565b50610bbe81600485610d0e9092919063ffffffff16565b50610c0a565b67ffffffffffffffff8111610c0957610bf0601b60058460ff16901b1784610cee90919063ffffffff16565b50610c0781600885610d0e9092919063ffffffff16565b505b5b5b5b5b505050565b610c1a610f6a565b610c2c83846000015151848551610d30565b905092915050565b610c5260036005600660ff16901b1783610cee90919063ffffffff16565b50610c9e82827fffffffffffffffffffffffffffffffffffffffffffffffffffffffffffffffff0360405160200180828152602001915050604051602081830303815290604052610de9565b5050565b610cc060026005600660ff16901b1783610cee90919063ffffffff16565b50610cea828260405160200180828152602001915050604051602081830303815290604052610de9565b5050565b610cf6610f6a565b610d068384600001515184610e0e565b905092915050565b610d16610f6a565b610d27848560000151518585610e5c565b90509392505050565b610d38610f6a565b8251821115610d4657600080fd5b84602001518285011115610d7157610d70856002610d6a8860200151888701610ebd565b02610ed9565b5b600080865180518760208301019350808887011115610d905787860182525b60208701925050505b60208410610dbc5780518252602082019150602081019050602084039350610d99565b60006001856020036101000a03905080198251168184511681811785525050879350505050949350505050565b610df68260028351610acd565b610e098183610c1290919063ffffffff16565b505050565b610e16610f6a565b83602001518310610e3357610e32846002866020015102610ed9565b5b8351805160208583010184815381861415610e4f576001820183525b5050508390509392505050565b610e64610f6a565b84602001518483011115610e8257610e8185600286850102610ed9565b5b60006001836101000a0390508551838682010185831982511617815281518588011115610eaf5784870182525b505085915050949350505050565b600081831115610ecf57829050610ed3565b8190505b92915050565b606082600001519050610eec8383610a79565b50610ef78382610c12565b50505050565b6040518060a0016040528060008019168152602001600073ffffffffffffffffffffffffffffffffffffffff16815260200160007bffffffffffffffffffffffffffffffffffffffffffffffffffffffff1916815260200160008152602001610f64610f84565b81525090565b604051806040016040528060608152602001600081525090565b60405180604001604052806060815260200160008152509056fe756e61626c6520746f207472616e73666572416e6443616c6c20746f206f7261636c65536f75726365206d75737420626520746865206f7261636c65206f6620746865207265717565737468747470733a2f2f6d696e2d6170692e63727970746f636f6d706172652e636f6d2f646174612f70726963656d756c746966756c6c3f6673796d733d455448267473796d733d555344a2646970667358221220245b9011069d429e554a25887af95126b99a64b6e00fb4a769835237f058619b64736f6c63430006000033",
  "source": "//OM NAMO NARAYANA\n\npragma solidity ^0.6.0;\n\nimport \"@chainlink/contracts/src/v0.6/ChainlinkClient.sol\";\ncontract ChainlinkDemo{\n    bytes32 data;\n    constructor() public{\n        data = 0;\n    }\n}\n\ncontract APIConsumer is ChainlinkClient {\n  \n    uint256 public volume;\n    \n    address private oracle;\n    bytes32 private jobId;\n    uint256 private fee;\n    \n    /**\n     * Network: Kovan\n     * Oracle: 0x2f90A6D021db21e1B2A077c5a37B3C7E75D15b7e\n     * Job ID: 29fa9aa13bf1468788b7cc4a500a45b8\n     * Fee: 0.1 LINK\n     */\n    constructor() public {\n        // setPublicChainlinkToken();\n        oracle = 0x2f90A6D021db21e1B2A077c5a37B3C7E75D15b7e;\n        jobId = \"29fa9aa13bf1468788b7cc4a500a45b8\";\n        fee = 0.1 * 10 ** 18; // 0.1 LINK\n    }\n\n    function dummyFunction() pure public returns (int dummy){\n        dummy = 1;\n        return dummy;\n    }\n    \n    /**\n     * Create a Chainlink request to retrieve API response, find the target\n     * data, then multiply by 1000000000000000000 (to remove decimal places from data).\n     */\n    function requestVolumeData() public returns (bytes32 requestId) \n    {\n        Chainlink.Request memory request = buildChainlinkRequest(jobId, address(this), this.fulfill.selector);\n        \n        // Set the URL to perform the GET request on\n        request.add(\"get\", \"https://min-api.cryptocompare.com/data/pricemultifull?fsyms=ETH&tsyms=USD\");\n        \n        // Set the path to find the desired data in the API response, where the response format is:\n        // {\"RAW\":\n        //   {\"ETH\":\n        //    {\"USD\":\n        //     {\n        //      \"VOLUME24HOUR\": xxx.xxx,\n        //     }\n        //    }\n        //   }\n        //  }\n        request.add(\"path\", \"RAW.ETH.USD.VOLUME24HOUR\");\n        \n        // Multiply the result by 1000000000000000000 to remove decimals\n        int timesAmount = 10**18;\n        request.addInt(\"times\", timesAmount);\n        \n        // Sends the request\n        return sendChainlinkRequestTo(oracle, request, fee);\n    }\n    \n    /**\n     * Receive the response in the form of uint256\n     */ \n    function fulfill(bytes32 _requestId, uint256 _volume) public recordChainlinkFulfillment(_requestId)\n    {\n        volume = _volume;\n    }\n}",
  "sourcePath": "/home/arvinth/projects/blockchain/spectrum/ethereum/contracts/ChainlinkDemo.sol",
  "compiler": {
    "name": "solc",
    "version": "0.6.0+commit.26b70077.Emscripten.clang"
  },
  "schemaVersion": "3.3.4",
  "updatedAt": "2021-03-06T17:05:48.921Z",
  "devdoc": {
    "methods": {}
  },
  "userdoc": {
    "methods": {
      "constructor": "Network: Kovan Oracle: 0x2f90A6D021db21e1B2A077c5a37B3C7E75D15b7e Job ID: 29fa9aa13bf1468788b7cc4a500a45b8 Fee: 0.1 LINK",
      "fulfill(bytes32,uint256)": {
        "notice": "Receive the response in the form of uint256"
      },
      "requestVolumeData()": {
        "notice": "Create a Chainlink request to retrieve API response, find the target data, then multiply by 1000000000000000000 (to remove decimal places from data)."
      }
    }
  }
}