{
  "contractName": "APIConsumer",
  "abi": [
    {
      "inputs": [],
      "stateMutability": "nonpayable",
      "type": "constructor"
    },
    {
      "anonymous": false,
      "inputs": [
        {
          "indexed": true,
          "internalType": "bytes32",
          "name": "id",
          "type": "bytes32"
        }
      ],
      "name": "ChainlinkCancelled",
      "type": "event"
    },
    {
      "anonymous": false,
      "inputs": [
        {
          "indexed": true,
          "internalType": "bytes32",
          "name": "id",
          "type": "bytes32"
        }
      ],
      "name": "ChainlinkFulfilled",
      "type": "event"
    },
    {
      "anonymous": false,
      "inputs": [
        {
          "indexed": true,
          "internalType": "bytes32",
          "name": "id",
          "type": "bytes32"
        }
      ],
      "name": "ChainlinkRequested",
      "type": "event"
    },
    {
      "inputs": [
        {
          "internalType": "string",
          "name": "url",
          "type": "string"
        }
      ],
      "name": "requestVolumeData",
      "outputs": [
        {
          "internalType": "bytes32",
          "name": "",
          "type": "bytes32"
        }
      ],
      "stateMutability": "nonpayable",
      "type": "function"
    },
    {
      "inputs": [
        {
          "internalType": "bytes32",
          "name": "_requestId",
          "type": "bytes32"
        },
        {
          "internalType": "bytes32",
          "name": "_volume",
          "type": "bytes32"
        }
      ],
      "name": "fulfill",
      "outputs": [],
      "stateMutability": "nonpayable",
      "type": "function"
    }
  ],
  "bytecode": "0x608060405260016004553480156200001657600080fd5b5062000027620000de60201b60201c565b73c2d39d70fb75fb3d2a0e3a67b914bfd8a7e2964a600760006101000a81548173ffffffffffffffffffffffffffffffffffffffff021916908373ffffffffffffffffffffffffffffffffffffffff1602179055506040518060400160405280602081526020017f663835386539613037363730346330366137336135623536343737326465366681525060089080519060200190620000c9929190620001cc565b5066b1a2bc2ec500006009819055506200027b565b6200018673c89bd4e1632d3a43cb03aaad5262cbe4038bc57173ffffffffffffffffffffffffffffffffffffffff166338cc48316040518163ffffffff1660e01b815260040160206040518083038186803b1580156200013d57600080fd5b505afa15801562000152573d6000803e3d6000fd5b505050506040513d60208110156200016957600080fd5b81019080805190602001909291905050506200018860201b60201c565b565b80600260006101000a81548173ffffffffffffffffffffffffffffffffffffffff021916908373ffffffffffffffffffffffffffffffffffffffff16021790555050565b828054600181600116156101000203166002900490600052602060002090601f016020900481019282601f106200020f57805160ff191683800117855562000240565b8280016001018555821562000240579182015b828111156200023f57825182559160200191906001019062000222565b5b5090506200024f919062000253565b5090565b6200027891905b80821115620002745760008160009055506001016200025a565b5090565b90565b611114806200028b6000396000f3fe608060405234801561001057600080fd5b50600436106100365760003560e01c8063042f2b651461003b5780635f956d1a14610073575b600080fd5b6100716004803603604081101561005157600080fd5b810190808035906020019092919080359060200190929190505050610142565b005b61012c6004803603602081101561008957600080fd5b81019080803590602001906401000000008111156100a657600080fd5b8201836020820111156100b857600080fd5b803590602001918460018302840111640100000000831117156100da57600080fd5b91908080601f016020809104026020016040519081016040528093929190818152602001838380828437600081840152601f19601f820116905080830192505050505050509192919290505050610269565b6040518082815260200191505060405180910390f35b816005600082815260200190815260200160002060009054906101000a900473ffffffffffffffffffffffffffffffffffffffff1673ffffffffffffffffffffffffffffffffffffffff163373ffffffffffffffffffffffffffffffffffffffff16146101fa576040517f08c379a00000000000000000000000000000000000000000000000000000000081526004018080602001828103825260288152602001806110b76028913960400191505060405180910390fd5b6005600082815260200190815260200160002060006101000a81549073ffffffffffffffffffffffffffffffffffffffff0219169055807f7cc135e0cebb02c3480ae5d74d377283180a2601f8f644edf7987b009316c63a60405160405180910390a281600681905550505050565b6000610273610ff2565b61032761031960088054600181600116156101000203166002900480601f01602080910402602001604051908101604052809291908181526020018280546001816001161561010002031660029004801561030f5780601f106102e45761010080835404028352916020019161030f565b820191906000526020600020905b8154815290600101906020018083116102f257829003601f168201915b5050505050610474565b3063042f2b6560e01b61049f565b90506103736040518060400160405280600381526020017f676574000000000000000000000000000000000000000000000000000000000081525084836104d09092919063ffffffff16565b6103f26040518060400160405280600481526020017f70617468000000000000000000000000000000000000000000000000000000008152506040518060400160405280600381526020017f5553440000000000000000000000000000000000000000000000000000000000815250836104d09092919063ffffffff16565b61043d6040518060400160405280600581526020017f74696d65730000000000000000000000000000000000000000000000000000008152506064836105039092919063ffffffff16565b61046c600760009054906101000a900473ffffffffffffffffffffffffffffffffffffffff1682600954610536565b915050919050565b60006060829050600081511415610491576000801b91505061049a565b60208301519150505b919050565b6104a7610ff2565b6104af610ff2565b6104c6858585846107ee909392919063ffffffff16565b9150509392505050565b6104e782846080015161089e90919063ffffffff16565b6104fe81846080015161089e90919063ffffffff16565b505050565b61051a82846080015161089e90919063ffffffff16565b6105318184608001516108c390919063ffffffff16565b505050565b600030600454604051602001808373ffffffffffffffffffffffffffffffffffffffff1673ffffffffffffffffffffffffffffffffffffffff1660601b815260140182815260200192505050604051602081830303815290604052805190602001209050600454836060018181525050836005600083815260200190815260200160002060006101000a81548173ffffffffffffffffffffffffffffffffffffffff021916908373ffffffffffffffffffffffffffffffffffffffff160217905550807fb5e6e01e79f91267dc17b4e6314d5d4d03593d2ceee0fbb452b750bd70ea5af960405160405180910390a2600260009054906101000a900473ffffffffffffffffffffffffffffffffffffffff1673ffffffffffffffffffffffffffffffffffffffff16634000aea0858461066e87610967565b6040518463ffffffff1660e01b8152600401808473ffffffffffffffffffffffffffffffffffffffff1673ffffffffffffffffffffffffffffffffffffffff16815260200183815260200180602001828103825283818151815260200191508051906020019080838360005b838110156106f55780820151818401526020810190506106da565b50505050905090810190601f1680156107225780820380516001836020036101000a031916815260200191505b50945050505050602060405180830381600087803b15801561074357600080fd5b505af1158015610757573d6000803e3d6000fd5b505050506040513d602081101561076d57600080fd5b81019080805190602001909291905050506107d3576040517f08c379a00000000000000000000000000000000000000000000000000000000081526004018080602001828103825260238152602001806110946023913960400191505060405180910390fd5b60016004600082825401925050819055508090509392505050565b6107f6610ff2565b6108068560800151610100610b6e565b508385600001818152505082856020019073ffffffffffffffffffffffffffffffffffffffff16908173ffffffffffffffffffffffffffffffffffffffff16815250508185604001907bffffffffffffffffffffffffffffffffffffffffffffffffffffffff191690817bffffffffffffffffffffffffffffffffffffffffffffffffffffffff191681525050849050949350505050565b6108ab8260038351610bc2565b6108be8183610d0790919063ffffffff16565b505050565b7fffffffffffffffffffffffffffffffffffffffffffffffff00000000000000008112156108fa576108f58282610d29565b610963565b67ffffffffffffffff811315610919576109148282610d97565b610962565b600081126109325761092d82600083610bc2565b610961565b610960826001837fffffffffffffffffffffffffffffffffffffffffffffffffffffffffffffffff03610bc2565b5b5b5b5050565b6060600360009054906101000a900473ffffffffffffffffffffffffffffffffffffffff1673ffffffffffffffffffffffffffffffffffffffff166340429946905060e01b60008084600001518560200151866040015187606001516001896080015160000151604051602401808973ffffffffffffffffffffffffffffffffffffffff1673ffffffffffffffffffffffffffffffffffffffff1681526020018881526020018781526020018673ffffffffffffffffffffffffffffffffffffffff1673ffffffffffffffffffffffffffffffffffffffff168152602001857bffffffffffffffffffffffffffffffffffffffffffffffffffffffff19167bffffffffffffffffffffffffffffffffffffffffffffffffffffffff1916815260200184815260200183815260200180602001828103825283818151815260200191508051906020019080838360005b83811015610ad1578082015181840152602081019050610ab6565b50505050905090810190601f168015610afe5780820380516001836020036101000a031916815260200191505b509950505050505050505050604051602081830303815290604052907bffffffffffffffffffffffffffffffffffffffffffffffffffffffff19166020820180517bffffffffffffffffffffffffffffffffffffffffffffffffffffffff83818316178352505050509050919050565b610b7661105f565b600060208381610b8257fe5b0614610b9b5760208281610b9257fe5b06602003820191505b81836020018181525050604051808452600081528281016020016040525082905092915050565b60178111610bef57610be98160058460ff16901b60ff161784610de390919063ffffffff16565b50610d02565b60ff8111610c3157610c14601860058460ff16901b1784610de390919063ffffffff16565b50610c2b81600185610e039092919063ffffffff16565b50610d01565b61ffff8111610c7457610c57601960058460ff16901b1784610de390919063ffffffff16565b50610c6e81600285610e039092919063ffffffff16565b50610d00565b63ffffffff8111610cb957610c9c601a60058460ff16901b1784610de390919063ffffffff16565b50610cb381600485610e039092919063ffffffff16565b50610cff565b67ffffffffffffffff8111610cfe57610ce5601b60058460ff16901b1784610de390919063ffffffff16565b50610cfc81600885610e039092919063ffffffff16565b505b5b5b5b5b505050565b610d0f61105f565b610d2183846000015151848551610e25565b905092915050565b610d4760036005600660ff16901b1783610de390919063ffffffff16565b50610d9382827fffffffffffffffffffffffffffffffffffffffffffffffffffffffffffffffff0360405160200180828152602001915050604051602081830303815290604052610ede565b5050565b610db560026005600660ff16901b1783610de390919063ffffffff16565b50610ddf828260405160200180828152602001915050604051602081830303815290604052610ede565b5050565b610deb61105f565b610dfb8384600001515184610f03565b905092915050565b610e0b61105f565b610e1c848560000151518585610f51565b90509392505050565b610e2d61105f565b8251821115610e3b57600080fd5b84602001518285011115610e6657610e65856002610e5f8860200151888701610fb2565b02610fce565b5b600080865180518760208301019350808887011115610e855787860182525b60208701925050505b60208410610eb15780518252602082019150602081019050602084039350610e8e565b60006001856020036101000a03905080198251168184511681811785525050879350505050949350505050565b610eeb8260028351610bc2565b610efe8183610d0790919063ffffffff16565b505050565b610f0b61105f565b83602001518310610f2857610f27846002866020015102610fce565b5b8351805160208583010184815381861415610f44576001820183525b5050508390509392505050565b610f5961105f565b84602001518483011115610f7757610f7685600286850102610fce565b5b60006001836101000a0390508551838682010185831982511617815281518588011115610fa45784870182525b505085915050949350505050565b600081831115610fc457829050610fc8565b8190505b92915050565b606082600001519050610fe18383610b6e565b50610fec8382610d07565b50505050565b6040518060a0016040528060008019168152602001600073ffffffffffffffffffffffffffffffffffffffff16815260200160007bffffffffffffffffffffffffffffffffffffffffffffffffffffffff1916815260200160008152602001611059611079565b81525090565b604051806040016040528060608152602001600081525090565b60405180604001604052806060815260200160008152509056fe756e61626c6520746f207472616e73666572416e6443616c6c20746f206f7261636c65536f75726365206d75737420626520746865206f7261636c65206f66207468652072657175657374a264697066735822122094492ade30d1426937fc4d9126047d82851c621ea0bda30e28bbf9fb2e2ed40f64736f6c63430006000033",
  "source": "//OM NAMO NARAYANA\r\n\r\npragma solidity ^0.6.0;\r\n\r\nimport \"@chainlink/contracts/src/v0.6/ChainlinkClient.sol\";\r\n\r\n\r\ncontract APIConsumer is ChainlinkClient {\r\n  \r\n    bytes32 volume;\r\n    address private oracle;\r\n    string private jobId;\r\n    uint256 private fee;\r\n\r\n\r\n    constructor() public {\r\n\r\n        setPublicChainlinkToken();\r\n        oracle = 0xC2d39d70fB75Fb3d2a0e3a67B914Bfd8A7e2964a;\r\n        jobId = \"f858e9a076704c06a73a5b564772de6f\";\r\n        fee = 0.05 * 10 ** 18; \r\n    }\r\n\r\n\r\n    function requestVolumeData(string memory url) public returns(bytes32)\r\n    {\r\n        Chainlink.Request memory request = buildChainlinkRequest(stringToBytes32(jobId), address(this), this.fulfill.selector);\r\n        request.add(\"get\", url);\r\n        request.add(\"path\", \"USD\");\r\n        request.addInt(\"times\", 100);\r\n        return sendChainlinkRequestTo(oracle, request, fee);\r\n    }\r\n\r\n    function fulfill(bytes32 _requestId, bytes32 _volume) public recordChainlinkFulfillment(_requestId)\r\n    {\r\n        volume = _volume;\r\n    }\r\n    \r\n    function stringToBytes32(string memory source) private pure returns (bytes32 result) {\r\n    bytes memory tempEmptyStringTest = bytes(source);\r\n    if (tempEmptyStringTest.length == 0) {\r\n      return 0x0;\r\n    }\r\n    assembly { // solhint-disable-line no-inline-assembly\r\n      result := mload(add(source, 32))\r\n    }\r\n  }\r\n}\r\n\r\ncontract SpecChain is APIConsumer{\r\n  bytes32 public data;\r\n  function getData(string memory url) public returns (bytes32) {\r\n    data = requestVolumeData(url);\r\n    return data;\r\n  }\r\n}\r\n",
  "sourcePath": "D:\\projects\\spectrum\\ethereum\\contracts\\SpecChain.sol",
  "compiler": {
    "name": "solc",
    "version": "0.6.0+commit.26b70077.Emscripten.clang"
  },
  "schemaVersion": "3.3.4",
  "updatedAt": "2021-03-08T05:52:50.584Z",
  "devdoc": {
    "methods": {}
  },
  "userdoc": {
    "methods": {}
  }
}