{
  "contractName": "Post",
  "abi": [
    {
      "inputs": [
        {
          "internalType": "address",
          "name": "manager_init",
          "type": "address"
        },
        {
          "internalType": "string",
          "name": "content_init",
          "type": "string"
        },
        {
          "internalType": "string",
          "name": "name_init",
          "type": "string"
        }
      ],
      "stateMutability": "nonpayable",
      "type": "constructor"
    },
    {
      "inputs": [],
      "name": "balanceRef",
      "outputs": [
        {
          "internalType": "uint256",
          "name": "",
          "type": "uint256"
        }
      ],
      "stateMutability": "view",
      "type": "function",
      "constant": true
    },
    {
      "inputs": [],
      "name": "completed",
      "outputs": [
        {
          "internalType": "bool",
          "name": "",
          "type": "bool"
        }
      ],
      "stateMutability": "view",
      "type": "function",
      "constant": true
    },
    {
      "inputs": [],
      "name": "content",
      "outputs": [
        {
          "internalType": "string",
          "name": "",
          "type": "string"
        }
      ],
      "stateMutability": "view",
      "type": "function",
      "constant": true
    },
    {
      "inputs": [],
      "name": "manager",
      "outputs": [
        {
          "internalType": "address",
          "name": "",
          "type": "address"
        }
      ],
      "stateMutability": "view",
      "type": "function",
      "constant": true
    },
    {
      "inputs": [],
      "name": "name",
      "outputs": [
        {
          "internalType": "string",
          "name": "",
          "type": "string"
        }
      ],
      "stateMutability": "view",
      "type": "function",
      "constant": true
    },
    {
      "inputs": [],
      "name": "naycount",
      "outputs": [
        {
          "internalType": "uint256",
          "name": "",
          "type": "uint256"
        }
      ],
      "stateMutability": "view",
      "type": "function",
      "constant": true
    },
    {
      "inputs": [],
      "name": "nayprice",
      "outputs": [
        {
          "internalType": "uint256",
          "name": "",
          "type": "uint256"
        }
      ],
      "stateMutability": "view",
      "type": "function",
      "constant": true
    },
    {
      "inputs": [
        {
          "internalType": "address",
          "name": "",
          "type": "address"
        }
      ],
      "name": "nays",
      "outputs": [
        {
          "internalType": "uint256",
          "name": "",
          "type": "uint256"
        }
      ],
      "stateMutability": "view",
      "type": "function",
      "constant": true
    },
    {
      "inputs": [],
      "name": "timeStamp",
      "outputs": [
        {
          "internalType": "uint256",
          "name": "",
          "type": "uint256"
        }
      ],
      "stateMutability": "view",
      "type": "function",
      "constant": true
    },
    {
      "inputs": [],
      "name": "total",
      "outputs": [
        {
          "internalType": "uint256",
          "name": "",
          "type": "uint256"
        }
      ],
      "stateMutability": "view",
      "type": "function",
      "constant": true
    },
    {
      "inputs": [],
      "name": "verdict",
      "outputs": [
        {
          "internalType": "bool",
          "name": "",
          "type": "bool"
        }
      ],
      "stateMutability": "view",
      "type": "function",
      "constant": true
    },
    {
      "inputs": [
        {
          "internalType": "uint256",
          "name": "",
          "type": "uint256"
        }
      ],
      "name": "voted",
      "outputs": [
        {
          "internalType": "address payable",
          "name": "",
          "type": "address"
        }
      ],
      "stateMutability": "view",
      "type": "function",
      "constant": true
    },
    {
      "inputs": [],
      "name": "yaycount",
      "outputs": [
        {
          "internalType": "uint256",
          "name": "",
          "type": "uint256"
        }
      ],
      "stateMutability": "view",
      "type": "function",
      "constant": true
    },
    {
      "inputs": [],
      "name": "yayprice",
      "outputs": [
        {
          "internalType": "uint256",
          "name": "",
          "type": "uint256"
        }
      ],
      "stateMutability": "view",
      "type": "function",
      "constant": true
    },
    {
      "inputs": [
        {
          "internalType": "address",
          "name": "",
          "type": "address"
        }
      ],
      "name": "yays",
      "outputs": [
        {
          "internalType": "uint256",
          "name": "",
          "type": "uint256"
        }
      ],
      "stateMutability": "view",
      "type": "function",
      "constant": true
    },
    {
      "inputs": [],
      "name": "complete",
      "outputs": [],
      "stateMutability": "payable",
      "type": "function",
      "payable": true
    },
    {
      "inputs": [],
      "name": "updateCost",
      "outputs": [],
      "stateMutability": "nonpayable",
      "type": "function"
    },
    {
      "inputs": [],
      "name": "voteYay",
      "outputs": [],
      "stateMutability": "payable",
      "type": "function",
      "payable": true
    },
    {
      "inputs": [],
      "name": "voteNay",
      "outputs": [],
      "stateMutability": "payable",
      "type": "function",
      "payable": true
    },
    {
      "inputs": [],
      "name": "getSummary",
      "outputs": [
        {
          "internalType": "address",
          "name": "",
          "type": "address"
        },
        {
          "internalType": "string",
          "name": "",
          "type": "string"
        },
        {
          "internalType": "string",
          "name": "",
          "type": "string"
        },
        {
          "internalType": "uint256",
          "name": "",
          "type": "uint256"
        },
        {
          "internalType": "uint256",
          "name": "",
          "type": "uint256"
        },
        {
          "internalType": "uint256",
          "name": "",
          "type": "uint256"
        },
        {
          "internalType": "uint256",
          "name": "",
          "type": "uint256"
        },
        {
          "internalType": "bool",
          "name": "",
          "type": "bool"
        },
        {
          "internalType": "bool",
          "name": "",
          "type": "bool"
        },
        {
          "internalType": "uint256",
          "name": "",
          "type": "uint256"
        }
      ],
      "stateMutability": "view",
      "type": "function",
      "constant": true
    }
  ],
  "bytecode": "0x608060405266470de4df820000600455600060075560006008556000600c60006101000a81548160ff0219169083151502179055506000600d553480156200004657600080fd5b506040516200179a3803806200179a833981810160405260608110156200006c57600080fd5b8101908080519060200190929190805160405193929190846401000000008211156200009757600080fd5b83820191506020820185811115620000ae57600080fd5b8251866001820283011164010000000082111715620000cc57600080fd5b8083526020830192505050908051906020019080838360005b8381101562000102578082015181840152602081019050620000e5565b50505050905090810190601f168015620001305780820380516001836020036101000a031916815260200191505b50604052602001805160405193929190846401000000008211156200015457600080fd5b838201915060208201858111156200016b57600080fd5b82518660018202830111640100000000821117156200018957600080fd5b8083526020830192505050908051906020019080838360005b83811015620001bf578082015181840152602081019050620001a2565b50505050905090810190601f168015620001ed5780820380516001836020036101000a031916815260200191505b5060405250505080600290805190602001906200020c9291906200031b565b5082600160006101000a81548173ffffffffffffffffffffffffffffffffffffffff021916908373ffffffffffffffffffffffffffffffffffffffff160217905550600160009054906101000a900473ffffffffffffffffffffffffffffffffffffffff166000806101000a81548173ffffffffffffffffffffffffffffffffffffffff021916908373ffffffffffffffffffffffffffffffffffffffff1602179055508160039080519060200190620002c89291906200031b565b50620002d9620002e260201b60201c565b505050620003ca565b60146008546007540101600a600754016004540281620002fe57fe5b046005819055506005546004540360068190555047600d81905550565b828054600181600116156101000203166002900490600052602060002090601f016020900481019282601f106200035e57805160ff19168380011785556200038f565b828001600101855582156200038f579182015b828111156200038e57825182559160200191906001019062000371565b5b5090506200039e9190620003a2565b5090565b620003c791905b80821115620003c3576000816000905550600101620003a9565b5090565b90565b6113c080620003da6000396000f3fe60806040526004361061011f5760003560e01c80638b563f62116100a0578063b0acb3c911610064578063b0acb3c91461060b578063befa4bfb14610636578063c7af3dd114610661578063d6dd6c2614610678578063d716dd1a146106a35761011f565b80638b563f62146104c75780638fbb38ff146104f25780639566eb691461056d57806395d765e9146105775780639d9a7fe9146105dc5761011f565b8063481c6a75116100e7578063481c6a751461037c578063522e1177146103d35780636aba253c146103dd5780637eb84be31461040c5780638a4d5a67146104375761011f565b806306fdde03146101245780630ab0df87146101b45780632ddbd13a146101df5780634051ddac1461020a57806340b7cba614610372575b600080fd5b34801561013057600080fd5b50610139610708565b6040518080602001828103825283818151815260200191508051906020019080838360005b8381101561017957808201518184015260208101905061015e565b50505050905090810190601f1680156101a65780820380516001836020036101000a031916815260200191505b509250505060405180910390f35b3480156101c057600080fd5b506101c96107a6565b6040518082815260200191505060405180910390f35b3480156101eb57600080fd5b506101f46107ac565b6040518082815260200191505060405180910390f35b34801561021657600080fd5b5061021f6107b2565b604051808b73ffffffffffffffffffffffffffffffffffffffff1673ffffffffffffffffffffffffffffffffffffffff16815260200180602001806020018a8152602001898152602001888152602001878152602001861515151581526020018515151515815260200184815260200183810383528c818151815260200191508051906020019080838360005b838110156102c75780820151818401526020810190506102ac565b50505050905090810190601f1680156102f45780820380516001836020036101000a031916815260200191505b5083810382528b818151815260200191508051906020019080838360005b8381101561032d578082015181840152602081019050610312565b50505050905090810190601f16801561035a5780820380516001836020036101000a031916815260200191505b509c5050505050505050505050505060405180910390f35b61037a61094e565b005b34801561038857600080fd5b50610391610b8a565b604051808273ffffffffffffffffffffffffffffffffffffffff1673ffffffffffffffffffffffffffffffffffffffff16815260200191505060405180910390f35b6103db610bb0565b005b3480156103e957600080fd5b506103f2610fae565b604051808215151515815260200191505060405180910390f35b34801561041857600080fd5b50610421610fc1565b6040518082815260200191505060405180910390f35b34801561044357600080fd5b5061044c610fc7565b6040518080602001828103825283818151815260200191508051906020019080838360005b8381101561048c578082015181840152602081019050610471565b50505050905090810190601f1680156104b95780820380516001836020036101000a031916815260200191505b509250505060405180910390f35b3480156104d357600080fd5b506104dc611065565b6040518082815260200191505060405180910390f35b3480156104fe57600080fd5b5061052b6004803603602081101561051557600080fd5b810190808035906020019092919050505061106b565b604051808273ffffffffffffffffffffffffffffffffffffffff1673ffffffffffffffffffffffffffffffffffffffff16815260200191505060405180910390f35b6105756110a7565b005b34801561058357600080fd5b506105c66004803603602081101561059a57600080fd5b81019080803573ffffffffffffffffffffffffffffffffffffffff1690602001909291905050506112fd565b6040518082815260200191505060405180910390f35b3480156105e857600080fd5b506105f1611315565b604051808215151515815260200191505060405180910390f35b34801561061757600080fd5b50610620611328565b6040518082815260200191505060405180910390f35b34801561064257600080fd5b5061064b61132e565b6040518082815260200191505060405180910390f35b34801561066d57600080fd5b50610676611334565b005b34801561068457600080fd5b5061068d61136c565b6040518082815260200191505060405180910390f35b3480156106af57600080fd5b506106f2600480360360208110156106c657600080fd5b81019080803573ffffffffffffffffffffffffffffffffffffffff169060200190929190505050611372565b6040518082815260200191505060405180910390f35b60028054600181600116156101000203166002900480601f01602080910402602001604051908101604052809291908181526020018280546001816001161561010002031660029004801561079e5780601f106107735761010080835404028352916020019161079e565b820191906000526020600020905b81548152906001019060200180831161078157829003601f168201915b505050505081565b600e5481565b60045481565b600060608060008060008060008060003060026003600554600654600754600854600c60009054906101000a900460ff16600c60019054906101000a900460ff16600d54888054600181600116156101000203166002900480601f01602080910402602001604051908101604052809291908181526020018280546001816001161561010002031660029004801561088b5780601f106108605761010080835404028352916020019161088b565b820191906000526020600020905b81548152906001019060200180831161086e57829003601f168201915b50505050509850878054600181600116156101000203166002900480601f0160208091040260200160405190810160405280929190818152602001828054600181600116156101000203166002900480156109275780601f106108fc57610100808354040283529160200191610927565b820191906000526020600020905b81548152906001019060200180831161090a57829003601f168201915b50505050509750995099509950995099509950995099509950995090919293949596979899565b6000809054906101000a900473ffffffffffffffffffffffffffffffffffffffff1673ffffffffffffffffffffffffffffffffffffffff163373ffffffffffffffffffffffffffffffffffffffff1614156109cb576000600c60016101000a81548160ff0219169083151502179055506109c6610bb0565b610b88565b6000600960003373ffffffffffffffffffffffffffffffffffffffff1673ffffffffffffffffffffffffffffffffffffffff16815260200190815260200160002054148015610a5957506000600a60003373ffffffffffffffffffffffffffffffffffffffff1673ffffffffffffffffffffffffffffffffffffffff16815260200190815260200160002054145b15610ac257600b339080600181540180825580915050600190039060005260206000200160009091909190916101000a81548173ffffffffffffffffffffffffffffffffffffffff021916908373ffffffffffffffffffffffffffffffffffffffff1602179055505b600654341015610ad157600080fd5b6003600a60003373ffffffffffffffffffffffffffffffffffffffff1673ffffffffffffffffffffffffffffffffffffffff168152602001908152602001600020541115610b1e57600080fd5b600a60003373ffffffffffffffffffffffffffffffffffffffff1673ffffffffffffffffffffffffffffffffffffffff16815260200190815260200160002060008154809291906001019190505550600860008154809291906001019190505550610b87611334565b5b565b600160009054906101000a900473ffffffffffffffffffffffffffffffffffffffff1681565b6000809054906101000a900473ffffffffffffffffffffffffffffffffffffffff1673ffffffffffffffffffffffffffffffffffffffff163373ffffffffffffffffffffffffffffffffffffffff161415610fac576001600c60006101000a81548160ff02191690831515021790555047600d8190555060011515600c60019054906101000a900460ff1615151415610df95760008090505b600b80549050811015610df357600060096000600b8481548110610c6957fe5b9060005260206000200160009054906101000a900473ffffffffffffffffffffffffffffffffffffffff1673ffffffffffffffffffffffffffffffffffffffff1673ffffffffffffffffffffffffffffffffffffffff168152602001908152602001600020541115610de657600b8181548110610ce257fe5b9060005260206000200160009054906101000a900473ffffffffffffffffffffffffffffffffffffffff1673ffffffffffffffffffffffffffffffffffffffff166108fc6064605f600754600d5460096000600b8981548110610d4157fe5b9060005260206000200160009054906101000a900473ffffffffffffffffffffffffffffffffffffffff1673ffffffffffffffffffffffffffffffffffffffff1673ffffffffffffffffffffffffffffffffffffffff168152602001908152602001600020540281610daf57fe5b040281610db857fe5b049081150290604051600060405180830381858888f19350505050158015610de4573d6000803e3d6000fd5b505b8080600101915050610c49565b50610fab565b60008090505b600b80549050811015610fa9576000600a6000600b8481548110610e1f57fe5b9060005260206000200160009054906101000a900473ffffffffffffffffffffffffffffffffffffffff1673ffffffffffffffffffffffffffffffffffffffff1673ffffffffffffffffffffffffffffffffffffffff168152602001908152602001600020541115610f9c57600b8181548110610e9857fe5b9060005260206000200160009054906101000a900473ffffffffffffffffffffffffffffffffffffffff1673ffffffffffffffffffffffffffffffffffffffff166108fc6064605f600854600d54600a6000600b8981548110610ef757fe5b9060005260206000200160009054906101000a900473ffffffffffffffffffffffffffffffffffffffff1673ffffffffffffffffffffffffffffffffffffffff1673ffffffffffffffffffffffffffffffffffffffff168152602001908152602001600020540281610f6557fe5b040281610f6e57fe5b049081150290604051600060405180830381858888f19350505050158015610f9a573d6000803e3d6000fd5b505b8080600101915050610dff565b505b5b565b600c60019054906101000a900460ff1681565b60085481565b60038054600181600116156101000203166002900480601f01602080910402602001604051908101604052809291908181526020018280546001816001161561010002031660029004801561105d5780601f106110325761010080835404028352916020019161105d565b820191906000526020600020905b81548152906001019060200180831161104057829003601f168201915b505050505081565b60065481565b600b818154811061107857fe5b906000526020600020016000915054906101000a900473ffffffffffffffffffffffffffffffffffffffff1681565b600c60009054906101000a900460ff16156110c157600080fd5b6000809054906101000a900473ffffffffffffffffffffffffffffffffffffffff1673ffffffffffffffffffffffffffffffffffffffff163373ffffffffffffffffffffffffffffffffffffffff16141561113e576001600c60016101000a81548160ff021916908315150217905550611139610bb0565b6112fb565b6000600960003373ffffffffffffffffffffffffffffffffffffffff1673ffffffffffffffffffffffffffffffffffffffff168152602001908152602001600020541480156111cc57506000600a60003373ffffffffffffffffffffffffffffffffffffffff1673ffffffffffffffffffffffffffffffffffffffff16815260200190815260200160002054145b1561123557600b339080600181540180825580915050600190039060005260206000200160009091909190916101000a81548173ffffffffffffffffffffffffffffffffffffffff021916908373ffffffffffffffffffffffffffffffffffffffff1602179055505b60055434101561124457600080fd5b6003600960003373ffffffffffffffffffffffffffffffffffffffff1673ffffffffffffffffffffffffffffffffffffffff16815260200190815260200160002054111561129157600080fd5b600960003373ffffffffffffffffffffffffffffffffffffffff1673ffffffffffffffffffffffffffffffffffffffff168152602001908152602001600020600081548092919060010191905055506007600081548092919060010191905055506112fa611334565b5b565b60096020528060005260406000206000915090505481565b600c60009054906101000a900460ff1681565b600d5481565b60055481565b60146008546007540101600a60075401600454028161134f57fe5b046005819055506005546004540360068190555047600d81905550565b60075481565b600a602052806000526040600020600091509050548156fea264697066735822122099219755d0771a7e8ff6fb6c51dfd18223dfc62ce1c9eadd18630f3f13c5f9c464736f6c63430006000033",
  "source": "pragma solidity ^0.6.0;\n\n\ncontract Spectrum{\n\n    address[] public deployedPosts;\n    \n    function createPost(string memory content, string memory name) public returns (address[] memory){\n        Post newPost = new Post(msg.sender, content, name);\n        deployedPosts.push(address(newPost));\n        return deployedPosts;\n    }\n\n    function getDeployedPosts() public view returns (address[] memory){\n        return deployedPosts;\n    }\n\n}\n\ncontract Post{\n\n    address tempAddress;\n    \n    address public manager;\n    string public name;\n    string public content;\n    \n    uint public total = 20000000000000000;\n    uint public yayprice;\n    uint public nayprice;\n    uint public yaycount = 0;\n    uint public naycount = 0;\n    mapping(address=>uint) public yays;\n    mapping(address=>uint) public nays;\n    address payable [] public voted;\n    bool public completed = false;\n    bool public verdict;\n    uint public balanceRef = 0;\n    uint public timeStamp;\n\n    \n    modifier active(){\n    \trequire(!completed);\n      _;\n    }\n\t\n  \tfunction complete() public payable{\n\n        if(msg.sender== tempAddress) {\n\t\t\tcompleted = true;\n            balanceRef = address(this).balance;\n            if(verdict==true){\n                for(uint i = 0; i < voted.length; i++){\n                    if(yays[voted[i]]>0){\n                        voted[i].transfer((yays[voted[i]]*balanceRef)/(yaycount)*95/100);\n                    }\n                }\n            }else{\n                for(uint i = 0; i < voted.length; i++){\n                    if(nays[voted[i]]>0){\n                        voted[i].transfer((nays[voted[i]]*balanceRef)/(naycount)*95/100);\n                    }\n                }\n            }\n        }\n    }\n \n    \n    function updateCost() public {\n        yayprice =  ((total *(yaycount+10))/(yaycount + naycount + 20));\n        nayprice = total - yayprice;\n        balanceRef = address(this).balance;\n    }\n    \n    function voteYay() public payable active{\n    \t\t\n        if(msg.sender == tempAddress){\n            verdict = true;\n            complete();\n        }else{\n        \tif(yays[msg.sender]==0 && nays[msg.sender]==0){\n          \t    voted.push(msg.sender);\n        \t}\n            require(msg.value>=yayprice);\n            require(yays[msg.sender]<=3);\n\n            yays[msg.sender]++;\n            yaycount++;\n            updateCost();\n        }       \n    }\n    \n    function voteNay() public payable {\n    \t\n      \t if(msg.sender==tempAddress){\n            verdict = false;\n            complete();\n        }else{\n        \tif(yays[msg.sender]==0 && nays[msg.sender]==0){\n          \t    voted.push(msg.sender);\n        \t}\n            require(msg.value>=nayprice);\n            require(nays[msg.sender]<=3);\n\n            nays[msg.sender]++;\n            naycount++;\n            updateCost();\n        }       \n    }\n\n    function getSummary() public view returns (address, string memory, string memory, uint, uint, uint, uint, bool, bool, uint){\n        return(address(this), name, content, yayprice, nayprice, yaycount, naycount, completed, verdict, balanceRef);\n    }\n    \n    \n    constructor(address manager_init, string memory content_init, string memory name_init) public {\n        name = name_init;\n        manager = manager_init;\n        tempAddress = manager;\n        content = content_init;\n    \tupdateCost();\n\t}\n    \n    \n}",
  "sourcePath": "/home/arvinth/projects/blockchain/spectrum/ethereum/contracts/Spectrum.sol",
  "compiler": {
    "name": "solc",
    "version": "0.6.0+commit.26b70077.Emscripten.clang"
  },
  "schemaVersion": "3.3.4",
  "updatedAt": "2021-03-07T05:05:15.760Z",
  "networkType": "ethereum",
  "devdoc": {
    "methods": {}
  },
  "userdoc": {
    "methods": {}
  }
}