{
  "contractName": "Post",
  "abi": [
    {
      "inputs": [
        {
          "internalType": "address",
          "name": "manager_init",
          "type": "address"
        },
        {
          "internalType": "string",
          "name": "content_init",
          "type": "string"
        },
        {
          "internalType": "string",
          "name": "name_init",
          "type": "string"
        }
      ],
      "stateMutability": "nonpayable",
      "type": "constructor"
    },
    {
      "inputs": [],
      "name": "content",
      "outputs": [
        {
          "internalType": "string",
          "name": "",
          "type": "string"
        }
      ],
      "stateMutability": "view",
      "type": "function",
      "constant": true
    },
    {
      "inputs": [],
      "name": "manager",
      "outputs": [
        {
          "internalType": "address",
          "name": "",
          "type": "address"
        }
      ],
      "stateMutability": "view",
      "type": "function",
      "constant": true
    },
    {
      "inputs": [],
      "name": "name",
      "outputs": [
        {
          "internalType": "string",
          "name": "",
          "type": "string"
        }
      ],
      "stateMutability": "view",
      "type": "function",
      "constant": true
    },
    {
      "inputs": [],
      "name": "naycount",
      "outputs": [
        {
          "internalType": "uint256",
          "name": "",
          "type": "uint256"
        }
      ],
      "stateMutability": "view",
      "type": "function",
      "constant": true
    },
    {
      "inputs": [],
      "name": "nayprice",
      "outputs": [
        {
          "internalType": "uint256",
          "name": "",
          "type": "uint256"
        }
      ],
      "stateMutability": "view",
      "type": "function",
      "constant": true
    },
    {
      "inputs": [
        {
          "internalType": "address",
          "name": "",
          "type": "address"
        }
      ],
      "name": "nays",
      "outputs": [
        {
          "internalType": "uint256",
          "name": "",
          "type": "uint256"
        }
      ],
      "stateMutability": "view",
      "type": "function",
      "constant": true
    },
    {
      "inputs": [],
      "name": "total",
      "outputs": [
        {
          "internalType": "uint256",
          "name": "",
          "type": "uint256"
        }
      ],
      "stateMutability": "view",
      "type": "function",
      "constant": true
    },
    {
      "inputs": [],
      "name": "yaycount",
      "outputs": [
        {
          "internalType": "uint256",
          "name": "",
          "type": "uint256"
        }
      ],
      "stateMutability": "view",
      "type": "function",
      "constant": true
    },
    {
      "inputs": [],
      "name": "yayprice",
      "outputs": [
        {
          "internalType": "uint256",
          "name": "",
          "type": "uint256"
        }
      ],
      "stateMutability": "view",
      "type": "function",
      "constant": true
    },
    {
      "inputs": [
        {
          "internalType": "address",
          "name": "",
          "type": "address"
        }
      ],
      "name": "yays",
      "outputs": [
        {
          "internalType": "uint256",
          "name": "",
          "type": "uint256"
        }
      ],
      "stateMutability": "view",
      "type": "function",
      "constant": true
    },
    {
      "inputs": [],
      "name": "complete",
      "outputs": [],
      "stateMutability": "payable",
      "type": "function",
      "payable": true
    },
    {
      "inputs": [],
      "name": "updateCost",
      "outputs": [],
      "stateMutability": "nonpayable",
      "type": "function"
    },
    {
      "inputs": [],
      "name": "voteYay",
      "outputs": [],
      "stateMutability": "payable",
      "type": "function",
      "payable": true
    },
    {
      "inputs": [],
      "name": "voteNay",
      "outputs": [],
      "stateMutability": "payable",
      "type": "function",
      "payable": true
    },
    {
      "inputs": [],
      "name": "getSummary",
      "outputs": [
        {
          "internalType": "address",
          "name": "",
          "type": "address"
        },
        {
          "internalType": "string",
          "name": "",
          "type": "string"
        },
        {
          "internalType": "string",
          "name": "",
          "type": "string"
        },
        {
          "internalType": "uint256",
          "name": "",
          "type": "uint256"
        },
        {
          "internalType": "uint256",
          "name": "",
          "type": "uint256"
        },
        {
          "internalType": "uint256",
          "name": "",
          "type": "uint256"
        },
        {
          "internalType": "uint256",
          "name": "",
          "type": "uint256"
        },
        {
          "internalType": "bool",
          "name": "",
          "type": "bool"
        },
        {
          "internalType": "bool",
          "name": "",
          "type": "bool"
        },
        {
          "internalType": "uint256",
          "name": "",
          "type": "uint256"
        }
      ],
      "stateMutability": "view",
      "type": "function",
      "constant": true
    }
  ],
  "bytecode": "0x60806040526107d0600455600060075560006008556000600c60006101000a81548160ff0219169083151502179055503480156200003c57600080fd5b50604051620015bc380380620015bc833981810160405260608110156200006257600080fd5b8101908080519060200190929190805160405193929190846401000000008211156200008d57600080fd5b83820191506020820185811115620000a457600080fd5b8251866001820283011164010000000082111715620000c257600080fd5b8083526020830192505050908051906020019080838360005b83811015620000f8578082015181840152602081019050620000db565b50505050905090810190601f168015620001265780820380516001836020036101000a031916815260200191505b50604052602001805160405193929190846401000000008211156200014a57600080fd5b838201915060208201858111156200016157600080fd5b82518660018202830111640100000000821117156200017f57600080fd5b8083526020830192505050908051906020019080838360005b83811015620001b557808201518184015260208101905062000198565b50505050905090810190601f168015620001e35780820380516001836020036101000a031916815260200191505b506040525050508060029080519060200190620002029291906200030a565b5082600160006101000a81548173ffffffffffffffffffffffffffffffffffffffff021916908373ffffffffffffffffffffffffffffffffffffffff160217905550600160009054906101000a900473ffffffffffffffffffffffffffffffffffffffff166000806101000a81548173ffffffffffffffffffffffffffffffffffffffff021916908373ffffffffffffffffffffffffffffffffffffffff1602179055508160039080519060200190620002be9291906200030a565b50620002cf620002d860201b60201c565b505050620003b9565b60146008546007540101600a600754016004540281620002f457fe5b0460058190555060055460045403600681905550565b828054600181600116156101000203166002900490600052602060002090601f016020900481019282601f106200034d57805160ff19168380011785556200037e565b828001600101855582156200037e579182015b828111156200037d57825182559160200191906001019062000360565b5b5090506200038d919062000391565b5090565b620003b691905b80821115620003b257600081600090555060010162000398565b5090565b90565b6111f380620003c96000396000f3fe6080604052600436106100e85760003560e01c80638a4d5a671161008a578063befa4bfb11610059578063befa4bfb146104d0578063c7af3dd1146104fb578063d6dd6c2614610512578063d716dd1a1461053d576100e8565b80638a4d5a67146103a65780638b563f62146104365780639566eb691461046157806395d765e91461046b576100e8565b806340b7cba6116100c657806340b7cba614610310578063481c6a751461031a578063522e1177146103715780637eb84be31461037b576100e8565b806306fdde03146100ed5780632ddbd13a1461017d5780634051ddac146101a8575b600080fd5b3480156100f957600080fd5b506101026105a2565b6040518080602001828103825283818151815260200191508051906020019080838360005b83811015610142578082015181840152602081019050610127565b50505050905090810190601f16801561016f5780820380516001836020036101000a031916815260200191505b509250505060405180910390f35b34801561018957600080fd5b50610192610640565b6040518082815260200191505060405180910390f35b3480156101b457600080fd5b506101bd610646565b604051808b73ffffffffffffffffffffffffffffffffffffffff1673ffffffffffffffffffffffffffffffffffffffff16815260200180602001806020018a8152602001898152602001888152602001878152602001861515151581526020018515151515815260200184815260200183810383528c818151815260200191508051906020019080838360005b8381101561026557808201518184015260208101905061024a565b50505050905090810190601f1680156102925780820380516001836020036101000a031916815260200191505b5083810382528b818151815260200191508051906020019080838360005b838110156102cb5780820151818401526020810190506102b0565b50505050905090810190601f1680156102f85780820380516001836020036101000a031916815260200191505b509c5050505050505050505050505060405180910390f35b6103186107e0565b005b34801561032657600080fd5b5061032f610a37565b604051808273ffffffffffffffffffffffffffffffffffffffff1673ffffffffffffffffffffffffffffffffffffffff16815260200191505060405180910390f35b610379610a5d565b005b34801561038757600080fd5b50610390610e50565b6040518082815260200191505060405180910390f35b3480156103b257600080fd5b506103bb610e56565b6040518080602001828103825283818151815260200191508051906020019080838360005b838110156103fb5780820151818401526020810190506103e0565b50505050905090810190601f1680156104285780820380516001836020036101000a031916815260200191505b509250505060405180910390f35b34801561044257600080fd5b5061044b610ef4565b6040518082815260200191505060405180910390f35b610469610efa565b005b34801561047757600080fd5b506104ba6004803603602081101561048e57600080fd5b81019080803573ffffffffffffffffffffffffffffffffffffffff169060200190929190505050611150565b6040518082815260200191505060405180910390f35b3480156104dc57600080fd5b506104e5611168565b6040518082815260200191505060405180910390f35b34801561050757600080fd5b5061051061116e565b005b34801561051e57600080fd5b5061052761119f565b6040518082815260200191505060405180910390f35b34801561054957600080fd5b5061058c6004803603602081101561056057600080fd5b81019080803573ffffffffffffffffffffffffffffffffffffffff1690602001909291905050506111a5565b6040518082815260200191505060405180910390f35b60028054600181600116156101000203166002900480601f0160208091040260200160405190810160405280929190818152602001828054600181600116156101000203166002900480156106385780601f1061060d57610100808354040283529160200191610638565b820191906000526020600020905b81548152906001019060200180831161061b57829003601f168201915b505050505081565b60045481565b600060608060008060008060008060003060026003600554600654600754600854600c60009054906101000a900460ff16600c60019054906101000a900460ff1647888054600181600116156101000203166002900480601f01602080910402602001604051908101604052809291908181526020018280546001816001161561010002031660029004801561071d5780601f106106f25761010080835404028352916020019161071d565b820191906000526020600020905b81548152906001019060200180831161070057829003601f168201915b50505050509850878054600181600116156101000203166002900480601f0160208091040260200160405190810160405280929190818152602001828054600181600116156101000203166002900480156107b95780601f1061078e576101008083540402835291602001916107b9565b820191906000526020600020905b81548152906001019060200180831161079c57829003601f168201915b50505050509750995099509950995099509950995099509950995090919293949596979899565b6000809054906101000a900473ffffffffffffffffffffffffffffffffffffffff1673ffffffffffffffffffffffffffffffffffffffff163373ffffffffffffffffffffffffffffffffffffffff161415610878576001600c60006101000a81548160ff0219169083151502179055506000600c60016101000a81548160ff021916908315150217905550610873610a5d565b610a35565b6000600960003373ffffffffffffffffffffffffffffffffffffffff1673ffffffffffffffffffffffffffffffffffffffff1681526020019081526020016000205414801561090657506000600a60003373ffffffffffffffffffffffffffffffffffffffff1673ffffffffffffffffffffffffffffffffffffffff16815260200190815260200160002054145b1561096f57600b339080600181540180825580915050600190039060005260206000200160009091909190916101000a81548173ffffffffffffffffffffffffffffffffffffffff021916908373ffffffffffffffffffffffffffffffffffffffff1602179055505b60065434101561097e57600080fd5b6003600a60003373ffffffffffffffffffffffffffffffffffffffff1673ffffffffffffffffffffffffffffffffffffffff1681526020019081526020016000205411156109cb57600080fd5b600a60003373ffffffffffffffffffffffffffffffffffffffff1673ffffffffffffffffffffffffffffffffffffffff16815260200190815260200160002060008154809291906001019190505550600860008154809291906001019190505550610a3461116e565b5b565b600160009054906101000a900473ffffffffffffffffffffffffffffffffffffffff1681565b6000809054906101000a900473ffffffffffffffffffffffffffffffffffffffff1673ffffffffffffffffffffffffffffffffffffffff163373ffffffffffffffffffffffffffffffffffffffff161415610c835760011515600c60019054906101000a900460ff1615151415610c7e5760008090505b600b80549050811015610c7c57600060096000600b8481548110610af457fe5b9060005260206000200160009054906101000a900473ffffffffffffffffffffffffffffffffffffffff1673ffffffffffffffffffffffffffffffffffffffff1673ffffffffffffffffffffffffffffffffffffffff168152602001908152602001600020541115610c6f57600b8181548110610b6d57fe5b9060005260206000200160009054906101000a900473ffffffffffffffffffffffffffffffffffffffff1673ffffffffffffffffffffffffffffffffffffffff166108fc6064605f6007544760096000600b8981548110610bca57fe5b9060005260206000200160009054906101000a900473ffffffffffffffffffffffffffffffffffffffff1673ffffffffffffffffffffffffffffffffffffffff1673ffffffffffffffffffffffffffffffffffffffff168152602001908152602001600020540281610c3857fe5b040281610c4157fe5b049081150290604051600060405180830381858888f19350505050158015610c6d573d6000803e3d6000fd5b505b8080600101915050610ad4565b505b610e33565b60008090505b600b80549050811015610e31576000600a6000600b8481548110610ca957fe5b9060005260206000200160009054906101000a900473ffffffffffffffffffffffffffffffffffffffff1673ffffffffffffffffffffffffffffffffffffffff1673ffffffffffffffffffffffffffffffffffffffff168152602001908152602001600020541115610e2457600b8181548110610d2257fe5b9060005260206000200160009054906101000a900473ffffffffffffffffffffffffffffffffffffffff1673ffffffffffffffffffffffffffffffffffffffff166108fc6064605f60085447600a6000600b8981548110610d7f57fe5b9060005260206000200160009054906101000a900473ffffffffffffffffffffffffffffffffffffffff1673ffffffffffffffffffffffffffffffffffffffff1673ffffffffffffffffffffffffffffffffffffffff168152602001908152602001600020540281610ded57fe5b040281610df657fe5b049081150290604051600060405180830381858888f19350505050158015610e22573d6000803e3d6000fd5b505b8080600101915050610c89565b505b6001600c60006101000a81548160ff021916908315150217905550565b60085481565b60038054600181600116156101000203166002900480601f016020809104026020016040519081016040528092919081815260200182805460018160011615610100020316600290048015610eec5780601f10610ec157610100808354040283529160200191610eec565b820191906000526020600020905b815481529060010190602001808311610ecf57829003601f168201915b505050505081565b60065481565b600c60009054906101000a900460ff1615610f1457600080fd5b6000809054906101000a900473ffffffffffffffffffffffffffffffffffffffff1673ffffffffffffffffffffffffffffffffffffffff163373ffffffffffffffffffffffffffffffffffffffff161415610f91576001600c60016101000a81548160ff021916908315150217905550610f8c610a5d565b61114e565b6000600960003373ffffffffffffffffffffffffffffffffffffffff1673ffffffffffffffffffffffffffffffffffffffff1681526020019081526020016000205414801561101f57506000600a60003373ffffffffffffffffffffffffffffffffffffffff1673ffffffffffffffffffffffffffffffffffffffff16815260200190815260200160002054145b1561108857600b339080600181540180825580915050600190039060005260206000200160009091909190916101000a81548173ffffffffffffffffffffffffffffffffffffffff021916908373ffffffffffffffffffffffffffffffffffffffff1602179055505b60055434101561109757600080fd5b6003600960003373ffffffffffffffffffffffffffffffffffffffff1673ffffffffffffffffffffffffffffffffffffffff1681526020019081526020016000205411156110e457600080fd5b600960003373ffffffffffffffffffffffffffffffffffffffff1673ffffffffffffffffffffffffffffffffffffffff1681526020019081526020016000206000815480929190600101919050555060076000815480929190600101919050555061114d61116e565b5b565b60096020528060005260406000206000915090505481565b60055481565b60146008546007540101600a60075401600454028161118957fe5b0460058190555060055460045403600681905550565b60075481565b600a602052806000526040600020600091509050548156fea2646970667358221220b0694e6f8befb1cb2a7c1f37476afac692850cb43e798746c249363d2020a26864736f6c63430006000033",
  "source": "pragma solidity ^0.6.0;\n\n\ncontract Spectrum{\n\n    address[] public deployedPosts;\n    \n    //Pass post content and alias name as string. How??\n    \n    function createPost(string memory content, string memory name) public returns (address[] memory){\n        Post newPost = new Post(msg.sender, content, name);\n        deployedPosts.push(address(newPost));\n        return deployedPosts;\n    }\n\n    function getDeployedPosts() public view returns (address[] memory){\n        return deployedPosts;\n    }\n\n    // function returnName() public view returns(string memory){\n    //     return name;\n    // }\n\n    // constructor(string memory content_init, string memory name_init)public{\n    //     content = content_init;\n    //     name = name_init;\n    // }\n}\n\ncontract Post{\n\n    // address tempAddress = address(keccak256(\"0x604BCD042D2d5B355ecE14B6aC3224d23F29a51c\"));//delete this\n    address tempAddress;\n    \n    address public manager;\n    string public name;\n    string public content;\n    \n    uint public total = 2000;\n    uint public yayprice;\n    uint public nayprice;\n    uint public yaycount = 0;\n    uint public naycount = 0;\n    mapping(address=>uint) public yays;\n    mapping(address=>uint) public nays;\n    address payable [] voted;\n    bool completed = false;\n    bool verdict;\n\n    \n    modifier active(){\n    \trequire(!completed);\n      _;\n    }\n\t\n  \tfunction complete() public payable{\n\n        if(msg.sender== tempAddress) {\n            if(verdict==true){\n                for(uint i = 0; i < voted.length; i++){\n                    if(yays[voted[i]]>0){\n                        voted[i].transfer(yays[voted[i]]*address(this).balance/(yaycount)*95/100);\n                    }\n                }\n            }\n        }else{\n            for(uint i = 0; i < voted.length; i++){\n                if(nays[voted[i]]>0){\n                    voted[i].transfer(nays[voted[i]]*address(this).balance/(naycount)*95/100);\n                }\n            }\n        }\n        completed = true;\n    }\n \n    \n    function updateCost() public {\n        yayprice =  ((total *(yaycount+10))/(yaycount + naycount + 20));\n        nayprice = total - yayprice;\n    }\n    \n    function voteYay() public payable active{\n    \t\t\n        if(msg.sender == tempAddress){\n\n            verdict = true;\n            complete();\n        }else{\n        \tif(yays[msg.sender]==0 && nays[msg.sender]==0){\n          \t    voted.push(msg.sender);\n        \t}\n            require(msg.value>=yayprice);\n            require(yays[msg.sender]<=3);\n\n            yays[msg.sender]++;\n            yaycount++;\n            updateCost();\n        }       \n    }\n    \n    function voteNay() public payable {\n    \t\n      \t if(msg.sender==tempAddress){\n\t\t\tcompleted = true;\n            verdict = false;\n            complete();\n        }else{\n        \tif(yays[msg.sender]==0 && nays[msg.sender]==0){\n          \t    voted.push(msg.sender);\n        \t}\n            require(msg.value>=nayprice);\n            require(nays[msg.sender]<=3);\n\n            nays[msg.sender]++;\n            naycount++;\n            updateCost();\n        }       \n    }\n\n    function getSummary() public view returns (address, string memory, string memory, uint, uint, uint, uint, bool, bool, uint){\n        return(address(this), name, content, yayprice, nayprice, yaycount, naycount, completed, verdict, address(this).balance);\n    }\n    \n    \n    constructor(address manager_init, string memory content_init, string memory name_init) public {\n        name = name_init;\n        manager = manager_init;\n        tempAddress = manager;\n        content = content_init;\n    \tupdateCost();\n\t}\n    \n    \n}",
  "sourcePath": "/home/arvinth/projects/blockchain/spectrum/ethereum/contracts/Spectrum.sol",
  "compiler": {
    "name": "solc",
    "version": "0.6.0+commit.26b70077.Emscripten.clang"
  },
  "schemaVersion": "3.3.4",
  "updatedAt": "2021-03-06T17:37:40.611Z",
  "networkType": "ethereum",
  "devdoc": {
    "methods": {}
  },
  "userdoc": {
    "methods": {}
  }
}