{
  "contractName": "Post",
  "abi": [
    {
      "inputs": [
        {
          "internalType": "address",
          "name": "manager_init",
          "type": "address"
        },
        {
          "internalType": "string",
          "name": "content_init",
          "type": "string"
        },
        {
          "internalType": "string",
          "name": "name_init",
          "type": "string"
        },
        {
          "internalType": "string",
          "name": "thumbnail_init",
          "type": "string"
        }
      ],
      "stateMutability": "nonpayable",
      "type": "constructor"
    },
    {
      "inputs": [],
      "name": "balanceRef",
      "outputs": [
        {
          "internalType": "uint256",
          "name": "",
          "type": "uint256"
        }
      ],
      "stateMutability": "view",
      "type": "function"
    },
    {
      "inputs": [],
      "name": "completed",
      "outputs": [
        {
          "internalType": "bool",
          "name": "",
          "type": "bool"
        }
      ],
      "stateMutability": "view",
      "type": "function"
    },
    {
      "inputs": [],
      "name": "content",
      "outputs": [
        {
          "internalType": "string",
          "name": "",
          "type": "string"
        }
      ],
      "stateMutability": "view",
      "type": "function"
    },
    {
      "inputs": [],
      "name": "manager",
      "outputs": [
        {
          "internalType": "address",
          "name": "",
          "type": "address"
        }
      ],
      "stateMutability": "view",
      "type": "function"
    },
    {
      "inputs": [],
      "name": "name",
      "outputs": [
        {
          "internalType": "string",
          "name": "",
          "type": "string"
        }
      ],
      "stateMutability": "view",
      "type": "function"
    },
    {
      "inputs": [],
      "name": "naycount",
      "outputs": [
        {
          "internalType": "uint256",
          "name": "",
          "type": "uint256"
        }
      ],
      "stateMutability": "view",
      "type": "function"
    },
    {
      "inputs": [],
      "name": "nayprice",
      "outputs": [
        {
          "internalType": "uint256",
          "name": "",
          "type": "uint256"
        }
      ],
      "stateMutability": "view",
      "type": "function"
    },
    {
      "inputs": [
        {
          "internalType": "address",
          "name": "",
          "type": "address"
        }
      ],
      "name": "nays",
      "outputs": [
        {
          "internalType": "uint256",
          "name": "",
          "type": "uint256"
        }
      ],
      "stateMutability": "view",
      "type": "function"
    },
    {
      "inputs": [],
      "name": "timeStamp",
      "outputs": [
        {
          "internalType": "uint256",
          "name": "",
          "type": "uint256"
        }
      ],
      "stateMutability": "view",
      "type": "function"
    },
    {
      "inputs": [],
      "name": "total",
      "outputs": [
        {
          "internalType": "uint256",
          "name": "",
          "type": "uint256"
        }
      ],
      "stateMutability": "view",
      "type": "function"
    },
    {
      "inputs": [],
      "name": "verdict",
      "outputs": [
        {
          "internalType": "bool",
          "name": "",
          "type": "bool"
        }
      ],
      "stateMutability": "view",
      "type": "function"
    },
    {
      "inputs": [
        {
          "internalType": "uint256",
          "name": "",
          "type": "uint256"
        }
      ],
      "name": "voted",
      "outputs": [
        {
          "internalType": "address payable",
          "name": "",
          "type": "address"
        }
      ],
      "stateMutability": "view",
      "type": "function"
    },
    {
      "inputs": [],
      "name": "yaycount",
      "outputs": [
        {
          "internalType": "uint256",
          "name": "",
          "type": "uint256"
        }
      ],
      "stateMutability": "view",
      "type": "function"
    },
    {
      "inputs": [],
      "name": "yayprice",
      "outputs": [
        {
          "internalType": "uint256",
          "name": "",
          "type": "uint256"
        }
      ],
      "stateMutability": "view",
      "type": "function"
    },
    {
      "inputs": [
        {
          "internalType": "address",
          "name": "",
          "type": "address"
        }
      ],
      "name": "yays",
      "outputs": [
        {
          "internalType": "uint256",
          "name": "",
          "type": "uint256"
        }
      ],
      "stateMutability": "view",
      "type": "function"
    },
    {
      "inputs": [],
      "name": "complete",
      "outputs": [],
      "stateMutability": "payable",
      "type": "function"
    },
    {
      "inputs": [],
      "name": "updateCost",
      "outputs": [],
      "stateMutability": "nonpayable",
      "type": "function"
    },
    {
      "inputs": [],
      "name": "voteYay",
      "outputs": [],
      "stateMutability": "payable",
      "type": "function"
    },
    {
      "inputs": [],
      "name": "voteNay",
      "outputs": [],
      "stateMutability": "payable",
      "type": "function"
    },
    {
      "inputs": [
        {
          "internalType": "string",
          "name": "url",
          "type": "string"
        }
      ],
      "name": "updateThumbnail",
      "outputs": [],
      "stateMutability": "nonpayable",
      "type": "function"
    },
    {
      "inputs": [],
      "name": "getSummary",
      "outputs": [
        {
          "internalType": "address",
          "name": "",
          "type": "address"
        },
        {
          "internalType": "string",
          "name": "",
          "type": "string"
        },
        {
          "internalType": "string",
          "name": "",
          "type": "string"
        },
        {
          "internalType": "uint256",
          "name": "",
          "type": "uint256"
        },
        {
          "internalType": "uint256",
          "name": "",
          "type": "uint256"
        },
        {
          "internalType": "uint256",
          "name": "",
          "type": "uint256"
        },
        {
          "internalType": "uint256",
          "name": "",
          "type": "uint256"
        },
        {
          "internalType": "bool",
          "name": "",
          "type": "bool"
        },
        {
          "internalType": "bool",
          "name": "",
          "type": "bool"
        },
        {
          "internalType": "uint256",
          "name": "",
          "type": "uint256"
        },
        {
          "internalType": "bytes32",
          "name": "",
          "type": "bytes32"
        }
      ],
      "stateMutability": "view",
      "type": "function"
    }
  ],
  "bytecode": "0x608060405266470de4df820000600455600060075560006008556000600c60006101000a81548160ff0219169083151502179055506000600d553480156200004657600080fd5b506040516200319f3803806200319f833981810160405260808110156200006c57600080fd5b8101908080519060200190929190805160405193929190846401000000008211156200009757600080fd5b83820191506020820185811115620000ae57600080fd5b8251866001820283011164010000000082111715620000cc57600080fd5b8083526020830192505050908051906020019080838360005b8381101562000102578082015181840152602081019050620000e5565b50505050905090810190601f168015620001305780820380516001836020036101000a031916815260200191505b50604052602001805160405193929190846401000000008211156200015457600080fd5b838201915060208201858111156200016b57600080fd5b82518660018202830111640100000000821117156200018957600080fd5b8083526020830192505050908051906020019080838360005b83811015620001bf578082015181840152602081019050620001a2565b50505050905090810190601f168015620001ed5780820380516001836020036101000a031916815260200191505b50604052602001805160405193929190846401000000008211156200021157600080fd5b838201915060208201858111156200022857600080fd5b82518660018202830111640100000000821117156200024657600080fd5b8083526020830192505050908051906020019080838360005b838110156200027c5780820151818401526020810190506200025f565b50505050905090810190601f168015620002aa5780820380516001836020036101000a031916815260200191505b506040525050508160029080519060200190620002c9929190620005ed565b5083600160006101000a81548173ffffffffffffffffffffffffffffffffffffffff021916908373ffffffffffffffffffffffffffffffffffffffff160217905550600160009054906101000a900473ffffffffffffffffffffffffffffffffffffffff166000806101000a81548173ffffffffffffffffffffffffffffffffffffffff021916908373ffffffffffffffffffffffffffffffffffffffff160217905550826003908051906020019062000385929190620005ed565b50604051620003949062000674565b604051809103906000f080158015620003b1573d6000803e3d6000fd5b50601060006101000a81548173ffffffffffffffffffffffffffffffffffffffff021916908373ffffffffffffffffffffffffffffffffffffffff16021790555062000403816200041d60201b60201c565b62000413620005b460201b60201c565b50505050620006aa565b600c60009054906101000a900460ff16156200043857600080fd5b600160009054906101000a900473ffffffffffffffffffffffffffffffffffffffff1673ffffffffffffffffffffffffffffffffffffffff163373ffffffffffffffffffffffffffffffffffffffff161415620005b157601060009054906101000a900473ffffffffffffffffffffffffffffffffffffffff1673ffffffffffffffffffffffffffffffffffffffff1663ae55c888826040518263ffffffff1660e01b81526004018080602001828103825283818151815260200191508051906020019080838360005b838110156200051f57808201518184015260208101905062000502565b50505050905090810190601f1680156200054d5780820380516001836020036101000a031916815260200191505b5092505050602060405180830381600087803b1580156200056d57600080fd5b505af115801562000582573d6000803e3d6000fd5b505050506040513d60208110156200059957600080fd5b8101908080519060200190929190505050600f819055505b50565b60146008546007540101600a600754016004540281620005d057fe5b046005819055506005546004540360068190555047600d81905550565b828054600181600116156101000203166002900490600052602060002090601f016020900481019282601f106200063057805160ff191683800117855562000661565b8280016001018555821562000661579182015b828111156200066057825182559160200191906001019062000643565b5b50905062000670919062000682565b5090565b6114b58062001cea83390190565b620006a791905b80821115620006a357600081600090555060010162000689565b5090565b90565b61163080620006ba6000396000f3fe60806040526004361061012a5760003560e01c80638b563f62116100ab578063b0acb3c91161006f578063b0acb3c91461061d578063befa4bfb14610648578063c7af3dd114610673578063d6dd6c261461068a578063d716dd1a146106b5578063e8f95b771461071a5761012a565b80638b563f62146104d95780638fbb38ff146105045780639566eb691461057f57806395d765e9146105895780639d9a7fe9146105ee5761012a565b8063481c6a75116100f2578063481c6a751461038e578063522e1177146103e55780636aba253c146103ef5780637eb84be31461041e5780638a4d5a67146104495761012a565b806306fdde031461012f5780630ab0df87146101bf5780632ddbd13a146101ea5780634051ddac1461021557806340b7cba614610384575b600080fd5b34801561013b57600080fd5b506101446107e2565b6040518080602001828103825283818151815260200191508051906020019080838360005b83811015610184578082015181840152602081019050610169565b50505050905090810190601f1680156101b15780820380516001836020036101000a031916815260200191505b509250505060405180910390f35b3480156101cb57600080fd5b506101d4610880565b6040518082815260200191505060405180910390f35b3480156101f657600080fd5b506101ff610886565b6040518082815260200191505060405180910390f35b34801561022157600080fd5b5061022a61088c565b604051808c73ffffffffffffffffffffffffffffffffffffffff1673ffffffffffffffffffffffffffffffffffffffff16815260200180602001806020018b81526020018a8152602001898152602001888152602001871515151581526020018615151515815260200185815260200184815260200183810383528d818151815260200191508051906020019080838360005b838110156102d85780820151818401526020810190506102bd565b50505050905090810190601f1680156103055780820380516001836020036101000a031916815260200191505b5083810382528c818151815260200191508051906020019080838360005b8381101561033e578082015181840152602081019050610323565b50505050905090810190601f16801561036b5780820380516001836020036101000a031916815260200191505b509d505050505050505050505050505060405180910390f35b61038c610a2f565b005b34801561039a57600080fd5b506103a3610c6b565b604051808273ffffffffffffffffffffffffffffffffffffffff1673ffffffffffffffffffffffffffffffffffffffff16815260200191505060405180910390f35b6103ed610c91565b005b3480156103fb57600080fd5b5061040461108f565b604051808215151515815260200191505060405180910390f35b34801561042a57600080fd5b506104336110a2565b6040518082815260200191505060405180910390f35b34801561045557600080fd5b5061045e6110a8565b6040518080602001828103825283818151815260200191508051906020019080838360005b8381101561049e578082015181840152602081019050610483565b50505050905090810190601f1680156104cb5780820380516001836020036101000a031916815260200191505b509250505060405180910390f35b3480156104e557600080fd5b506104ee611146565b6040518082815260200191505060405180910390f35b34801561051057600080fd5b5061053d6004803603602081101561052757600080fd5b810190808035906020019092919050505061114c565b604051808273ffffffffffffffffffffffffffffffffffffffff1673ffffffffffffffffffffffffffffffffffffffff16815260200191505060405180910390f35b610587611188565b005b34801561059557600080fd5b506105d8600480360360208110156105ac57600080fd5b81019080803573ffffffffffffffffffffffffffffffffffffffff1690602001909291905050506113de565b6040518082815260200191505060405180910390f35b3480156105fa57600080fd5b506106036113f6565b604051808215151515815260200191505060405180910390f35b34801561062957600080fd5b50610632611409565b6040518082815260200191505060405180910390f35b34801561065457600080fd5b5061065d61140f565b6040518082815260200191505060405180910390f35b34801561067f57600080fd5b50610688611415565b005b34801561069657600080fd5b5061069f61144d565b6040518082815260200191505060405180910390f35b3480156106c157600080fd5b50610704600480360360208110156106d857600080fd5b81019080803573ffffffffffffffffffffffffffffffffffffffff169060200190929190505050611453565b6040518082815260200191505060405180910390f35b34801561072657600080fd5b506107e06004803603602081101561073d57600080fd5b810190808035906020019064010000000081111561075a57600080fd5b82018360208201111561076c57600080fd5b8035906020019184600183028401116401000000008311171561078e57600080fd5b91908080601f016020809104026020016040519081016040528093929190818152602001838380828437600081840152601f19601f82011690508083019250505050505050919291929050505061146b565b005b60028054600181600116156101000203166002900480601f0160208091040260200160405190810160405280929190818152602001828054600181600116156101000203166002900480156108785780601f1061084d57610100808354040283529160200191610878565b820191906000526020600020905b81548152906001019060200180831161085b57829003601f168201915b505050505081565b600e5481565b60045481565b60006060806000806000806000806000803060026003600554600654600754600854600c60009054906101000a900460ff16600c60019054906101000a900460ff16600d54600f54898054600181600116156101000203166002900480601f0160208091040260200160405190810160405280929190818152602001828054600181600116156101000203166002900480156109695780601f1061093e57610100808354040283529160200191610969565b820191906000526020600020905b81548152906001019060200180831161094c57829003601f168201915b50505050509950888054600181600116156101000203166002900480601f016020809104026020016040519081016040528092919081815260200182805460018160011615610100020316600290048015610a055780601f106109da57610100808354040283529160200191610a05565b820191906000526020600020905b8154815290600101906020018083116109e857829003601f168201915b505050505098509a509a509a509a509a509a509a509a509a509a509a50909192939495969798999a565b6000809054906101000a900473ffffffffffffffffffffffffffffffffffffffff1673ffffffffffffffffffffffffffffffffffffffff163373ffffffffffffffffffffffffffffffffffffffff161415610aac576000600c60016101000a81548160ff021916908315150217905550610aa7610c91565b610c69565b6000600960003373ffffffffffffffffffffffffffffffffffffffff1673ffffffffffffffffffffffffffffffffffffffff16815260200190815260200160002054148015610b3a57506000600a60003373ffffffffffffffffffffffffffffffffffffffff1673ffffffffffffffffffffffffffffffffffffffff16815260200190815260200160002054145b15610ba357600b339080600181540180825580915050600190039060005260206000200160009091909190916101000a81548173ffffffffffffffffffffffffffffffffffffffff021916908373ffffffffffffffffffffffffffffffffffffffff1602179055505b600654341015610bb257600080fd5b6003600a60003373ffffffffffffffffffffffffffffffffffffffff1673ffffffffffffffffffffffffffffffffffffffff168152602001908152602001600020541115610bff57600080fd5b600a60003373ffffffffffffffffffffffffffffffffffffffff1673ffffffffffffffffffffffffffffffffffffffff16815260200190815260200160002060008154809291906001019190505550600860008154809291906001019190505550610c68611415565b5b565b600160009054906101000a900473ffffffffffffffffffffffffffffffffffffffff1681565b6000809054906101000a900473ffffffffffffffffffffffffffffffffffffffff1673ffffffffffffffffffffffffffffffffffffffff163373ffffffffffffffffffffffffffffffffffffffff16141561108d576001600c60006101000a81548160ff02191690831515021790555047600d8190555060011515600c60019054906101000a900460ff1615151415610eda5760008090505b600b80549050811015610ed457600060096000600b8481548110610d4a57fe5b9060005260206000200160009054906101000a900473ffffffffffffffffffffffffffffffffffffffff1673ffffffffffffffffffffffffffffffffffffffff1673ffffffffffffffffffffffffffffffffffffffff168152602001908152602001600020541115610ec757600b8181548110610dc357fe5b9060005260206000200160009054906101000a900473ffffffffffffffffffffffffffffffffffffffff1673ffffffffffffffffffffffffffffffffffffffff166108fc6064605f600754600d5460096000600b8981548110610e2257fe5b9060005260206000200160009054906101000a900473ffffffffffffffffffffffffffffffffffffffff1673ffffffffffffffffffffffffffffffffffffffff1673ffffffffffffffffffffffffffffffffffffffff168152602001908152602001600020540281610e9057fe5b040281610e9957fe5b049081150290604051600060405180830381858888f19350505050158015610ec5573d6000803e3d6000fd5b505b8080600101915050610d2a565b5061108c565b60008090505b600b8054905081101561108a576000600a6000600b8481548110610f0057fe5b9060005260206000200160009054906101000a900473ffffffffffffffffffffffffffffffffffffffff1673ffffffffffffffffffffffffffffffffffffffff1673ffffffffffffffffffffffffffffffffffffffff16815260200190815260200160002054111561107d57600b8181548110610f7957fe5b9060005260206000200160009054906101000a900473ffffffffffffffffffffffffffffffffffffffff1673ffffffffffffffffffffffffffffffffffffffff166108fc6064605f600854600d54600a6000600b8981548110610fd857fe5b9060005260206000200160009054906101000a900473ffffffffffffffffffffffffffffffffffffffff1673ffffffffffffffffffffffffffffffffffffffff1673ffffffffffffffffffffffffffffffffffffffff16815260200190815260200160002054028161104657fe5b04028161104f57fe5b049081150290604051600060405180830381858888f1935050505015801561107b573d6000803e3d6000fd5b505b8080600101915050610ee0565b505b5b565b600c60019054906101000a900460ff1681565b60085481565b60038054600181600116156101000203166002900480601f01602080910402602001604051908101604052809291908181526020018280546001816001161561010002031660029004801561113e5780601f106111135761010080835404028352916020019161113e565b820191906000526020600020905b81548152906001019060200180831161112157829003601f168201915b505050505081565b60065481565b600b818154811061115957fe5b906000526020600020016000915054906101000a900473ffffffffffffffffffffffffffffffffffffffff1681565b600c60009054906101000a900460ff16156111a257600080fd5b6000809054906101000a900473ffffffffffffffffffffffffffffffffffffffff1673ffffffffffffffffffffffffffffffffffffffff163373ffffffffffffffffffffffffffffffffffffffff16141561121f576001600c60016101000a81548160ff02191690831515021790555061121a610c91565b6113dc565b6000600960003373ffffffffffffffffffffffffffffffffffffffff1673ffffffffffffffffffffffffffffffffffffffff168152602001908152602001600020541480156112ad57506000600a60003373ffffffffffffffffffffffffffffffffffffffff1673ffffffffffffffffffffffffffffffffffffffff16815260200190815260200160002054145b1561131657600b339080600181540180825580915050600190039060005260206000200160009091909190916101000a81548173ffffffffffffffffffffffffffffffffffffffff021916908373ffffffffffffffffffffffffffffffffffffffff1602179055505b60055434101561132557600080fd5b6003600960003373ffffffffffffffffffffffffffffffffffffffff1673ffffffffffffffffffffffffffffffffffffffff16815260200190815260200160002054111561137257600080fd5b600960003373ffffffffffffffffffffffffffffffffffffffff1673ffffffffffffffffffffffffffffffffffffffff168152602001908152602001600020600081548092919060010191905055506007600081548092919060010191905055506113db611415565b5b565b60096020528060005260406000206000915090505481565b600c60009054906101000a900460ff1681565b600d5481565b60055481565b60146008546007540101600a60075401600454028161143057fe5b046005819055506005546004540360068190555047600d81905550565b60075481565b600a6020528060005260406000206000915090505481565b600c60009054906101000a900460ff161561148557600080fd5b600160009054906101000a900473ffffffffffffffffffffffffffffffffffffffff1673ffffffffffffffffffffffffffffffffffffffff163373ffffffffffffffffffffffffffffffffffffffff1614156115f757601060009054906101000a900473ffffffffffffffffffffffffffffffffffffffff1673ffffffffffffffffffffffffffffffffffffffff1663ae55c888826040518263ffffffff1660e01b81526004018080602001828103825283818151815260200191508051906020019080838360005b8381101561156957808201518184015260208101905061154e565b50505050905090810190601f1680156115965780820380516001836020036101000a031916815260200191505b5092505050602060405180830381600087803b1580156115b557600080fd5b505af11580156115c9573d6000803e3d6000fd5b505050506040513d60208110156115df57600080fd5b8101908080519060200190929190505050600f819055505b5056fea2646970667358221220fa91661f04290ace1d97f2429af965fe04c3ddd9cde07c35634a2d0955cb819364736f6c634300060000336080604052600160045562000019620000d060201b60201c565b73c2d39d70fb75fb3d2a0e3a67b914bfd8a7e2964a600760006101000a81548173ffffffffffffffffffffffffffffffffffffffff021916908373ffffffffffffffffffffffffffffffffffffffff1602179055506040518060400160405280602081526020017f663835386539613037363730346330366137336135623536343737326465366681525060089080519060200190620000bb929190620001be565b5066b1a2bc2ec500006009819055506200026d565b6200017873c89bd4e1632d3a43cb03aaad5262cbe4038bc57173ffffffffffffffffffffffffffffffffffffffff166338cc48316040518163ffffffff1660e01b815260040160206040518083038186803b1580156200012f57600080fd5b505afa15801562000144573d6000803e3d6000fd5b505050506040513d60208110156200015b57600080fd5b81019080805190602001909291905050506200017a60201b60201c565b565b80600260006101000a81548173ffffffffffffffffffffffffffffffffffffffff021916908373ffffffffffffffffffffffffffffffffffffffff16021790555050565b828054600181600116156101000203166002900490600052602060002090601f016020900481019282601f106200020157805160ff191683800117855562000232565b8280016001018555821562000232579182015b828111156200023157825182559160200191906001019062000214565b5b50905062000241919062000245565b5090565b6200026a91905b80821115620002665760008160009055506001016200024c565b5090565b90565b611238806200027d6000396000f3fe608060405234801561001057600080fd5b506004361061004c5760003560e01c8063042f2b65146100515780635f956d1a1461008957806373d4a13a14610158578063ae55c88814610176575b600080fd5b6100876004803603604081101561006757600080fd5b810190808035906020019092919080359060200190929190505050610245565b005b6101426004803603602081101561009f57600080fd5b81019080803590602001906401000000008111156100bc57600080fd5b8201836020820111156100ce57600080fd5b803590602001918460018302840111640100000000831117156100f057600080fd5b91908080601f016020809104026020016040519081016040528093929190818152602001838380828437600081840152601f19601f82011690508083019250505050505050919291929050505061036c565b6040518082815260200191505060405180910390f35b610160610577565b6040518082815260200191505060405180910390f35b61022f6004803603602081101561018c57600080fd5b81019080803590602001906401000000008111156101a957600080fd5b8201836020820111156101bb57600080fd5b803590602001918460018302840111640100000000831117156101dd57600080fd5b91908080601f016020809104026020016040519081016040528093929190818152602001838380828437600081840152601f19601f82011690508083019250505050505050919291929050505061057d565b6040518082815260200191505060405180910390f35b816005600082815260200190815260200160002060009054906101000a900473ffffffffffffffffffffffffffffffffffffffff1673ffffffffffffffffffffffffffffffffffffffff163373ffffffffffffffffffffffffffffffffffffffff16146102fd576040517f08c379a00000000000000000000000000000000000000000000000000000000081526004018080602001828103825260288152602001806111db6028913960400191505060405180910390fd5b6005600082815260200190815260200160002060006101000a81549073ffffffffffffffffffffffffffffffffffffffff0219169055807f7cc135e0cebb02c3480ae5d74d377283180a2601f8f644edf7987b009316c63a60405160405180910390a281600681905550505050565b6000610376611116565b61042a61041c60088054600181600116156101000203166002900480601f0160208091040260200160405190810160405280929190818152602001828054600181600116156101000203166002900480156104125780601f106103e757610100808354040283529160200191610412565b820191906000526020600020905b8154815290600101906020018083116103f557829003601f168201915b5050505050610598565b3063042f2b6560e01b6105c3565b90506104766040518060400160405280600381526020017f676574000000000000000000000000000000000000000000000000000000000081525084836105f49092919063ffffffff16565b6104f56040518060400160405280600481526020017f70617468000000000000000000000000000000000000000000000000000000008152506040518060400160405280600381526020017f5553440000000000000000000000000000000000000000000000000000000000815250836105f49092919063ffffffff16565b6105406040518060400160405280600581526020017f74696d65730000000000000000000000000000000000000000000000000000008152506064836106279092919063ffffffff16565b61056f600760009054906101000a900473ffffffffffffffffffffffffffffffffffffffff168260095461065a565b915050919050565b600a5481565b60006105888261036c565b600a81905550600a549050919050565b600060608290506000815114156105b5576000801b9150506105be565b60208301519150505b919050565b6105cb611116565b6105d3611116565b6105ea85858584610912909392919063ffffffff16565b9150509392505050565b61060b8284608001516109c290919063ffffffff16565b6106228184608001516109c290919063ffffffff16565b505050565b61063e8284608001516109c290919063ffffffff16565b6106558184608001516109e790919063ffffffff16565b505050565b600030600454604051602001808373ffffffffffffffffffffffffffffffffffffffff1673ffffffffffffffffffffffffffffffffffffffff1660601b815260140182815260200192505050604051602081830303815290604052805190602001209050600454836060018181525050836005600083815260200190815260200160002060006101000a81548173ffffffffffffffffffffffffffffffffffffffff021916908373ffffffffffffffffffffffffffffffffffffffff160217905550807fb5e6e01e79f91267dc17b4e6314d5d4d03593d2ceee0fbb452b750bd70ea5af960405160405180910390a2600260009054906101000a900473ffffffffffffffffffffffffffffffffffffffff1673ffffffffffffffffffffffffffffffffffffffff16634000aea0858461079287610a8b565b6040518463ffffffff1660e01b8152600401808473ffffffffffffffffffffffffffffffffffffffff1673ffffffffffffffffffffffffffffffffffffffff16815260200183815260200180602001828103825283818151815260200191508051906020019080838360005b838110156108195780820151818401526020810190506107fe565b50505050905090810190601f1680156108465780820380516001836020036101000a031916815260200191505b50945050505050602060405180830381600087803b15801561086757600080fd5b505af115801561087b573d6000803e3d6000fd5b505050506040513d602081101561089157600080fd5b81019080805190602001909291905050506108f7576040517f08c379a00000000000000000000000000000000000000000000000000000000081526004018080602001828103825260238152602001806111b86023913960400191505060405180910390fd5b60016004600082825401925050819055508090509392505050565b61091a611116565b61092a8560800151610100610c92565b508385600001818152505082856020019073ffffffffffffffffffffffffffffffffffffffff16908173ffffffffffffffffffffffffffffffffffffffff16815250508185604001907bffffffffffffffffffffffffffffffffffffffffffffffffffffffff191690817bffffffffffffffffffffffffffffffffffffffffffffffffffffffff191681525050849050949350505050565b6109cf8260038351610ce6565b6109e28183610e2b90919063ffffffff16565b505050565b7fffffffffffffffffffffffffffffffffffffffffffffffff0000000000000000811215610a1e57610a198282610e4d565b610a87565b67ffffffffffffffff811315610a3d57610a388282610ebb565b610a86565b60008112610a5657610a5182600083610ce6565b610a85565b610a84826001837fffffffffffffffffffffffffffffffffffffffffffffffffffffffffffffffff03610ce6565b5b5b5b5050565b6060600360009054906101000a900473ffffffffffffffffffffffffffffffffffffffff1673ffffffffffffffffffffffffffffffffffffffff166340429946905060e01b60008084600001518560200151866040015187606001516001896080015160000151604051602401808973ffffffffffffffffffffffffffffffffffffffff1673ffffffffffffffffffffffffffffffffffffffff1681526020018881526020018781526020018673ffffffffffffffffffffffffffffffffffffffff1673ffffffffffffffffffffffffffffffffffffffff168152602001857bffffffffffffffffffffffffffffffffffffffffffffffffffffffff19167bffffffffffffffffffffffffffffffffffffffffffffffffffffffff1916815260200184815260200183815260200180602001828103825283818151815260200191508051906020019080838360005b83811015610bf5578082015181840152602081019050610bda565b50505050905090810190601f168015610c225780820380516001836020036101000a031916815260200191505b509950505050505050505050604051602081830303815290604052907bffffffffffffffffffffffffffffffffffffffffffffffffffffffff19166020820180517bffffffffffffffffffffffffffffffffffffffffffffffffffffffff83818316178352505050509050919050565b610c9a611183565b600060208381610ca657fe5b0614610cbf5760208281610cb657fe5b06602003820191505b81836020018181525050604051808452600081528281016020016040525082905092915050565b60178111610d1357610d0d8160058460ff16901b60ff161784610f0790919063ffffffff16565b50610e26565b60ff8111610d5557610d38601860058460ff16901b1784610f0790919063ffffffff16565b50610d4f81600185610f279092919063ffffffff16565b50610e25565b61ffff8111610d9857610d7b601960058460ff16901b1784610f0790919063ffffffff16565b50610d9281600285610f279092919063ffffffff16565b50610e24565b63ffffffff8111610ddd57610dc0601a60058460ff16901b1784610f0790919063ffffffff16565b50610dd781600485610f279092919063ffffffff16565b50610e23565b67ffffffffffffffff8111610e2257610e09601b60058460ff16901b1784610f0790919063ffffffff16565b50610e2081600885610f279092919063ffffffff16565b505b5b5b5b5b505050565b610e33611183565b610e4583846000015151848551610f49565b905092915050565b610e6b60036005600660ff16901b1783610f0790919063ffffffff16565b50610eb782827fffffffffffffffffffffffffffffffffffffffffffffffffffffffffffffffff0360405160200180828152602001915050604051602081830303815290604052611002565b5050565b610ed960026005600660ff16901b1783610f0790919063ffffffff16565b50610f03828260405160200180828152602001915050604051602081830303815290604052611002565b5050565b610f0f611183565b610f1f8384600001515184611027565b905092915050565b610f2f611183565b610f40848560000151518585611075565b90509392505050565b610f51611183565b8251821115610f5f57600080fd5b84602001518285011115610f8a57610f89856002610f8388602001518887016110d6565b026110f2565b5b600080865180518760208301019350808887011115610fa95787860182525b60208701925050505b60208410610fd55780518252602082019150602081019050602084039350610fb2565b60006001856020036101000a03905080198251168184511681811785525050879350505050949350505050565b61100f8260028351610ce6565b6110228183610e2b90919063ffffffff16565b505050565b61102f611183565b8360200151831061104c5761104b8460028660200151026110f2565b5b8351805160208583010184815381861415611068576001820183525b5050508390509392505050565b61107d611183565b8460200151848301111561109b5761109a856002868501026110f2565b5b60006001836101000a03905085518386820101858319825116178152815185880111156110c85784870182525b505085915050949350505050565b6000818311156110e8578290506110ec565b8190505b92915050565b6060826000015190506111058383610c92565b506111108382610e2b565b50505050565b6040518060a0016040528060008019168152602001600073ffffffffffffffffffffffffffffffffffffffff16815260200160007bffffffffffffffffffffffffffffffffffffffffffffffffffffffff191681526020016000815260200161117d61119d565b81525090565b604051806040016040528060608152602001600081525090565b60405180604001604052806060815260200160008152509056fe756e61626c6520746f207472616e73666572416e6443616c6c20746f206f7261636c65536f75726365206d75737420626520746865206f7261636c65206f66207468652072657175657374a2646970667358221220e8d83e56565cce51d8b464a8162982c697f9a4ed68a229de307241324ac7b06064736f6c63430006000033",
  "source": "pragma solidity ^0.6.0;\r\n\r\n\r\nimport './SpecChain.sol';\r\n\r\ncontract Spectrum{\r\n\r\n    address[] public deployedPosts;\r\n    \r\n    function createPost(string memory content, string memory name, string memory thumbnail) public returns (address[] memory){\r\n        Post newPost = new Post(msg.sender, content, name, thumbnail);\r\n        deployedPosts.push(address(newPost));\r\n        return deployedPosts;\r\n    }\r\n\r\n    function getDeployedPosts() public view returns (address[] memory){\r\n        return deployedPosts;\r\n    }\r\n\r\n}\r\n\r\ncontract Post{\r\n\r\n    address tempAddress;\r\n    \r\n    address public manager;\r\n    string public name;\r\n    string public content;\r\n    \r\n    uint public total = 20000000000000000;\r\n    uint public yayprice;\r\n    uint public nayprice;\r\n    uint public yaycount = 0;\r\n    uint public naycount = 0;\r\n    mapping(address=>uint) public yays;\r\n    mapping(address=>uint) public nays;\r\n    address payable [] public voted;\r\n    bool public completed = false;\r\n    bool public verdict;\r\n    uint public balanceRef = 0;\r\n    uint public timeStamp;\r\n    bytes32 thumbnail;\r\n    SpecChain sc;\r\n    \r\n    modifier active(){\r\n    \trequire(!completed);\r\n      _;\r\n    }\r\n\t\r\n  \tfunction complete() public payable{\r\n\r\n        if(msg.sender== tempAddress) {\r\n\t\t\tcompleted = true;\r\n            balanceRef = address(this).balance;\r\n            if(verdict==true){\r\n                for(uint i = 0; i < voted.length; i++){\r\n                    if(yays[voted[i]]>0){\r\n                        voted[i].transfer((yays[voted[i]]*balanceRef)/(yaycount)*95/100);\r\n                    }\r\n                }\r\n            }else{\r\n                for(uint i = 0; i < voted.length; i++){\r\n                    if(nays[voted[i]]>0){\r\n                        voted[i].transfer((nays[voted[i]]*balanceRef)/(naycount)*95/100);\r\n                    }\r\n                }\r\n            }\r\n        }\r\n    }\r\n \r\n    \r\n    function updateCost() public {\r\n        yayprice =  ((total *(yaycount+10))/(yaycount + naycount + 20));\r\n        nayprice = total - yayprice;\r\n        balanceRef = address(this).balance;\r\n    }\r\n    \r\n    function voteYay() public payable active{\r\n    \t\t\r\n        if(msg.sender == tempAddress){\r\n            verdict = true;\r\n            complete();\r\n        }else{\r\n        \tif(yays[msg.sender]==0 && nays[msg.sender]==0){\r\n          \t    voted.push(msg.sender);\r\n        \t}\r\n            require(msg.value>=yayprice);\r\n            require(yays[msg.sender]<=3);\r\n\r\n            yays[msg.sender]++;\r\n            yaycount++;\r\n            updateCost();\r\n        }       \r\n    }\r\n    \r\n    function voteNay() public payable {\r\n    \t\r\n      \t if(msg.sender==tempAddress){\r\n            verdict = false;\r\n            complete();\r\n        }else{\r\n        \tif(yays[msg.sender]==0 && nays[msg.sender]==0){\r\n          \t    voted.push(msg.sender);\r\n        \t}\r\n            require(msg.value>=nayprice);\r\n            require(nays[msg.sender]<=3);\r\n\r\n            nays[msg.sender]++;\r\n            naycount++;\r\n            updateCost();\r\n        }       \r\n    }\r\n\r\n    function updateThumbnail(string memory url) public active{\r\n        if(msg.sender == manager)\r\n        {\r\n            thumbnail = sc.getData(url);\r\n        }\r\n    }\r\n\r\n    function getSummary() public view returns (address, string memory, string memory, uint, uint, uint, uint, bool, bool, uint, bytes32){\r\n        return(address(this), name, content, yayprice, nayprice, yaycount, naycount, completed, verdict, balanceRef, thumbnail);\r\n    }\r\n    \r\n    \r\n    constructor(address manager_init, string memory content_init, string memory name_init, string memory thumbnail_init) public {\r\n        name = name_init;\r\n        manager = manager_init;\r\n        tempAddress = manager;\r\n        content = content_init;\r\n        sc = new SpecChain();\r\n        updateThumbnail(thumbnail_init);\r\n    \tupdateCost();\r\n\t}\r\n}",
  "sourcePath": "D:/projects/spectrum/ethereum/contracts/Spectrum.sol",
  "compiler": {
    "name": "solc",
    "version": "0.6.0+commit.26b70077.Emscripten.clang"
  },
  "schemaVersion": "3.3.4",
  "updatedAt": "2021-03-08T05:52:50.592Z",
  "devdoc": {
    "methods": {}
  },
  "userdoc": {
    "methods": {}
  }
}