{
  "contractName": "Spectrum",
  "abi": [
    {
      "inputs": [
        {
          "internalType": "uint256",
          "name": "",
          "type": "uint256"
        }
      ],
      "name": "deployedPosts",
      "outputs": [
        {
          "internalType": "address",
          "name": "",
          "type": "address"
        }
      ],
      "stateMutability": "view",
      "type": "function",
      "constant": true
    },
    {
      "inputs": [
        {
          "internalType": "string",
          "name": "content",
          "type": "string"
        },
        {
          "internalType": "string",
          "name": "name",
          "type": "string"
        }
      ],
      "name": "createPost",
      "outputs": [
        {
          "internalType": "address[]",
          "name": "",
          "type": "address[]"
        }
      ],
      "stateMutability": "nonpayable",
      "type": "function"
    },
    {
      "inputs": [],
      "name": "getDeployedPosts",
      "outputs": [
        {
          "internalType": "address[]",
          "name": "",
          "type": "address[]"
        }
      ],
      "stateMutability": "view",
      "type": "function",
      "constant": true
    }
  ],
  "bytecode": "0x608060405234801561001057600080fd5b50611bbb806100206000396000f3fe608060405234801561001057600080fd5b50600436106100415760003560e01c8063392338f5146100465780639cd62aa8146101ed578063c01c052d1461025b575b600080fd5b6101966004803603604081101561005c57600080fd5b810190808035906020019064010000000081111561007957600080fd5b82018360208201111561008b57600080fd5b803590602001918460018302840111640100000000831117156100ad57600080fd5b91908080601f016020809104026020016040519081016040528093929190818152602001838380828437600081840152601f19601f8201169050808301925050505050505091929192908035906020019064010000000081111561011057600080fd5b82018360208201111561012257600080fd5b8035906020019184600183028401116401000000008311171561014457600080fd5b91908080601f016020809104026020016040519081016040528093929190818152602001838380828437600081840152601f19601f8201169050808301925050505050505091929192905050506102ba565b6040518080602001828103825283818151815260200191508051906020019060200280838360005b838110156101d95780820151818401526020810190506101be565b505050509050019250505060405180910390f35b6102196004803603602081101561020357600080fd5b81019080803590602001909291905050506104ed565b604051808273ffffffffffffffffffffffffffffffffffffffff1673ffffffffffffffffffffffffffffffffffffffff16815260200191505060405180910390f35b610263610529565b6040518080602001828103825283818151815260200191508051906020019060200280838360005b838110156102a657808201518184015260208101905061028b565b505050509050019250505060405180910390f35b606060003384846040516102cd906105b7565b808473ffffffffffffffffffffffffffffffffffffffff1673ffffffffffffffffffffffffffffffffffffffff1681526020018060200180602001838103835285818151815260200191508051906020019080838360005b83811015610340578082015181840152602081019050610325565b50505050905090810190601f16801561036d5780820380516001836020036101000a031916815260200191505b50838103825284818151815260200191508051906020019080838360005b838110156103a657808201518184015260208101905061038b565b50505050905090810190601f1680156103d35780820380516001836020036101000a031916815260200191505b5095505050505050604051809103906000f0801580156103f7573d6000803e3d6000fd5b5090506000819080600181540180825580915050600190039060005260206000200160009091909190916101000a81548173ffffffffffffffffffffffffffffffffffffffff021916908373ffffffffffffffffffffffffffffffffffffffff16021790555060008054806020026020016040519081016040528092919081815260200182805480156104df57602002820191906000526020600020905b8160009054906101000a900473ffffffffffffffffffffffffffffffffffffffff1673ffffffffffffffffffffffffffffffffffffffff1681526020019060010190808311610495575b505050505091505092915050565b600081815481106104fa57fe5b906000526020600020016000915054906101000a900473ffffffffffffffffffffffffffffffffffffffff1681565b606060008054806020026020016040519081016040528092919081815260200182805480156105ad57602002820191906000526020600020905b8160009054906101000a900473ffffffffffffffffffffffffffffffffffffffff1673ffffffffffffffffffffffffffffffffffffffff1681526020019060010190808311610563575b5050505050905090565b6115c1806105c58339019056fe60806040526107d0600455600060075560006008556000600c60006101000a81548160ff0219169083151502179055506000600d553480156200004157600080fd5b50604051620015c1380380620015c1833981810160405260608110156200006757600080fd5b8101908080519060200190929190805160405193929190846401000000008211156200009257600080fd5b83820191506020820185811115620000a957600080fd5b8251866001820283011164010000000082111715620000c757600080fd5b8083526020830192505050908051906020019080838360005b83811015620000fd578082015181840152602081019050620000e0565b50505050905090810190601f1680156200012b5780820380516001836020036101000a031916815260200191505b50604052602001805160405193929190846401000000008211156200014f57600080fd5b838201915060208201858111156200016657600080fd5b82518660018202830111640100000000821117156200018457600080fd5b8083526020830192505050908051906020019080838360005b83811015620001ba5780820151818401526020810190506200019d565b50505050905090810190601f168015620001e85780820380516001836020036101000a031916815260200191505b5060405250505080600290805190602001906200020792919062000316565b5082600160006101000a81548173ffffffffffffffffffffffffffffffffffffffff021916908373ffffffffffffffffffffffffffffffffffffffff160217905550600160009054906101000a900473ffffffffffffffffffffffffffffffffffffffff166000806101000a81548173ffffffffffffffffffffffffffffffffffffffff021916908373ffffffffffffffffffffffffffffffffffffffff1602179055508160039080519060200190620002c392919062000316565b50620002d4620002dd60201b60201c565b505050620003c5565b60146008546007540101600a600754016004540281620002f957fe5b046005819055506005546004540360068190555047600d81905550565b828054600181600116156101000203166002900490600052602060002090601f016020900481019282601f106200035957805160ff19168380011785556200038a565b828001600101855582156200038a579182015b82811115620003895782518255916020019190600101906200036c565b5b5090506200039991906200039d565b5090565b620003c291905b80821115620003be576000816000905550600101620003a4565b5090565b90565b6111ec80620003d56000396000f3fe6080604052600436106100e85760003560e01c80638a4d5a671161008a578063befa4bfb11610059578063befa4bfb146104d0578063c7af3dd1146104fb578063d6dd6c2614610512578063d716dd1a1461053d576100e8565b80638a4d5a67146103a65780638b563f62146104365780639566eb691461046157806395d765e91461046b576100e8565b806340b7cba6116100c657806340b7cba614610310578063481c6a751461031a578063522e1177146103715780637eb84be31461037b576100e8565b806306fdde03146100ed5780632ddbd13a1461017d5780634051ddac146101a8575b600080fd5b3480156100f957600080fd5b506101026105a2565b6040518080602001828103825283818151815260200191508051906020019080838360005b83811015610142578082015181840152602081019050610127565b50505050905090810190601f16801561016f5780820380516001836020036101000a031916815260200191505b509250505060405180910390f35b34801561018957600080fd5b50610192610640565b6040518082815260200191505060405180910390f35b3480156101b457600080fd5b506101bd610646565b604051808b73ffffffffffffffffffffffffffffffffffffffff1673ffffffffffffffffffffffffffffffffffffffff16815260200180602001806020018a8152602001898152602001888152602001878152602001861515151581526020018515151515815260200184815260200183810383528c818151815260200191508051906020019080838360005b8381101561026557808201518184015260208101905061024a565b50505050905090810190601f1680156102925780820380516001836020036101000a031916815260200191505b5083810382528b818151815260200191508051906020019080838360005b838110156102cb5780820151818401526020810190506102b0565b50505050905090810190601f1680156102f85780820380516001836020036101000a031916815260200191505b509c5050505050505050505050505060405180910390f35b6103186107e2565b005b34801561032657600080fd5b5061032f610a1e565b604051808273ffffffffffffffffffffffffffffffffffffffff1673ffffffffffffffffffffffffffffffffffffffff16815260200191505060405180910390f35b610379610a44565b005b34801561038757600080fd5b50610390610e42565b6040518082815260200191505060405180910390f35b3480156103b257600080fd5b506103bb610e48565b6040518080602001828103825283818151815260200191508051906020019080838360005b838110156103fb5780820151818401526020810190506103e0565b50505050905090810190601f1680156104285780820380516001836020036101000a031916815260200191505b509250505060405180910390f35b34801561044257600080fd5b5061044b610ee6565b6040518082815260200191505060405180910390f35b610469610eec565b005b34801561047757600080fd5b506104ba6004803603602081101561048e57600080fd5b81019080803573ffffffffffffffffffffffffffffffffffffffff169060200190929190505050611142565b6040518082815260200191505060405180910390f35b3480156104dc57600080fd5b506104e561115a565b6040518082815260200191505060405180910390f35b34801561050757600080fd5b50610510611160565b005b34801561051e57600080fd5b50610527611198565b6040518082815260200191505060405180910390f35b34801561054957600080fd5b5061058c6004803603602081101561056057600080fd5b81019080803573ffffffffffffffffffffffffffffffffffffffff16906020019092919050505061119e565b6040518082815260200191505060405180910390f35b60028054600181600116156101000203166002900480601f0160208091040260200160405190810160405280929190818152602001828054600181600116156101000203166002900480156106385780601f1061060d57610100808354040283529160200191610638565b820191906000526020600020905b81548152906001019060200180831161061b57829003601f168201915b505050505081565b60045481565b600060608060008060008060008060003060026003600554600654600754600854600c60009054906101000a900460ff16600c60019054906101000a900460ff16600d54888054600181600116156101000203166002900480601f01602080910402602001604051908101604052809291908181526020018280546001816001161561010002031660029004801561071f5780601f106106f45761010080835404028352916020019161071f565b820191906000526020600020905b81548152906001019060200180831161070257829003601f168201915b50505050509850878054600181600116156101000203166002900480601f0160208091040260200160405190810160405280929190818152602001828054600181600116156101000203166002900480156107bb5780601f10610790576101008083540402835291602001916107bb565b820191906000526020600020905b81548152906001019060200180831161079e57829003601f168201915b50505050509750995099509950995099509950995099509950995090919293949596979899565b6000809054906101000a900473ffffffffffffffffffffffffffffffffffffffff1673ffffffffffffffffffffffffffffffffffffffff163373ffffffffffffffffffffffffffffffffffffffff16141561085f576000600c60016101000a81548160ff02191690831515021790555061085a610a44565b610a1c565b6000600960003373ffffffffffffffffffffffffffffffffffffffff1673ffffffffffffffffffffffffffffffffffffffff168152602001908152602001600020541480156108ed57506000600a60003373ffffffffffffffffffffffffffffffffffffffff1673ffffffffffffffffffffffffffffffffffffffff16815260200190815260200160002054145b1561095657600b339080600181540180825580915050600190039060005260206000200160009091909190916101000a81548173ffffffffffffffffffffffffffffffffffffffff021916908373ffffffffffffffffffffffffffffffffffffffff1602179055505b60065434101561096557600080fd5b6003600a60003373ffffffffffffffffffffffffffffffffffffffff1673ffffffffffffffffffffffffffffffffffffffff1681526020019081526020016000205411156109b257600080fd5b600a60003373ffffffffffffffffffffffffffffffffffffffff1673ffffffffffffffffffffffffffffffffffffffff16815260200190815260200160002060008154809291906001019190505550600860008154809291906001019190505550610a1b611160565b5b565b600160009054906101000a900473ffffffffffffffffffffffffffffffffffffffff1681565b6000809054906101000a900473ffffffffffffffffffffffffffffffffffffffff1673ffffffffffffffffffffffffffffffffffffffff163373ffffffffffffffffffffffffffffffffffffffff161415610e40576001600c60006101000a81548160ff02191690831515021790555047600d8190555060011515600c60019054906101000a900460ff1615151415610c8d5760008090505b600b80549050811015610c8757600060096000600b8481548110610afd57fe5b9060005260206000200160009054906101000a900473ffffffffffffffffffffffffffffffffffffffff1673ffffffffffffffffffffffffffffffffffffffff1673ffffffffffffffffffffffffffffffffffffffff168152602001908152602001600020541115610c7a57600b8181548110610b7657fe5b9060005260206000200160009054906101000a900473ffffffffffffffffffffffffffffffffffffffff1673ffffffffffffffffffffffffffffffffffffffff166108fc6064605f600754600d5460096000600b8981548110610bd557fe5b9060005260206000200160009054906101000a900473ffffffffffffffffffffffffffffffffffffffff1673ffffffffffffffffffffffffffffffffffffffff1673ffffffffffffffffffffffffffffffffffffffff168152602001908152602001600020540281610c4357fe5b040281610c4c57fe5b049081150290604051600060405180830381858888f19350505050158015610c78573d6000803e3d6000fd5b505b8080600101915050610add565b50610e3f565b60008090505b600b80549050811015610e3d576000600a6000600b8481548110610cb357fe5b9060005260206000200160009054906101000a900473ffffffffffffffffffffffffffffffffffffffff1673ffffffffffffffffffffffffffffffffffffffff1673ffffffffffffffffffffffffffffffffffffffff168152602001908152602001600020541115610e3057600b8181548110610d2c57fe5b9060005260206000200160009054906101000a900473ffffffffffffffffffffffffffffffffffffffff1673ffffffffffffffffffffffffffffffffffffffff166108fc6064605f600854600d54600a6000600b8981548110610d8b57fe5b9060005260206000200160009054906101000a900473ffffffffffffffffffffffffffffffffffffffff1673ffffffffffffffffffffffffffffffffffffffff1673ffffffffffffffffffffffffffffffffffffffff168152602001908152602001600020540281610df957fe5b040281610e0257fe5b049081150290604051600060405180830381858888f19350505050158015610e2e573d6000803e3d6000fd5b505b8080600101915050610c93565b505b5b565b60085481565b60038054600181600116156101000203166002900480601f016020809104026020016040519081016040528092919081815260200182805460018160011615610100020316600290048015610ede5780601f10610eb357610100808354040283529160200191610ede565b820191906000526020600020905b815481529060010190602001808311610ec157829003601f168201915b505050505081565b60065481565b600c60009054906101000a900460ff1615610f0657600080fd5b6000809054906101000a900473ffffffffffffffffffffffffffffffffffffffff1673ffffffffffffffffffffffffffffffffffffffff163373ffffffffffffffffffffffffffffffffffffffff161415610f83576001600c60016101000a81548160ff021916908315150217905550610f7e610a44565b611140565b6000600960003373ffffffffffffffffffffffffffffffffffffffff1673ffffffffffffffffffffffffffffffffffffffff1681526020019081526020016000205414801561101157506000600a60003373ffffffffffffffffffffffffffffffffffffffff1673ffffffffffffffffffffffffffffffffffffffff16815260200190815260200160002054145b1561107a57600b339080600181540180825580915050600190039060005260206000200160009091909190916101000a81548173ffffffffffffffffffffffffffffffffffffffff021916908373ffffffffffffffffffffffffffffffffffffffff1602179055505b60055434101561108957600080fd5b6003600960003373ffffffffffffffffffffffffffffffffffffffff1673ffffffffffffffffffffffffffffffffffffffff1681526020019081526020016000205411156110d657600080fd5b600960003373ffffffffffffffffffffffffffffffffffffffff1673ffffffffffffffffffffffffffffffffffffffff1681526020019081526020016000206000815480929190600101919050555060076000815480929190600101919050555061113f611160565b5b565b60096020528060005260406000206000915090505481565b60055481565b60146008546007540101600a60075401600454028161117b57fe5b046005819055506005546004540360068190555047600d81905550565b60075481565b600a602052806000526040600020600091509050548156fea2646970667358221220c28792af37392e10b888305f99f54900d88b49f238199a90d1ff83e0e372eab864736f6c63430006000033a2646970667358221220e0c03caa8adecee0532c99b19e572299a87f86ae2c9553e80d52c707bc4f2ada64736f6c63430006000033",
  "source": "pragma solidity ^0.6.0;\n\n\ncontract Spectrum{\n\n    address[] public deployedPosts;\n    \n    function createPost(string memory content, string memory name) public returns (address[] memory){\n        Post newPost = new Post(msg.sender, content, name);\n        deployedPosts.push(address(newPost));\n        return deployedPosts;\n    }\n\n    function getDeployedPosts() public view returns (address[] memory){\n        return deployedPosts;\n    }\n\n}\n\ncontract Post{\n\n    address tempAddress;\n    \n    address public manager;\n    string public name;\n    string public content;\n    \n    uint public total = 2000;\n    uint public yayprice;\n    uint public nayprice;\n    uint public yaycount = 0;\n    uint public naycount = 0;\n    mapping(address=>uint) public yays;\n    mapping(address=>uint) public nays;\n    address payable [] voted;\n    bool completed = false;\n    bool verdict;\n    uint balanceRef = 0;\n\n    \n    modifier active(){\n    \trequire(!completed);\n      _;\n    }\n\t\n  \tfunction complete() public payable{\n\n        if(msg.sender== tempAddress) {\n\t\t\tcompleted = true;\n            balanceRef = address(this).balance;\n            if(verdict==true){\n                for(uint i = 0; i < voted.length; i++){\n                    if(yays[voted[i]]>0){\n                        voted[i].transfer((yays[voted[i]]*balanceRef)/(yaycount)*95/100);\n                    }\n                }\n            }else{\n                for(uint i = 0; i < voted.length; i++){\n                    if(nays[voted[i]]>0){\n                        voted[i].transfer((nays[voted[i]]*balanceRef)/(naycount)*95/100);\n                    }\n                }\n            }\n        }\n    }\n \n    \n    function updateCost() public {\n        yayprice =  ((total *(yaycount+10))/(yaycount + naycount + 20));\n        nayprice = total - yayprice;\n        balanceRef = address(this).balance;\n    }\n    \n    function voteYay() public payable active{\n    \t\t\n        if(msg.sender == tempAddress){\n            verdict = true;\n            complete();\n        }else{\n        \tif(yays[msg.sender]==0 && nays[msg.sender]==0){\n          \t    voted.push(msg.sender);\n        \t}\n            require(msg.value>=yayprice);\n            require(yays[msg.sender]<=3);\n\n            yays[msg.sender]++;\n            yaycount++;\n            updateCost();\n        }       \n    }\n    \n    function voteNay() public payable {\n    \t\n      \t if(msg.sender==tempAddress){\n            verdict = false;\n            complete();\n        }else{\n        \tif(yays[msg.sender]==0 && nays[msg.sender]==0){\n          \t    voted.push(msg.sender);\n        \t}\n            require(msg.value>=nayprice);\n            require(nays[msg.sender]<=3);\n\n            nays[msg.sender]++;\n            naycount++;\n            updateCost();\n        }       \n    }\n\n    function getSummary() public view returns (address, string memory, string memory, uint, uint, uint, uint, bool, bool, uint){\n        return(address(this), name, content, yayprice, nayprice, yaycount, naycount, completed, verdict, balanceRef);\n    }\n    \n    \n    constructor(address manager_init, string memory content_init, string memory name_init) public {\n        name = name_init;\n        manager = manager_init;\n        tempAddress = manager;\n        content = content_init;\n    \tupdateCost();\n\t}\n    \n    \n}",
  "sourcePath": "/home/arvinth/projects/blockchain/spectrum/ethereum/contracts/Spectrum.sol",
  "compiler": {
    "name": "solc",
    "version": "0.6.0+commit.26b70077.Emscripten.clang"
  },
  "schemaVersion": "3.3.4",
  "updatedAt": "2021-03-06T17:54:12.990Z",
  "networkType": "ethereum",
  "devdoc": {
    "methods": {}
  },
  "userdoc": {
    "methods": {}
  }
}