{
  "contractName": "SpecChain",
  "abi": [
    {
      "anonymous": false,
      "inputs": [
        {
          "indexed": true,
          "internalType": "bytes32",
          "name": "id",
          "type": "bytes32"
        }
      ],
      "name": "ChainlinkCancelled",
      "type": "event"
    },
    {
      "anonymous": false,
      "inputs": [
        {
          "indexed": true,
          "internalType": "bytes32",
          "name": "id",
          "type": "bytes32"
        }
      ],
      "name": "ChainlinkFulfilled",
      "type": "event"
    },
    {
      "anonymous": false,
      "inputs": [
        {
          "indexed": true,
          "internalType": "bytes32",
          "name": "id",
          "type": "bytes32"
        }
      ],
      "name": "ChainlinkRequested",
      "type": "event"
    },
    {
      "inputs": [],
      "name": "content",
      "outputs": [
        {
          "internalType": "string",
          "name": "",
          "type": "string"
        }
      ],
      "stateMutability": "view",
      "type": "function"
    },
    {
      "inputs": [],
      "name": "data",
      "outputs": [
        {
          "internalType": "bytes32",
          "name": "",
          "type": "bytes32"
        }
      ],
      "stateMutability": "view",
      "type": "function"
    },
    {
      "inputs": [
        {
          "internalType": "bytes32",
          "name": "_requestId",
          "type": "bytes32"
        },
        {
          "internalType": "uint256",
          "name": "_volume",
          "type": "uint256"
        }
      ],
      "name": "fulfill",
      "outputs": [],
      "stateMutability": "nonpayable",
      "type": "function"
    },
    {
      "inputs": [],
      "name": "manager",
      "outputs": [
        {
          "internalType": "address",
          "name": "",
          "type": "address"
        }
      ],
      "stateMutability": "view",
      "type": "function"
    },
    {
      "inputs": [],
      "name": "name",
      "outputs": [
        {
          "internalType": "string",
          "name": "",
          "type": "string"
        }
      ],
      "stateMutability": "view",
      "type": "function"
    },
    {
      "inputs": [
        {
          "internalType": "string",
          "name": "url",
          "type": "string"
        }
      ],
      "name": "requestVolumeData",
      "outputs": [
        {
          "internalType": "bytes32",
          "name": "",
          "type": "bytes32"
        }
      ],
      "stateMutability": "nonpayable",
      "type": "function"
    },
    {
      "inputs": [],
      "name": "volume",
      "outputs": [
        {
          "internalType": "uint256",
          "name": "",
          "type": "uint256"
        }
      ],
      "stateMutability": "view",
      "type": "function"
    },
    {
      "inputs": [],
      "name": "getData",
      "outputs": [
        {
          "internalType": "bytes32",
          "name": "",
          "type": "bytes32"
        }
      ],
      "stateMutability": "nonpayable",
      "type": "function"
    }
  ],
  "bytecode": "0x6080604052600160045562000019620000d060201b60201c565b73c2d39d70fb75fb3d2a0e3a67b914bfd8a7e2964a600760006101000a81548173ffffffffffffffffffffffffffffffffffffffff021916908373ffffffffffffffffffffffffffffffffffffffff1602179055506040518060400160405280602081526020017f663835386539613037363730346330366137336135623536343737326465366681525060089080519060200190620000bb929190620001be565b5066b1a2bc2ec500006009819055506200026d565b6200017873c89bd4e1632d3a43cb03aaad5262cbe4038bc57173ffffffffffffffffffffffffffffffffffffffff166338cc48316040518163ffffffff1660e01b815260040160206040518083038186803b1580156200012f57600080fd5b505afa15801562000144573d6000803e3d6000fd5b505050506040513d60208110156200015b57600080fd5b81019080805190602001909291905050506200017a60201b60201c565b565b80600260006101000a81548173ffffffffffffffffffffffffffffffffffffffff021916908373ffffffffffffffffffffffffffffffffffffffff16021790555050565b828054600181600116156101000203166002900490600052602060002090601f016020900481019282601f106200020157805160ff191683800117855562000232565b8280016001018555821562000232579182015b828111156200023157825182559160200191906001019062000214565b5b50905062000241919062000245565b5090565b6200026a91905b80821115620002665760008160009055506001016200024c565b5090565b90565b6114ee806200027d6000396000f3fe608060405234801561001057600080fd5b50600436106100885760003560e01c80635f956d1a1161005b5780635f956d1a146101b057806373d4a13a1461027f5780638a4d5a671461029d578063c618a1e41461032057610088565b806306fdde031461008d5780633bc5de30146101105780634357855e1461012e578063481c6a7514610166575b600080fd5b61009561033e565b6040518080602001828103825283818151815260200191508051906020019080838360005b838110156100d55780820151818401526020810190506100ba565b50505050905090810190601f1680156101025780820380516001836020036101000a031916815260200191505b509250505060405180910390f35b6101186103dc565b6040518082815260200191505060405180910390f35b6101646004803603604081101561014457600080fd5b81019080803590602001909291908035906020019092919050505061040d565b005b61016e610534565b604051808273ffffffffffffffffffffffffffffffffffffffff1673ffffffffffffffffffffffffffffffffffffffff16815260200191505060405180910390f35b610269600480360360208110156101c657600080fd5b81019080803590602001906401000000008111156101e357600080fd5b8201836020820111156101f557600080fd5b8035906020019184600183028401116401000000008311171561021757600080fd5b91908080601f016020809104026020016040519081016040528093929190818152602001838380828437600081840152601f19601f82011690508083019250505050505050919291929050505061055a565b6040518082815260200191505060405180910390f35b610287610765565b6040518082815260200191505060405180910390f35b6102a561076b565b6040518080602001828103825283818151815260200191508051906020019080838360005b838110156102e55780820151818401526020810190506102ca565b50505050905090810190601f1680156103125780820380516001836020036101000a031916815260200191505b509250505060405180910390f35b610328610809565b6040518082815260200191505060405180910390f35b600b8054600181600116156101000203166002900480601f0160208091040260200160405190810160405280929190818152602001828054600181600116156101000203166002900480156103d45780601f106103a9576101008083540402835291602001916103d4565b820191906000526020600020905b8154815290600101906020018083116103b757829003601f168201915b505050505081565b60006103ff6040518060600160405280603f8152602001611452603f913961055a565b600d81905550600d54905090565b816005600082815260200190815260200160002060009054906101000a900473ffffffffffffffffffffffffffffffffffffffff1673ffffffffffffffffffffffffffffffffffffffff163373ffffffffffffffffffffffffffffffffffffffff16146104c5576040517f08c379a00000000000000000000000000000000000000000000000000000000081526004018080602001828103825260288152602001806114916028913960400191505060405180910390fd5b6005600082815260200190815260200160002060006101000a81549073ffffffffffffffffffffffffffffffffffffffff0219169055807f7cc135e0cebb02c3480ae5d74d377283180a2601f8f644edf7987b009316c63a60405160405180910390a281600681905550505050565b600a60009054906101000a900473ffffffffffffffffffffffffffffffffffffffff1681565b600061056461138d565b61061861060a60088054600181600116156101000203166002900480601f0160208091040260200160405190810160405280929190818152602001828054600181600116156101000203166002900480156106005780601f106105d557610100808354040283529160200191610600565b820191906000526020600020905b8154815290600101906020018083116105e357829003601f168201915b505050505061080f565b30634357855e60e01b61083a565b90506106646040518060400160405280600381526020017f6765740000000000000000000000000000000000000000000000000000000000815250848361086b9092919063ffffffff16565b6106e36040518060400160405280600481526020017f70617468000000000000000000000000000000000000000000000000000000008152506040518060400160405280600381526020017f55534400000000000000000000000000000000000000000000000000000000008152508361086b9092919063ffffffff16565b61072e6040518060400160405280600581526020017f74696d657300000000000000000000000000000000000000000000000000000081525060648361089e9092919063ffffffff16565b61075d600760009054906101000a900473ffffffffffffffffffffffffffffffffffffffff16826009546108d1565b915050919050565b600d5481565b600c8054600181600116156101000203166002900480601f0160208091040260200160405190810160405280929190818152602001828054600181600116156101000203166002900480156108015780601f106107d657610100808354040283529160200191610801565b820191906000526020600020905b8154815290600101906020018083116107e457829003601f168201915b505050505081565b60065481565b6000606082905060008151141561082c576000801b915050610835565b60208301519150505b919050565b61084261138d565b61084a61138d565b61086185858584610b89909392919063ffffffff16565b9150509392505050565b610882828460800151610c3990919063ffffffff16565b610899818460800151610c3990919063ffffffff16565b505050565b6108b5828460800151610c3990919063ffffffff16565b6108cc818460800151610c5e90919063ffffffff16565b505050565b600030600454604051602001808373ffffffffffffffffffffffffffffffffffffffff1673ffffffffffffffffffffffffffffffffffffffff1660601b815260140182815260200192505050604051602081830303815290604052805190602001209050600454836060018181525050836005600083815260200190815260200160002060006101000a81548173ffffffffffffffffffffffffffffffffffffffff021916908373ffffffffffffffffffffffffffffffffffffffff160217905550807fb5e6e01e79f91267dc17b4e6314d5d4d03593d2ceee0fbb452b750bd70ea5af960405160405180910390a2600260009054906101000a900473ffffffffffffffffffffffffffffffffffffffff1673ffffffffffffffffffffffffffffffffffffffff16634000aea08584610a0987610d02565b6040518463ffffffff1660e01b8152600401808473ffffffffffffffffffffffffffffffffffffffff1673ffffffffffffffffffffffffffffffffffffffff16815260200183815260200180602001828103825283818151815260200191508051906020019080838360005b83811015610a90578082015181840152602081019050610a75565b50505050905090810190601f168015610abd5780820380516001836020036101000a031916815260200191505b50945050505050602060405180830381600087803b158015610ade57600080fd5b505af1158015610af2573d6000803e3d6000fd5b505050506040513d6020811015610b0857600080fd5b8101908080519060200190929190505050610b6e576040517f08c379a000000000000000000000000000000000000000000000000000000000815260040180806020018281038252602381526020018061142f6023913960400191505060405180910390fd5b60016004600082825401925050819055508090509392505050565b610b9161138d565b610ba18560800151610100610f09565b508385600001818152505082856020019073ffffffffffffffffffffffffffffffffffffffff16908173ffffffffffffffffffffffffffffffffffffffff16815250508185604001907bffffffffffffffffffffffffffffffffffffffffffffffffffffffff191690817bffffffffffffffffffffffffffffffffffffffffffffffffffffffff191681525050849050949350505050565b610c468260038351610f5d565b610c5981836110a290919063ffffffff16565b505050565b7fffffffffffffffffffffffffffffffffffffffffffffffff0000000000000000811215610c9557610c9082826110c4565b610cfe565b67ffffffffffffffff811315610cb457610caf8282611132565b610cfd565b60008112610ccd57610cc882600083610f5d565b610cfc565b610cfb826001837fffffffffffffffffffffffffffffffffffffffffffffffffffffffffffffffff03610f5d565b5b5b5b5050565b6060600360009054906101000a900473ffffffffffffffffffffffffffffffffffffffff1673ffffffffffffffffffffffffffffffffffffffff166340429946905060e01b60008084600001518560200151866040015187606001516001896080015160000151604051602401808973ffffffffffffffffffffffffffffffffffffffff1673ffffffffffffffffffffffffffffffffffffffff1681526020018881526020018781526020018673ffffffffffffffffffffffffffffffffffffffff1673ffffffffffffffffffffffffffffffffffffffff168152602001857bffffffffffffffffffffffffffffffffffffffffffffffffffffffff19167bffffffffffffffffffffffffffffffffffffffffffffffffffffffff1916815260200184815260200183815260200180602001828103825283818151815260200191508051906020019080838360005b83811015610e6c578082015181840152602081019050610e51565b50505050905090810190601f168015610e995780820380516001836020036101000a031916815260200191505b509950505050505050505050604051602081830303815290604052907bffffffffffffffffffffffffffffffffffffffffffffffffffffffff19166020820180517bffffffffffffffffffffffffffffffffffffffffffffffffffffffff83818316178352505050509050919050565b610f116113fa565b600060208381610f1d57fe5b0614610f365760208281610f2d57fe5b06602003820191505b81836020018181525050604051808452600081528281016020016040525082905092915050565b60178111610f8a57610f848160058460ff16901b60ff16178461117e90919063ffffffff16565b5061109d565b60ff8111610fcc57610faf601860058460ff16901b178461117e90919063ffffffff16565b50610fc68160018561119e9092919063ffffffff16565b5061109c565b61ffff811161100f57610ff2601960058460ff16901b178461117e90919063ffffffff16565b506110098160028561119e9092919063ffffffff16565b5061109b565b63ffffffff811161105457611037601a60058460ff16901b178461117e90919063ffffffff16565b5061104e8160048561119e9092919063ffffffff16565b5061109a565b67ffffffffffffffff811161109957611080601b60058460ff16901b178461117e90919063ffffffff16565b506110978160088561119e9092919063ffffffff16565b505b5b5b5b5b505050565b6110aa6113fa565b6110bc838460000151518485516111c0565b905092915050565b6110e260036005600660ff16901b178361117e90919063ffffffff16565b5061112e82827fffffffffffffffffffffffffffffffffffffffffffffffffffffffffffffffff0360405160200180828152602001915050604051602081830303815290604052611279565b5050565b61115060026005600660ff16901b178361117e90919063ffffffff16565b5061117a828260405160200180828152602001915050604051602081830303815290604052611279565b5050565b6111866113fa565b611196838460000151518461129e565b905092915050565b6111a66113fa565b6111b78485600001515185856112ec565b90509392505050565b6111c86113fa565b82518211156111d657600080fd5b84602001518285011115611201576112008560026111fa886020015188870161134d565b02611369565b5b6000808651805187602083010193508088870111156112205787860182525b60208701925050505b6020841061124c5780518252602082019150602081019050602084039350611229565b60006001856020036101000a03905080198251168184511681811785525050879350505050949350505050565b6112868260028351610f5d565b61129981836110a290919063ffffffff16565b505050565b6112a66113fa565b836020015183106112c3576112c2846002866020015102611369565b5b83518051602085830101848153818614156112df576001820183525b5050508390509392505050565b6112f46113fa565b846020015184830111156113125761131185600286850102611369565b5b60006001836101000a039050855183868201018583198251161781528151858801111561133f5784870182525b505085915050949350505050565b60008183111561135f57829050611363565b8190505b92915050565b60608260000151905061137c8383610f09565b5061138783826110a2565b50505050565b6040518060a0016040528060008019168152602001600073ffffffffffffffffffffffffffffffffffffffff16815260200160007bffffffffffffffffffffffffffffffffffffffffffffffffffffffff19168152602001600081526020016113f4611414565b81525090565b604051806040016040528060608152602001600081525090565b60405180604001604052806060815260200160008152509056fe756e61626c6520746f207472616e73666572416e6443616c6c20746f206f7261636c6568747470733a2f2f6d696e2d6170692e63727970746f636f6d706172652e636f6d2f646174612f70726963653f6673796d3d455448267473796d733d555344536f75726365206d75737420626520746865206f7261636c65206f66207468652072657175657374a264697066735822122053d5aded970a10c3ffe946b026ee77b7a66e63c2072434b534e33be28018f4cd64736f6c63430006000033",
  "source": "//OM NAMO NARAYANA\n\npragma solidity ^0.6.0;\n\nimport \"@chainlink/contracts/src/v0.6/ChainlinkClient.sol\";\n\n\ncontract APIConsumer is ChainlinkClient {\n  \n    uint256 public volume;\n    address private oracle;\n    string private jobId;\n    uint256 private fee;\n\n\n    constructor() public {\n\n        setPublicChainlinkToken();\n        oracle = 0xC2d39d70fB75Fb3d2a0e3a67B914Bfd8A7e2964a;\n        jobId = \"f858e9a076704c06a73a5b564772de6f\";\n        fee = 0.05 * 10 ** 18; \n    }\n\n\n    function requestVolumeData(string memory url) public returns(bytes32)\n    {\n        Chainlink.Request memory request = buildChainlinkRequest(stringToBytes32(jobId), address(this), this.fulfill.selector);\n        request.add(\"get\", url);\n        request.add(\"path\", \"USD\");\n        request.addInt(\"times\", 100);\n        return sendChainlinkRequestTo(oracle, request, fee);\n    }\n\n    function fulfill(bytes32 _requestId, uint256 _volume) public recordChainlinkFulfillment(_requestId)\n    {\n        volume = _volume;\n    }\n    \n    function stringToBytes32(string memory source) private pure returns (bytes32 result) {\n    bytes memory tempEmptyStringTest = bytes(source);\n    if (tempEmptyStringTest.length == 0) {\n      return 0x0;\n    }\n    assembly { // solhint-disable-line no-inline-assembly\n      result := mload(add(source, 32))\n    }\n  }\n}\n\ncontract SpecChain is APIConsumer{\n    address public manager;\n    string public name;\n    string public content;\n    bytes32 public data;\n    function getData() public returns (bytes32){\n        data = requestVolumeData(\"https://min-api.cryptocompare.com/data/price?fsym=ETH&tsyms=USD\");\n        return data;\n    }\n}\n",
  "sourcePath": "/home/arvinth/projects/blockchain/spectrum/ethereum/contracts/SpecChain.sol",
  "compiler": {
    "name": "solc",
    "version": "0.6.0+commit.26b70077.Emscripten.clang"
  },
  "schemaVersion": "3.3.4",
  "updatedAt": "2021-03-07T12:05:54.556Z",
  "devdoc": {
    "methods": {}
  },
  "userdoc": {
    "methods": {}
  }
}