{
  "contractName": "Spectrum",
  "abi": [
    {
      "inputs": [],
      "stateMutability": "nonpayable",
      "type": "constructor"
    },
    {
      "inputs": [
        {
          "internalType": "uint256",
          "name": "",
          "type": "uint256"
        }
      ],
      "name": "deployedPosts",
      "outputs": [
        {
          "internalType": "address",
          "name": "",
          "type": "address"
        }
      ],
      "stateMutability": "view",
      "type": "function",
      "constant": true
    },
    {
      "inputs": [],
      "name": "createPost",
      "outputs": [
        {
          "internalType": "uint256",
          "name": "",
          "type": "uint256"
        }
      ],
      "stateMutability": "nonpayable",
      "type": "function"
    },
    {
      "inputs": [],
      "name": "getDeployedPosts",
      "outputs": [
        {
          "internalType": "uint256",
          "name": "",
          "type": "uint256"
        }
      ],
      "stateMutability": "view",
      "type": "function",
      "constant": true
    },
    {
      "inputs": [],
      "name": "returnContent",
      "outputs": [
        {
          "internalType": "string",
          "name": "",
          "type": "string"
        }
      ],
      "stateMutability": "view",
      "type": "function",
      "constant": true
    }
  ],
  "bytecode": "0x608060405234801561001057600080fd5b506040518060400160405280600281526020017f4f4d0000000000000000000000000000000000000000000000000000000000008152506001908051906020019061005c929190610062565b50610107565b828054600181600116156101000203166002900490600052602060002090601f016020900481019282601f106100a357805160ff19168380011785556100d1565b828001600101855582156100d1579182015b828111156100d05782518255916020019190600101906100b5565b5b5090506100de91906100e2565b5090565b61010491905b808211156101005760008160009055506001016100e8565b5090565b90565b6115d1806101166000396000f3fe608060405234801561001057600080fd5b506004361061004c5760003560e01c806345612d20146100515780639cd62aa81461006f578063c01c052d146100dd578063e87b1904146100fb575b600080fd5b61005961017e565b6040518082815260200191505060405180910390f35b61009b6004803603602081101561008557600080fd5b81019080803590602001909291905050506102dd565b604051808273ffffffffffffffffffffffffffffffffffffffff1673ffffffffffffffffffffffffffffffffffffffff16815260200191505060405180910390f35b6100e5610319565b6040518082815260200191505060405180910390f35b610103610325565b6040518080602001828103825283818151815260200191508051906020019080838360005b83811015610143578082015181840152602081019050610128565b50505050905090810190601f1680156101705780820380516001836020036101000a031916815260200191505b509250505060405180910390f35b600080336001604051610190906103c7565b808373ffffffffffffffffffffffffffffffffffffffff1673ffffffffffffffffffffffffffffffffffffffff168152602001806020018281038252838181546001816001161561010002031660029004815260200191508054600181600116156101000203166002900480156102485780601f1061021d57610100808354040283529160200191610248565b820191906000526020600020905b81548152906001019060200180831161022b57829003601f168201915b50509350505050604051809103906000f08015801561026b573d6000803e3d6000fd5b5090506000819080600181540180825580915050600190039060005260206000200160009091909190916101000a81548173ffffffffffffffffffffffffffffffffffffffff021916908373ffffffffffffffffffffffffffffffffffffffff16021790555060008054905091505090565b600081815481106102ea57fe5b906000526020600020016000915054906101000a900473ffffffffffffffffffffffffffffffffffffffff1681565b60008080549050905090565b606060018054600181600116156101000203166002900480601f0160208091040260200160405190810160405280929190818152602001828054600181600116156101000203166002900480156103bd5780601f10610392576101008083540402835291602001916103bd565b820191906000526020600020905b8154815290600101906020018083116103a057829003601f168201915b5050505050905090565b6111c7806103d58339019056fe60806040526002600455600060075560006008556000600c60006101000a81548160ff0219169083151502179055503480156200003b57600080fd5b50604051620011c7380380620011c7833981810160405260408110156200006157600080fd5b8101908080519060200190929190805160405193929190846401000000008211156200008c57600080fd5b83820191506020820185811115620000a357600080fd5b8251866001820283011164010000000082111715620000c157600080fd5b8083526020830192505050908051906020019080838360005b83811015620000f7578082015181840152602081019050620000da565b50505050905090810190601f168015620001255780820380516001836020036101000a031916815260200191505b5060405250505081600160006101000a81548173ffffffffffffffffffffffffffffffffffffffff021916908373ffffffffffffffffffffffffffffffffffffffff160217905550600160009054906101000a900473ffffffffffffffffffffffffffffffffffffffff166000806101000a81548173ffffffffffffffffffffffffffffffffffffffff021916908373ffffffffffffffffffffffffffffffffffffffff1602179055508060039080519060200190620001e792919062000232565b50620001f86200020060201b60201c565b5050620002e1565b60146008546007540101600a60075401816200021857fe5b046004540260058190555060075460045403600681905550565b828054600181600116156101000203166002900490600052602060002090601f016020900481019282601f106200027557805160ff1916838001178555620002a6565b82800160010185558215620002a6579182015b82811115620002a557825182559160200191906001019062000288565b5b509050620002b59190620002b9565b5090565b620002de91905b80821115620002da576000816000905550600101620002c0565b5090565b90565b610ed680620002f16000396000f3fe6080604052600436106100dd5760003560e01c80638b563f621161007f578063befa4bfb11610059578063befa4bfb1461035d578063c7af3dd114610388578063d6dd6c261461039f578063d716dd1a146103ca576100dd565b80638b563f62146102c35780639566eb69146102ee57806395d765e9146102f8576100dd565b8063481c6a75116100bb578063481c6a75146101a7578063522e1177146101fe5780637eb84be3146102085780638a4d5a6714610233576100dd565b806306fdde03146100e25780632ddbd13a1461017257806340b7cba61461019d575b600080fd5b3480156100ee57600080fd5b506100f761042f565b6040518080602001828103825283818151815260200191508051906020019080838360005b8381101561013757808201518184015260208101905061011c565b50505050905090810190601f1680156101645780820380516001836020036101000a031916815260200191505b509250505060405180910390f35b34801561017e57600080fd5b506101876104cd565b6040518082815260200191505060405180910390f35b6101a56104d3565b005b3480156101b357600080fd5b506101bc610722565b604051808273ffffffffffffffffffffffffffffffffffffffff1673ffffffffffffffffffffffffffffffffffffffff16815260200191505060405180910390f35b610206610748565b005b34801561021457600080fd5b5061021d610b20565b6040518082815260200191505060405180910390f35b34801561023f57600080fd5b50610248610b26565b6040518080602001828103825283818151815260200191508051906020019080838360005b8381101561028857808201518184015260208101905061026d565b50505050905090810190601f1680156102b55780820380516001836020036101000a031916815260200191505b509250505060405180910390f35b3480156102cf57600080fd5b506102d8610bc4565b6040518082815260200191505060405180910390f35b6102f6610bca565b005b34801561030457600080fd5b506103476004803603602081101561031b57600080fd5b81019080803573ffffffffffffffffffffffffffffffffffffffff169060200190929190505050610e33565b6040518082815260200191505060405180910390f35b34801561036957600080fd5b50610372610e4b565b6040518082815260200191505060405180910390f35b34801561039457600080fd5b5061039d610e51565b005b3480156103ab57600080fd5b506103b4610e82565b6040518082815260200191505060405180910390f35b3480156103d657600080fd5b50610419600480360360208110156103ed57600080fd5b81019080803573ffffffffffffffffffffffffffffffffffffffff169060200190929190505050610e88565b6040518082815260200191505060405180910390f35b60028054600181600116156101000203166002900480601f0160208091040260200160405190810160405280929190818152602001828054600181600116156101000203166002900480156104c55780601f1061049a576101008083540402835291602001916104c5565b820191906000526020600020905b8154815290600101906020018083116104a857829003601f168201915b505050505081565b60045481565b6000809054906101000a900473ffffffffffffffffffffffffffffffffffffffff1673ffffffffffffffffffffffffffffffffffffffff163373ffffffffffffffffffffffffffffffffffffffff161415610563576001600c60006101000a81548160ff0219169083151502179055506000600c60016101000a81548160ff021916908315150217905550610720565b6000600960003373ffffffffffffffffffffffffffffffffffffffff1673ffffffffffffffffffffffffffffffffffffffff168152602001908152602001600020541480156105f157506000600a60003373ffffffffffffffffffffffffffffffffffffffff1673ffffffffffffffffffffffffffffffffffffffff16815260200190815260200160002054145b1561065a57600b339080600181540180825580915050600190039060005260206000200160009091909190916101000a81548173ffffffffffffffffffffffffffffffffffffffff021916908373ffffffffffffffffffffffffffffffffffffffff1602179055505b60065434101561066957600080fd5b6003600a60003373ffffffffffffffffffffffffffffffffffffffff1673ffffffffffffffffffffffffffffffffffffffff1681526020019081526020016000205411156106b657600080fd5b600a60003373ffffffffffffffffffffffffffffffffffffffff1673ffffffffffffffffffffffffffffffffffffffff1681526020019081526020016000206000815480929190600101919050555060086000815480929190600101919050555061071f610e51565b5b565b600160009054906101000a900473ffffffffffffffffffffffffffffffffffffffff1681565b6000809054906101000a900473ffffffffffffffffffffffffffffffffffffffff1673ffffffffffffffffffffffffffffffffffffffff163373ffffffffffffffffffffffffffffffffffffffff16141561096e5760011515600c60019054906101000a900460ff16151514156109695760008090505b600b8054905081101561096757600060096000600b84815481106107df57fe5b9060005260206000200160009054906101000a900473ffffffffffffffffffffffffffffffffffffffff1673ffffffffffffffffffffffffffffffffffffffff1673ffffffffffffffffffffffffffffffffffffffff16815260200190815260200160002054111561095a57600b818154811061085857fe5b9060005260206000200160009054906101000a900473ffffffffffffffffffffffffffffffffffffffff1673ffffffffffffffffffffffffffffffffffffffff166108fc6064605f6007544760096000600b89815481106108b557fe5b9060005260206000200160009054906101000a900473ffffffffffffffffffffffffffffffffffffffff1673ffffffffffffffffffffffffffffffffffffffff1673ffffffffffffffffffffffffffffffffffffffff16815260200190815260200160002054028161092357fe5b04028161092c57fe5b049081150290604051600060405180830381858888f19350505050158015610958573d6000803e3d6000fd5b505b80806001019150506107bf565b505b610b1e565b60008090505b600b80549050811015610b1c576000600a6000600b848154811061099457fe5b9060005260206000200160009054906101000a900473ffffffffffffffffffffffffffffffffffffffff1673ffffffffffffffffffffffffffffffffffffffff1673ffffffffffffffffffffffffffffffffffffffff168152602001908152602001600020541115610b0f57600b8181548110610a0d57fe5b9060005260206000200160009054906101000a900473ffffffffffffffffffffffffffffffffffffffff1673ffffffffffffffffffffffffffffffffffffffff166108fc6064605f60085447600a6000600b8981548110610a6a57fe5b9060005260206000200160009054906101000a900473ffffffffffffffffffffffffffffffffffffffff1673ffffffffffffffffffffffffffffffffffffffff1673ffffffffffffffffffffffffffffffffffffffff168152602001908152602001600020540281610ad857fe5b040281610ae157fe5b049081150290604051600060405180830381858888f19350505050158015610b0d573d6000803e3d6000fd5b505b8080600101915050610974565b505b565b60085481565b60038054600181600116156101000203166002900480601f016020809104026020016040519081016040528092919081815260200182805460018160011615610100020316600290048015610bbc5780601f10610b9157610100808354040283529160200191610bbc565b820191906000526020600020905b815481529060010190602001808311610b9f57829003601f168201915b505050505081565b60065481565b600c60009054906101000a900460ff1615610be457600080fd5b6000809054906101000a900473ffffffffffffffffffffffffffffffffffffffff1673ffffffffffffffffffffffffffffffffffffffff163373ffffffffffffffffffffffffffffffffffffffff161415610c74576001600c60006101000a81548160ff0219169083151502179055506001600c60016101000a81548160ff021916908315150217905550610e31565b6000600960003373ffffffffffffffffffffffffffffffffffffffff1673ffffffffffffffffffffffffffffffffffffffff16815260200190815260200160002054148015610d0257506000600a60003373ffffffffffffffffffffffffffffffffffffffff1673ffffffffffffffffffffffffffffffffffffffff16815260200190815260200160002054145b15610d6b57600b339080600181540180825580915050600190039060005260206000200160009091909190916101000a81548173ffffffffffffffffffffffffffffffffffffffff021916908373ffffffffffffffffffffffffffffffffffffffff1602179055505b600554341015610d7a57600080fd5b6003600960003373ffffffffffffffffffffffffffffffffffffffff1673ffffffffffffffffffffffffffffffffffffffff168152602001908152602001600020541115610dc757600080fd5b600960003373ffffffffffffffffffffffffffffffffffffffff1673ffffffffffffffffffffffffffffffffffffffff16815260200190815260200160002060008154809291906001019190505550600760008154809291906001019190505550610e30610e51565b5b565b60096020528060005260406000206000915090505481565b60055481565b60146008546007540101600a6007540181610e6857fe5b046004540260058190555060075460045403600681905550565b60075481565b600a602052806000526040600020600091509050548156fea2646970667358221220121ce74fc2954cdb326db0108d26aff4096a8b6a3d6d72f55f65959a5a2f877c64736f6c63430006000033a2646970667358221220647d1c2fe1530712a4886a1061ee089b295bfded00ed1211e65991e5666621fa64736f6c63430006000033",
  "source": "pragma solidity ^0.6.0;\n\n\ncontract Spectrum{\n\n    address[] public deployedPosts;\n    string content;\n    \n    \n    //Pass post content and alias name as string. How??\n    \n    function createPost() public returns (uint ){\n        Post newPost = new Post(msg.sender, content);\n        deployedPosts.push(address(newPost));\n        return deployedPosts.length;\n    }\n\n    function getDeployedPosts() public view returns (uint){\n        return deployedPosts.length;\n    }\n\n    function returnContent() public view returns (string memory){\n        return content;\n    }\n\n    constructor()public{\n        content = \"OM\";\n    }\n}\n\ncontract Post{\n\n    // address tempAddress = address(keccak256(\"0x604BCD042D2d5B355ecE14B6aC3224d23F29a51c\"));//delete this\n    address tempAddress;\n    \n    address public manager;\n    string public name;\n    string public content;\n    \n    uint public total = 2;\n    uint public yayprice;\n    uint public nayprice;\n    uint public yaycount = 0;\n    uint public naycount = 0;\n    mapping(address=>uint) public yays;\n    mapping(address=>uint) public nays;\n    address payable [] voted;\n    bool completed = false;\n    bool verdict;\n\n    \n    modifier active(){\n    \trequire(!completed);\n      _;\n    }\n\t\n  \tfunction complete() public payable{\n\n        if(msg.sender== tempAddress) {\n            if(verdict==true){\n                for(uint i = 0; i < voted.length; i++){\n                    if(yays[voted[i]]>0){\n                        voted[i].transfer(yays[voted[i]]*address(this).balance/(yaycount)*95/100);\n                    }\n                }\n            }\n        }else{\n            for(uint i = 0; i < voted.length; i++){\n                if(nays[voted[i]]>0){\n                    voted[i].transfer(nays[voted[i]]*address(this).balance/(naycount)*95/100);\n                }\n            }\n        }\n    }\n \n    \n    function updateCost() public {\n        yayprice = total * ((yaycount+10)/(yaycount + naycount + 20));\n        nayprice = total - yaycount;\n    }\n    \n    function voteYay() public payable active{\n    \t\t\n        if(msg.sender == tempAddress){\n            completed = true;\n            verdict = true;\n        }else{\n        \tif(yays[msg.sender]==0 && nays[msg.sender]==0){\n          \t    voted.push(msg.sender);\n        \t}\n            require(msg.value>=yayprice);\n            require(yays[msg.sender]<=3);\n\n            yays[msg.sender]++;\n            yaycount++;\n            updateCost();\n        }       \n    }\n    \n    function voteNay() public payable {\n    \t\n      \t if(msg.sender==tempAddress){\n\t\t\tcompleted = true;\n            verdict = false;\n        }else{\n        \tif(yays[msg.sender]==0 && nays[msg.sender]==0){\n          \t    voted.push(msg.sender);\n        \t}\n            require(msg.value>=nayprice);\n            require(nays[msg.sender]<=3);\n\n            nays[msg.sender]++;\n            naycount++;\n            updateCost();\n        }       \n    }\n    \n    \n    constructor(address manager_init,string memory content_init) public {\n        manager = manager_init;\n        tempAddress = manager;\n        content = content_init;\n    \tupdateCost();\n\t}\n    \n    \n}",
  "sourcePath": "/home/arvinth/projects/blockchain/spectrum/ethereum/contracts/Spectrum.sol",
  "compiler": {
    "name": "solc",
    "version": "0.6.0+commit.26b70077.Emscripten.clang"
  },
  "schemaVersion": "3.3.4",
  "updatedAt": "2021-02-21T07:18:42.390Z",
  "networkType": "ethereum",
  "devdoc": {
    "methods": {}
  },
  "userdoc": {
    "methods": {}
  }
}