{
  "contractName": "Spectrum",
  "abi": [
    {
      "inputs": [
        {
          "internalType": "uint256",
          "name": "",
          "type": "uint256"
        }
      ],
      "name": "deployedPosts",
      "outputs": [
        {
          "internalType": "address",
          "name": "",
          "type": "address"
        }
      ],
      "stateMutability": "view",
      "type": "function"
    },
    {
      "inputs": [
        {
          "internalType": "string",
          "name": "content",
          "type": "string"
        },
        {
          "internalType": "string",
          "name": "name",
          "type": "string"
        },
        {
          "internalType": "string",
          "name": "thumbnail",
          "type": "string"
        }
      ],
      "name": "createPost",
      "outputs": [
        {
          "internalType": "address[]",
          "name": "",
          "type": "address[]"
        }
      ],
      "stateMutability": "nonpayable",
      "type": "function"
    },
    {
      "inputs": [],
      "name": "getDeployedPosts",
      "outputs": [
        {
          "internalType": "address[]",
          "name": "",
          "type": "address[]"
        }
      ],
      "stateMutability": "view",
      "type": "function"
    }
  ],
  "bytecode": "0x608060405234801561001057600080fd5b5061457a806100206000396000f3fe60806040523480156200001157600080fd5b5060043610620000465760003560e01c80639cd62aa8146200004b578063c01c052d14620000bc578063e8a4a1eb146200011f575b600080fd5b6200007a600480360360208110156200006357600080fd5b81019080803590602001909291905050506200036b565b604051808273ffffffffffffffffffffffffffffffffffffffff1673ffffffffffffffffffffffffffffffffffffffff16815260200191505060405180910390f35b620000c6620003a8565b6040518080602001828103825283818151815260200191508051906020019060200280838360005b838110156200010b578082015181840152602081019050620000ee565b505050509050019250505060405180910390f35b62000312600480360360608110156200013757600080fd5b81019080803590602001906401000000008111156200015557600080fd5b8201836020820111156200016857600080fd5b803590602001918460018302840111640100000000831117156200018b57600080fd5b91908080601f016020809104026020016040519081016040528093929190818152602001838380828437600081840152601f19601f82011690508083019250505050505050919291929080359060200190640100000000811115620001ef57600080fd5b8201836020820111156200020257600080fd5b803590602001918460018302840111640100000000831117156200022557600080fd5b91908080601f016020809104026020016040519081016040528093929190818152602001838380828437600081840152601f19601f820116905080830192505050505050509192919290803590602001906401000000008111156200028957600080fd5b8201836020820111156200029c57600080fd5b80359060200191846001830284011164010000000083111715620002bf57600080fd5b91908080601f016020809104026020016040519081016040528093929190818152602001838380828437600081840152601f19601f82011690508083019250505050505050919291929050505062000438565b6040518080602001828103825283818151815260200191508051906020019060200280838360005b83811015620003575780820151818401526020810190506200033a565b505050509050019250505060405180910390f35b600081815481106200037957fe5b906000526020600020016000915054906101000a900473ffffffffffffffffffffffffffffffffffffffff1681565b606060008054806020026020016040519081016040528092919081815260200182805480156200042e57602002820191906000526020600020905b8160009054906101000a900473ffffffffffffffffffffffffffffffffffffffff1673ffffffffffffffffffffffffffffffffffffffff1681526020019060010190808311620003e3575b5050505050905090565b60606000338585856040516200044e90620006e7565b808573ffffffffffffffffffffffffffffffffffffffff1673ffffffffffffffffffffffffffffffffffffffff168152602001806020018060200180602001848103845287818151815260200191508051906020019080838360005b83811015620004c7578082015181840152602081019050620004aa565b50505050905090810190601f168015620004f55780820380516001836020036101000a031916815260200191505b50848103835286818151815260200191508051906020019080838360005b838110156200053057808201518184015260208101905062000513565b50505050905090810190601f1680156200055e5780820380516001836020036101000a031916815260200191505b50848103825285818151815260200191508051906020019080838360005b83811015620005995780820151818401526020810190506200057c565b50505050905090810190601f168015620005c75780820380516001836020036101000a031916815260200191505b50975050505050505050604051809103906000f080158015620005ee573d6000803e3d6000fd5b5090506000819080600181540180825580915050600190039060005260206000200160009091909190916101000a81548173ffffffffffffffffffffffffffffffffffffffff021916908373ffffffffffffffffffffffffffffffffffffffff1602179055506000805480602002602001604051908101604052809291908181526020018280548015620006d857602002820191906000526020600020905b8160009054906101000a900473ffffffffffffffffffffffffffffffffffffffff1673ffffffffffffffffffffffffffffffffffffffff16815260200190600101908083116200068d575b50505050509150509392505050565b613e4f80620006f68339019056fe608060405266470de4df820000600455600060075560006008556000600c60006101000a81548160ff0219169083151502179055506000600d553480156200004657600080fd5b5060405162003e4f38038062003e4f833981810160405260808110156200006c57600080fd5b8101908080519060200190929190805160405193929190846401000000008211156200009757600080fd5b83820191506020820185811115620000ae57600080fd5b8251866001820283011164010000000082111715620000cc57600080fd5b8083526020830192505050908051906020019080838360005b8381101562000102578082015181840152602081019050620000e5565b50505050905090810190601f168015620001305780820380516001836020036101000a031916815260200191505b50604052602001805160405193929190846401000000008211156200015457600080fd5b838201915060208201858111156200016b57600080fd5b82518660018202830111640100000000821117156200018957600080fd5b8083526020830192505050908051906020019080838360005b83811015620001bf578082015181840152602081019050620001a2565b50505050905090810190601f168015620001ed5780820380516001836020036101000a031916815260200191505b50604052602001805160405193929190846401000000008211156200021157600080fd5b838201915060208201858111156200022857600080fd5b82518660018202830111640100000000821117156200024657600080fd5b8083526020830192505050908051906020019080838360005b838110156200027c5780820151818401526020810190506200025f565b50505050905090810190601f168015620002aa5780820380516001836020036101000a031916815260200191505b506040525050508160029080519060200190620002c992919062000509565b5083600160006101000a81548173ffffffffffffffffffffffffffffffffffffffff021916908373ffffffffffffffffffffffffffffffffffffffff160217905550600160009054906101000a900473ffffffffffffffffffffffffffffffffffffffff166000806101000a81548173ffffffffffffffffffffffffffffffffffffffff021916908373ffffffffffffffffffffffffffffffffffffffff16021790555082600390805190602001906200038592919062000509565b50600081604051620003979062000590565b8080602001828103825283818151815260200191508051906020019080838360005b83811015620003d6578082015181840152602081019050620003b9565b50505050905090810190601f168015620004045780820380516001836020036101000a031916815260200191505b5092505050604051809103906000f08015801562000426573d6000803e3d6000fd5b5090508073ffffffffffffffffffffffffffffffffffffffff16633bc5de306040518163ffffffff1660e01b8152600401602060405180830381600087803b1580156200047257600080fd5b505af115801562000487573d6000803e3d6000fd5b505050506040513d60208110156200049e57600080fd5b8101908080519060200190929190505050600f81905550620004c5620004d060201b60201c565b5050505050620005c6565b60146008546007540101600a600754016004540281620004ec57fe5b046005819055506005546004540360068190555047600d81905550565b828054600181600116156101000203166002900490600052602060002090601f016020900481019282601f106200054c57805160ff19168380011785556200057d565b828001600101855582156200057d579182015b828111156200057c5782518255916020019190600101906200055f565b5b5090506200058c91906200059e565b5090565b6124ab80620019a483390190565b620005c391905b80821115620005bf576000816000905550600101620005a5565b5090565b90565b6113ce80620005d66000396000f3fe60806040526004361061011f5760003560e01c80638b563f62116100a0578063b0acb3c911610064578063b0acb3c914610612578063befa4bfb1461063d578063c7af3dd114610668578063d6dd6c261461067f578063d716dd1a146106aa5761011f565b80638b563f62146104ce5780638fbb38ff146104f95780639566eb691461057457806395d765e91461057e5780639d9a7fe9146105e35761011f565b8063481c6a75116100e7578063481c6a7514610383578063522e1177146103da5780636aba253c146103e45780637eb84be3146104135780638a4d5a671461043e5761011f565b806306fdde03146101245780630ab0df87146101b45780632ddbd13a146101df5780634051ddac1461020a57806340b7cba614610379575b600080fd5b34801561013057600080fd5b5061013961070f565b6040518080602001828103825283818151815260200191508051906020019080838360005b8381101561017957808201518184015260208101905061015e565b50505050905090810190601f1680156101a65780820380516001836020036101000a031916815260200191505b509250505060405180910390f35b3480156101c057600080fd5b506101c96107ad565b6040518082815260200191505060405180910390f35b3480156101eb57600080fd5b506101f46107b3565b6040518082815260200191505060405180910390f35b34801561021657600080fd5b5061021f6107b9565b604051808c73ffffffffffffffffffffffffffffffffffffffff1673ffffffffffffffffffffffffffffffffffffffff16815260200180602001806020018b81526020018a8152602001898152602001888152602001871515151581526020018615151515815260200185815260200184815260200183810383528d818151815260200191508051906020019080838360005b838110156102cd5780820151818401526020810190506102b2565b50505050905090810190601f1680156102fa5780820380516001836020036101000a031916815260200191505b5083810382528c818151815260200191508051906020019080838360005b83811015610333578082015181840152602081019050610318565b50505050905090810190601f1680156103605780820380516001836020036101000a031916815260200191505b509d505050505050505050505050505060405180910390f35b61038161095c565b005b34801561038f57600080fd5b50610398610b98565b604051808273ffffffffffffffffffffffffffffffffffffffff1673ffffffffffffffffffffffffffffffffffffffff16815260200191505060405180910390f35b6103e2610bbe565b005b3480156103f057600080fd5b506103f9610fbc565b604051808215151515815260200191505060405180910390f35b34801561041f57600080fd5b50610428610fcf565b6040518082815260200191505060405180910390f35b34801561044a57600080fd5b50610453610fd5565b6040518080602001828103825283818151815260200191508051906020019080838360005b83811015610493578082015181840152602081019050610478565b50505050905090810190601f1680156104c05780820380516001836020036101000a031916815260200191505b509250505060405180910390f35b3480156104da57600080fd5b506104e3611073565b6040518082815260200191505060405180910390f35b34801561050557600080fd5b506105326004803603602081101561051c57600080fd5b8101908080359060200190929190505050611079565b604051808273ffffffffffffffffffffffffffffffffffffffff1673ffffffffffffffffffffffffffffffffffffffff16815260200191505060405180910390f35b61057c6110b5565b005b34801561058a57600080fd5b506105cd600480360360208110156105a157600080fd5b81019080803573ffffffffffffffffffffffffffffffffffffffff16906020019092919050505061130b565b6040518082815260200191505060405180910390f35b3480156105ef57600080fd5b506105f8611323565b604051808215151515815260200191505060405180910390f35b34801561061e57600080fd5b50610627611336565b6040518082815260200191505060405180910390f35b34801561064957600080fd5b5061065261133c565b6040518082815260200191505060405180910390f35b34801561067457600080fd5b5061067d611342565b005b34801561068b57600080fd5b5061069461137a565b6040518082815260200191505060405180910390f35b3480156106b657600080fd5b506106f9600480360360208110156106cd57600080fd5b81019080803573ffffffffffffffffffffffffffffffffffffffff169060200190929190505050611380565b6040518082815260200191505060405180910390f35b60028054600181600116156101000203166002900480601f0160208091040260200160405190810160405280929190818152602001828054600181600116156101000203166002900480156107a55780601f1061077a576101008083540402835291602001916107a5565b820191906000526020600020905b81548152906001019060200180831161078857829003601f168201915b505050505081565b600e5481565b60045481565b60006060806000806000806000806000803060026003600554600654600754600854600c60009054906101000a900460ff16600c60019054906101000a900460ff16600d54600f54898054600181600116156101000203166002900480601f0160208091040260200160405190810160405280929190818152602001828054600181600116156101000203166002900480156108965780601f1061086b57610100808354040283529160200191610896565b820191906000526020600020905b81548152906001019060200180831161087957829003601f168201915b50505050509950888054600181600116156101000203166002900480601f0160208091040260200160405190810160405280929190818152602001828054600181600116156101000203166002900480156109325780601f1061090757610100808354040283529160200191610932565b820191906000526020600020905b81548152906001019060200180831161091557829003601f168201915b505050505098509a509a509a509a509a509a509a509a509a509a509a50909192939495969798999a565b6000809054906101000a900473ffffffffffffffffffffffffffffffffffffffff1673ffffffffffffffffffffffffffffffffffffffff163373ffffffffffffffffffffffffffffffffffffffff1614156109d9576000600c60016101000a81548160ff0219169083151502179055506109d4610bbe565b610b96565b6000600960003373ffffffffffffffffffffffffffffffffffffffff1673ffffffffffffffffffffffffffffffffffffffff16815260200190815260200160002054148015610a6757506000600a60003373ffffffffffffffffffffffffffffffffffffffff1673ffffffffffffffffffffffffffffffffffffffff16815260200190815260200160002054145b15610ad057600b339080600181540180825580915050600190039060005260206000200160009091909190916101000a81548173ffffffffffffffffffffffffffffffffffffffff021916908373ffffffffffffffffffffffffffffffffffffffff1602179055505b600654341015610adf57600080fd5b6003600a60003373ffffffffffffffffffffffffffffffffffffffff1673ffffffffffffffffffffffffffffffffffffffff168152602001908152602001600020541115610b2c57600080fd5b600a60003373ffffffffffffffffffffffffffffffffffffffff1673ffffffffffffffffffffffffffffffffffffffff16815260200190815260200160002060008154809291906001019190505550600860008154809291906001019190505550610b95611342565b5b565b600160009054906101000a900473ffffffffffffffffffffffffffffffffffffffff1681565b6000809054906101000a900473ffffffffffffffffffffffffffffffffffffffff1673ffffffffffffffffffffffffffffffffffffffff163373ffffffffffffffffffffffffffffffffffffffff161415610fba576001600c60006101000a81548160ff02191690831515021790555047600d8190555060011515600c60019054906101000a900460ff1615151415610e075760008090505b600b80549050811015610e0157600060096000600b8481548110610c7757fe5b9060005260206000200160009054906101000a900473ffffffffffffffffffffffffffffffffffffffff1673ffffffffffffffffffffffffffffffffffffffff1673ffffffffffffffffffffffffffffffffffffffff168152602001908152602001600020541115610df457600b8181548110610cf057fe5b9060005260206000200160009054906101000a900473ffffffffffffffffffffffffffffffffffffffff1673ffffffffffffffffffffffffffffffffffffffff166108fc6064605f600754600d5460096000600b8981548110610d4f57fe5b9060005260206000200160009054906101000a900473ffffffffffffffffffffffffffffffffffffffff1673ffffffffffffffffffffffffffffffffffffffff1673ffffffffffffffffffffffffffffffffffffffff168152602001908152602001600020540281610dbd57fe5b040281610dc657fe5b049081150290604051600060405180830381858888f19350505050158015610df2573d6000803e3d6000fd5b505b8080600101915050610c57565b50610fb9565b60008090505b600b80549050811015610fb7576000600a6000600b8481548110610e2d57fe5b9060005260206000200160009054906101000a900473ffffffffffffffffffffffffffffffffffffffff1673ffffffffffffffffffffffffffffffffffffffff1673ffffffffffffffffffffffffffffffffffffffff168152602001908152602001600020541115610faa57600b8181548110610ea657fe5b9060005260206000200160009054906101000a900473ffffffffffffffffffffffffffffffffffffffff1673ffffffffffffffffffffffffffffffffffffffff166108fc6064605f600854600d54600a6000600b8981548110610f0557fe5b9060005260206000200160009054906101000a900473ffffffffffffffffffffffffffffffffffffffff1673ffffffffffffffffffffffffffffffffffffffff1673ffffffffffffffffffffffffffffffffffffffff168152602001908152602001600020540281610f7357fe5b040281610f7c57fe5b049081150290604051600060405180830381858888f19350505050158015610fa8573d6000803e3d6000fd5b505b8080600101915050610e0d565b505b5b565b600c60019054906101000a900460ff1681565b60085481565b60038054600181600116156101000203166002900480601f01602080910402602001604051908101604052809291908181526020018280546001816001161561010002031660029004801561106b5780601f106110405761010080835404028352916020019161106b565b820191906000526020600020905b81548152906001019060200180831161104e57829003601f168201915b505050505081565b60065481565b600b818154811061108657fe5b906000526020600020016000915054906101000a900473ffffffffffffffffffffffffffffffffffffffff1681565b600c60009054906101000a900460ff16156110cf57600080fd5b6000809054906101000a900473ffffffffffffffffffffffffffffffffffffffff1673ffffffffffffffffffffffffffffffffffffffff163373ffffffffffffffffffffffffffffffffffffffff16141561114c576001600c60016101000a81548160ff021916908315150217905550611147610bbe565b611309565b6000600960003373ffffffffffffffffffffffffffffffffffffffff1673ffffffffffffffffffffffffffffffffffffffff168152602001908152602001600020541480156111da57506000600a60003373ffffffffffffffffffffffffffffffffffffffff1673ffffffffffffffffffffffffffffffffffffffff16815260200190815260200160002054145b1561124357600b339080600181540180825580915050600190039060005260206000200160009091909190916101000a81548173ffffffffffffffffffffffffffffffffffffffff021916908373ffffffffffffffffffffffffffffffffffffffff1602179055505b60055434101561125257600080fd5b6003600960003373ffffffffffffffffffffffffffffffffffffffff1673ffffffffffffffffffffffffffffffffffffffff16815260200190815260200160002054111561129f57600080fd5b600960003373ffffffffffffffffffffffffffffffffffffffff1673ffffffffffffffffffffffffffffffffffffffff16815260200190815260200160002060008154809291906001019190505550600760008154809291906001019190505550611308611342565b5b565b60096020528060005260406000206000915090505481565b600c60009054906101000a900460ff1681565b600d5481565b60055481565b60146008546007540101600a60075401600454028161135d57fe5b046005819055506005546004540360068190555047600d81905550565b60075481565b600a602052806000526040600020600091509050548156fea2646970667358221220ac494d9a339a4c2283a1b7d5aa13d42c7ecbde2cca9714593eacda9ebf2eb54664736f6c63430006000033608060405260016004553480156200001657600080fd5b50604051620024ab380380620024ab833981810160405260208110156200003c57600080fd5b81019080805160405193929190846401000000008211156200005d57600080fd5b838201915060208201858111156200007457600080fd5b82518660018202830111640100000000821117156200009257600080fd5b8083526020830192505050908051906020019080838360005b83811015620000c8578082015181840152602081019050620000ab565b50505050905090810190601f168015620000f65780820380516001836020036101000a031916815260200191505b506040525050506200010d620001dc60201b60201c565b73c2d39d70fb75fb3d2a0e3a67b914bfd8a7e2964a600760006101000a81548173ffffffffffffffffffffffffffffffffffffffff021916908373ffffffffffffffffffffffffffffffffffffffff1602179055506040518060400160405280602081526020017f663835386539613037363730346330366137336135623536343737326465366681525060089080519060200190620001af929190620011df565b5066b1a2bc2ec50000600981905550620001cf816200028660201b60201c565b600a819055505062001331565b6200028473c89bd4e1632d3a43cb03aaad5262cbe4038bc57173ffffffffffffffffffffffffffffffffffffffff166338cc48316040518163ffffffff1660e01b815260040160206040518083038186803b1580156200023b57600080fd5b505afa15801562000250573d6000803e3d6000fd5b505050506040513d60208110156200026757600080fd5b8101908080519060200190929190505050620004c460201b60201c565b565b60006200029262001266565b6200035a6200034560088054600181600116156101000203166002900480601f016020809104026020016040519081016040528092919081815260200182805460018160011615610100020316600290048015620003345780601f10620003085761010080835404028352916020019162000334565b820191906000526020600020905b8154815290600101906020018083116200031657829003601f168201915b50505050506200050860201b60201c565b3063042f2b6560e01b6200053560201b60201c565b9050620003ad6040518060400160405280600381526020017f676574000000000000000000000000000000000000000000000000000000000081525084836200057160201b62000503179092919060201c565b620004336040518060400160405280600481526020017f70617468000000000000000000000000000000000000000000000000000000008152506040518060400160405280600381526020017f5553440000000000000000000000000000000000000000000000000000000000815250836200057160201b62000503179092919060201c565b620004856040518060400160405280600581526020017f74696d6573000000000000000000000000000000000000000000000000000000815250606483620005b260201b62000536179092919060201c565b620004bc600760009054906101000a900473ffffffffffffffffffffffffffffffffffffffff1682600954620005f360201b60201c565b915050919050565b80600260006101000a81548173ffffffffffffffffffffffffffffffffffffffff021916908373ffffffffffffffffffffffffffffffffffffffff16021790555050565b6000606082905060008151141562000527576000801b91505062000530565b60208301519150505b919050565b6200053f62001266565b6200054962001266565b6200056785858584620008bb60201b6200082117909392919060201c565b9150509392505050565b6200058f8284608001516200097a60201b620008d11790919060201c565b620005ad8184608001516200097a60201b620008d11790919060201c565b505050565b620005d08284608001516200097a60201b620008d11790919060201c565b620005ee818460800151620009ae60201b620008f61790919060201c565b505050565b600030600454604051602001808373ffffffffffffffffffffffffffffffffffffffff1673ffffffffffffffffffffffffffffffffffffffff1660601b815260140182815260200192505050604051602081830303815290604052805190602001209050600454836060018181525050836005600083815260200190815260200160002060006101000a81548173ffffffffffffffffffffffffffffffffffffffff021916908373ffffffffffffffffffffffffffffffffffffffff160217905550807fb5e6e01e79f91267dc17b4e6314d5d4d03593d2ceee0fbb452b750bd70ea5af960405160405180910390a2600260009054906101000a900473ffffffffffffffffffffffffffffffffffffffff1673ffffffffffffffffffffffffffffffffffffffff16634000aea08584620007338762000a7860201b60201c565b6040518463ffffffff1660e01b8152600401808473ffffffffffffffffffffffffffffffffffffffff1673ffffffffffffffffffffffffffffffffffffffff16815260200183815260200180602001828103825283818151815260200191508051906020019080838360005b83811015620007bc5780820151818401526020810190506200079f565b50505050905090810190601f168015620007ea5780820380516001836020036101000a031916815260200191505b50945050505050602060405180830381600087803b1580156200080c57600080fd5b505af115801562000821573d6000803e3d6000fd5b505050506040513d60208110156200083857600080fd5b8101908080519060200190929190505050620008a0576040517f08c379a0000000000000000000000000000000000000000000000000000000008152600401808060200182810382526023815260200180620024886023913960400191505060405180910390fd5b60016004600082825401925050819055508090509392505050565b620008c562001266565b620008e2856080015161010062000c8260201b62000ba11760201c565b508385600001818152505082856020019073ffffffffffffffffffffffffffffffffffffffff16908173ffffffffffffffffffffffffffffffffffffffff16815250508185604001907bffffffffffffffffffffffffffffffffffffffffffffffffffffffff191690817bffffffffffffffffffffffffffffffffffffffffffffffffffffffff191681525050849050949350505050565b6200098f826003835162000cdb60201b60201c565b620009a9818362000e6860201b62000d3a1790919060201c565b505050565b7fffffffffffffffffffffffffffffffffffffffffffffffff0000000000000000811215620009ef57620009e9828262000e9460201b60201c565b62000a74565b67ffffffffffffffff81131562000a185762000a12828262000f1160201b60201c565b62000a73565b6000811262000a3b5762000a358260008362000cdb60201b60201c565b62000a72565b62000a71826001837fffffffffffffffffffffffffffffffffffffffffffffffffffffffffffffffff0362000cdb60201b60201c565b5b5b5b5050565b6060600360009054906101000a900473ffffffffffffffffffffffffffffffffffffffff1673ffffffffffffffffffffffffffffffffffffffff166340429946905060e01b60008084600001518560200151866040015187606001516001896080015160000151604051602401808973ffffffffffffffffffffffffffffffffffffffff1673ffffffffffffffffffffffffffffffffffffffff1681526020018881526020018781526020018673ffffffffffffffffffffffffffffffffffffffff1673ffffffffffffffffffffffffffffffffffffffff168152602001857bffffffffffffffffffffffffffffffffffffffffffffffffffffffff19167bffffffffffffffffffffffffffffffffffffffffffffffffffffffff1916815260200184815260200183815260200180602001828103825283818151815260200191508051906020019080838360005b8381101562000be457808201518184015260208101905062000bc7565b50505050905090810190601f16801562000c125780820380516001836020036101000a031916815260200191505b509950505050505050505050604051602081830303815290604052907bffffffffffffffffffffffffffffffffffffffffffffffffffffffff19166020820180517bffffffffffffffffffffffffffffffffffffffffffffffffffffffff83818316178352505050509050919050565b62000c8c620012d5565b60006020838162000c9957fe5b061462000cb4576020828162000cab57fe5b06602003820191505b81836020018181525050604051808452600081528281016020016040525082905092915050565b6017811162000d115762000d0a8160058460ff16901b60ff16178462000f6c60201b62000e161790919060201c565b5062000e63565b60ff811162000d635762000d3e601860058460ff16901b178462000f6c60201b62000e161790919060201c565b5062000d5c8160018562000f9660201b62000e36179092919060201c565b5062000e62565b61ffff811162000db65762000d91601960058460ff16901b178462000f6c60201b62000e161790919060201c565b5062000daf8160028562000f9660201b62000e36179092919060201c565b5062000e61565b63ffffffff811162000e0b5762000de6601a60058460ff16901b178462000f6c60201b62000e161790919060201c565b5062000e048160048562000f9660201b62000e36179092919060201c565b5062000e60565b67ffffffffffffffff811162000e5f5762000e3f601b60058460ff16901b178462000f6c60201b62000e161790919060201c565b5062000e5d8160088562000f9660201b62000e36179092919060201c565b505b5b5b5b5b505050565b62000e72620012d5565b62000e8c8384600001515184855162000fc260201b60201c565b905092915050565b62000eb960036005600660ff16901b178362000f6c60201b62000e161790919060201c565b5062000f0d82827fffffffffffffffffffffffffffffffffffffffffffffffffffffffffffffffff03604051602001808281526020019150506040516020818303038152906040526200109260201b60201c565b5050565b62000f3660026005600660ff16901b178362000f6c60201b62000e161790919060201c565b5062000f688282604051602001808281526020019150506040516020818303038152906040526200109260201b60201c565b5050565b62000f76620012d5565b62000f8e8384600001515184620010c660201b60201c565b905092915050565b62000fa0620012d5565b62000fb98485600001515185856200112060201b60201c565b90509392505050565b62000fcc620012d5565b825182111562000fdb57600080fd5b846020015182850111156200101757620010168560026200100988602001518887016200118d60201b60201c565b02620011ab60201b60201c565b5b600080865180518760208301019350808887011115620010375787860182525b60208701925050505b6020841062001065578051825260208201915060208101905060208403935062001040565b60006001856020036101000a03905080198251168184511681811785525050879350505050949350505050565b620010a7826002835162000cdb60201b60201c565b620010c1818362000e6860201b62000d3a1790919060201c565b505050565b620010d0620012d5565b83602001518310620010f657620010f5846002866020015102620011ab60201b60201c565b5b835180516020858301018481538186141562001113576001820183525b5050508390509392505050565b6200112a620012d5565b8460200151848301111562001151576200115085600286850102620011ab60201b60201c565b5b60006001836101000a03905085518386820101858319825116178152815185880111156200117f5784870182525b505085915050949350505050565b600081831115620011a157829050620011a5565b8190505b92915050565b606082600001519050620011c6838362000c8260201b60201c565b50620011d9838262000e6860201b60201c565b50505050565b828054600181600116156101000203166002900490600052602060002090601f016020900481019282601f106200122257805160ff191683800117855562001253565b8280016001018555821562001253579182015b828111156200125257825182559160200191906001019062001235565b5b509050620012629190620012ef565b5090565b6040518060a0016040528060008019168152602001600073ffffffffffffffffffffffffffffffffffffffff16815260200160007bffffffffffffffffffffffffffffffffffffffffffffffffffffffff1916815260200160008152602001620012cf62001317565b81525090565b604051806040016040528060608152602001600081525090565b6200131491905b8082111562001310576000816000905550600101620012f6565b5090565b90565b604051806040016040528060608152602001600081525090565b61114780620013416000396000f3fe608060405234801561001057600080fd5b50600436106100415760003560e01c8063042f2b65146100465780633bc5de301461007e5780635f956d1a1461009c575b600080fd5b61007c6004803603604081101561005c57600080fd5b81019080803590602001909291908035906020019092919050505061016b565b005b610086610292565b6040518082815260200191505060405180910390f35b610155600480360360208110156100b257600080fd5b81019080803590602001906401000000008111156100cf57600080fd5b8201836020820111156100e157600080fd5b8035906020019184600183028401116401000000008311171561010357600080fd5b91908080601f016020809104026020016040519081016040528093929190818152602001838380828437600081840152601f19601f82011690508083019250505050505050919291929050505061029c565b6040518082815260200191505060405180910390f35b816005600082815260200190815260200160002060009054906101000a900473ffffffffffffffffffffffffffffffffffffffff1673ffffffffffffffffffffffffffffffffffffffff163373ffffffffffffffffffffffffffffffffffffffff1614610223576040517f08c379a00000000000000000000000000000000000000000000000000000000081526004018080602001828103825260288152602001806110ea6028913960400191505060405180910390fd5b6005600082815260200190815260200160002060006101000a81549073ffffffffffffffffffffffffffffffffffffffff0219169055807f7cc135e0cebb02c3480ae5d74d377283180a2601f8f644edf7987b009316c63a60405160405180910390a281600681905550505050565b6000600a54905090565b60006102a6611025565b61035a61034c60088054600181600116156101000203166002900480601f0160208091040260200160405190810160405280929190818152602001828054600181600116156101000203166002900480156103425780601f1061031757610100808354040283529160200191610342565b820191906000526020600020905b81548152906001019060200180831161032557829003601f168201915b50505050506104a7565b3063042f2b6560e01b6104d2565b90506103a66040518060400160405280600381526020017f676574000000000000000000000000000000000000000000000000000000000081525084836105039092919063ffffffff16565b6104256040518060400160405280600481526020017f70617468000000000000000000000000000000000000000000000000000000008152506040518060400160405280600381526020017f5553440000000000000000000000000000000000000000000000000000000000815250836105039092919063ffffffff16565b6104706040518060400160405280600581526020017f74696d65730000000000000000000000000000000000000000000000000000008152506064836105369092919063ffffffff16565b61049f600760009054906101000a900473ffffffffffffffffffffffffffffffffffffffff1682600954610569565b915050919050565b600060608290506000815114156104c4576000801b9150506104cd565b60208301519150505b919050565b6104da611025565b6104e2611025565b6104f985858584610821909392919063ffffffff16565b9150509392505050565b61051a8284608001516108d190919063ffffffff16565b6105318184608001516108d190919063ffffffff16565b505050565b61054d8284608001516108d190919063ffffffff16565b6105648184608001516108f690919063ffffffff16565b505050565b600030600454604051602001808373ffffffffffffffffffffffffffffffffffffffff1673ffffffffffffffffffffffffffffffffffffffff1660601b815260140182815260200192505050604051602081830303815290604052805190602001209050600454836060018181525050836005600083815260200190815260200160002060006101000a81548173ffffffffffffffffffffffffffffffffffffffff021916908373ffffffffffffffffffffffffffffffffffffffff160217905550807fb5e6e01e79f91267dc17b4e6314d5d4d03593d2ceee0fbb452b750bd70ea5af960405160405180910390a2600260009054906101000a900473ffffffffffffffffffffffffffffffffffffffff1673ffffffffffffffffffffffffffffffffffffffff16634000aea085846106a18761099a565b6040518463ffffffff1660e01b8152600401808473ffffffffffffffffffffffffffffffffffffffff1673ffffffffffffffffffffffffffffffffffffffff16815260200183815260200180602001828103825283818151815260200191508051906020019080838360005b8381101561072857808201518184015260208101905061070d565b50505050905090810190601f1680156107555780820380516001836020036101000a031916815260200191505b50945050505050602060405180830381600087803b15801561077657600080fd5b505af115801561078a573d6000803e3d6000fd5b505050506040513d60208110156107a057600080fd5b8101908080519060200190929190505050610806576040517f08c379a00000000000000000000000000000000000000000000000000000000081526004018080602001828103825260238152602001806110c76023913960400191505060405180910390fd5b60016004600082825401925050819055508090509392505050565b610829611025565b6108398560800151610100610ba1565b508385600001818152505082856020019073ffffffffffffffffffffffffffffffffffffffff16908173ffffffffffffffffffffffffffffffffffffffff16815250508185604001907bffffffffffffffffffffffffffffffffffffffffffffffffffffffff191690817bffffffffffffffffffffffffffffffffffffffffffffffffffffffff191681525050849050949350505050565b6108de8260038351610bf5565b6108f18183610d3a90919063ffffffff16565b505050565b7fffffffffffffffffffffffffffffffffffffffffffffffff000000000000000081121561092d576109288282610d5c565b610996565b67ffffffffffffffff81131561094c576109478282610dca565b610995565b600081126109655761096082600083610bf5565b610994565b610993826001837fffffffffffffffffffffffffffffffffffffffffffffffffffffffffffffffff03610bf5565b5b5b5b5050565b6060600360009054906101000a900473ffffffffffffffffffffffffffffffffffffffff1673ffffffffffffffffffffffffffffffffffffffff166340429946905060e01b60008084600001518560200151866040015187606001516001896080015160000151604051602401808973ffffffffffffffffffffffffffffffffffffffff1673ffffffffffffffffffffffffffffffffffffffff1681526020018881526020018781526020018673ffffffffffffffffffffffffffffffffffffffff1673ffffffffffffffffffffffffffffffffffffffff168152602001857bffffffffffffffffffffffffffffffffffffffffffffffffffffffff19167bffffffffffffffffffffffffffffffffffffffffffffffffffffffff1916815260200184815260200183815260200180602001828103825283818151815260200191508051906020019080838360005b83811015610b04578082015181840152602081019050610ae9565b50505050905090810190601f168015610b315780820380516001836020036101000a031916815260200191505b509950505050505050505050604051602081830303815290604052907bffffffffffffffffffffffffffffffffffffffffffffffffffffffff19166020820180517bffffffffffffffffffffffffffffffffffffffffffffffffffffffff83818316178352505050509050919050565b610ba9611092565b600060208381610bb557fe5b0614610bce5760208281610bc557fe5b06602003820191505b81836020018181525050604051808452600081528281016020016040525082905092915050565b60178111610c2257610c1c8160058460ff16901b60ff161784610e1690919063ffffffff16565b50610d35565b60ff8111610c6457610c47601860058460ff16901b1784610e1690919063ffffffff16565b50610c5e81600185610e369092919063ffffffff16565b50610d34565b61ffff8111610ca757610c8a601960058460ff16901b1784610e1690919063ffffffff16565b50610ca181600285610e369092919063ffffffff16565b50610d33565b63ffffffff8111610cec57610ccf601a60058460ff16901b1784610e1690919063ffffffff16565b50610ce681600485610e369092919063ffffffff16565b50610d32565b67ffffffffffffffff8111610d3157610d18601b60058460ff16901b1784610e1690919063ffffffff16565b50610d2f81600885610e369092919063ffffffff16565b505b5b5b5b5b505050565b610d42611092565b610d5483846000015151848551610e58565b905092915050565b610d7a60036005600660ff16901b1783610e1690919063ffffffff16565b50610dc682827fffffffffffffffffffffffffffffffffffffffffffffffffffffffffffffffff0360405160200180828152602001915050604051602081830303815290604052610f11565b5050565b610de860026005600660ff16901b1783610e1690919063ffffffff16565b50610e12828260405160200180828152602001915050604051602081830303815290604052610f11565b5050565b610e1e611092565b610e2e8384600001515184610f36565b905092915050565b610e3e611092565b610e4f848560000151518585610f84565b90509392505050565b610e60611092565b8251821115610e6e57600080fd5b84602001518285011115610e9957610e98856002610e928860200151888701610fe5565b02611001565b5b600080865180518760208301019350808887011115610eb85787860182525b60208701925050505b60208410610ee45780518252602082019150602081019050602084039350610ec1565b60006001856020036101000a03905080198251168184511681811785525050879350505050949350505050565b610f1e8260028351610bf5565b610f318183610d3a90919063ffffffff16565b505050565b610f3e611092565b83602001518310610f5b57610f5a846002866020015102611001565b5b8351805160208583010184815381861415610f77576001820183525b5050508390509392505050565b610f8c611092565b84602001518483011115610faa57610fa985600286850102611001565b5b60006001836101000a0390508551838682010185831982511617815281518588011115610fd75784870182525b505085915050949350505050565b600081831115610ff757829050610ffb565b8190505b92915050565b6060826000015190506110148383610ba1565b5061101f8382610d3a565b50505050565b6040518060a0016040528060008019168152602001600073ffffffffffffffffffffffffffffffffffffffff16815260200160007bffffffffffffffffffffffffffffffffffffffffffffffffffffffff191681526020016000815260200161108c6110ac565b81525090565b604051806040016040528060608152602001600081525090565b60405180604001604052806060815260200160008152509056fe756e61626c6520746f207472616e73666572416e6443616c6c20746f206f7261636c65536f75726365206d75737420626520746865206f7261636c65206f66207468652072657175657374a264697066735822122000360c19049da7802c4c657ed1e86a90900ecb31a2b7d689ee4872cc933389b264736f6c63430006000033756e61626c6520746f207472616e73666572416e6443616c6c20746f206f7261636c65a2646970667358221220ec77731187c8d76089de80e070746eb29d608c123f84dba29ce06d0b834f2e0364736f6c63430006000033",
  "source": "pragma solidity ^0.6.0;\r\n\r\n\r\nimport './SpecChain.sol';\r\n\r\ncontract Spectrum{\r\n\r\n    address[] public deployedPosts;\r\n    \r\n    function createPost(string memory content, string memory name, string memory thumbnail) public returns (address[] memory){\r\n        Post newPost = new Post(msg.sender, content, name, thumbnail);\r\n        deployedPosts.push(address(newPost));\r\n        return deployedPosts;\r\n    }\r\n\r\n    function getDeployedPosts() public view returns (address[] memory){\r\n        return deployedPosts;\r\n    }\r\n\r\n}\r\n\r\ncontract Post{\r\n\r\n    address tempAddress;\r\n    \r\n    address public manager;\r\n    string public name;\r\n    string public content;\r\n    \r\n    uint public total = 20000000000000000;\r\n    uint public yayprice;\r\n    uint public nayprice;\r\n    uint public yaycount = 0;\r\n    uint public naycount = 0;\r\n    mapping(address=>uint) public yays;\r\n    mapping(address=>uint) public nays;\r\n    address payable [] public voted;\r\n    bool public completed = false;\r\n    bool public verdict;\r\n    uint public balanceRef = 0;\r\n    uint public timeStamp;\r\n    bytes32 thumbnail;\r\n\r\n    \r\n    modifier active(){\r\n    \trequire(!completed);\r\n      _;\r\n    }\r\n\t\r\n  \tfunction complete() public payable{\r\n\r\n        if(msg.sender== tempAddress) {\r\n\t\t\tcompleted = true;\r\n            balanceRef = address(this).balance;\r\n            if(verdict==true){\r\n                for(uint i = 0; i < voted.length; i++){\r\n                    if(yays[voted[i]]>0){\r\n                        voted[i].transfer((yays[voted[i]]*balanceRef)/(yaycount)*95/100);\r\n                    }\r\n                }\r\n            }else{\r\n                for(uint i = 0; i < voted.length; i++){\r\n                    if(nays[voted[i]]>0){\r\n                        voted[i].transfer((nays[voted[i]]*balanceRef)/(naycount)*95/100);\r\n                    }\r\n                }\r\n            }\r\n        }\r\n    }\r\n \r\n    \r\n    function updateCost() public {\r\n        yayprice =  ((total *(yaycount+10))/(yaycount + naycount + 20));\r\n        nayprice = total - yayprice;\r\n        balanceRef = address(this).balance;\r\n    }\r\n    \r\n    function voteYay() public payable active{\r\n    \t\t\r\n        if(msg.sender == tempAddress){\r\n            verdict = true;\r\n            complete();\r\n        }else{\r\n        \tif(yays[msg.sender]==0 && nays[msg.sender]==0){\r\n          \t    voted.push(msg.sender);\r\n        \t}\r\n            require(msg.value>=yayprice);\r\n            require(yays[msg.sender]<=3);\r\n\r\n            yays[msg.sender]++;\r\n            yaycount++;\r\n            updateCost();\r\n        }       \r\n    }\r\n    \r\n    function voteNay() public payable {\r\n    \t\r\n      \t if(msg.sender==tempAddress){\r\n            verdict = false;\r\n            complete();\r\n        }else{\r\n        \tif(yays[msg.sender]==0 && nays[msg.sender]==0){\r\n          \t    voted.push(msg.sender);\r\n        \t}\r\n            require(msg.value>=nayprice);\r\n            require(nays[msg.sender]<=3);\r\n\r\n            nays[msg.sender]++;\r\n            naycount++;\r\n            updateCost();\r\n        }       \r\n    }\r\n\r\n    function getSummary() public view returns (address, string memory, string memory, uint, uint, uint, uint, bool, bool, uint, bytes32){\r\n        return(address(this), name, content, yayprice, nayprice, yaycount, naycount, completed, verdict, balanceRef, thumbnail);\r\n    }\r\n    \r\n    \r\n    constructor(address manager_init, string memory content_init, string memory name_init, string memory thumbnail_init) public {\r\n        name = name_init;\r\n        manager = manager_init;\r\n        tempAddress = manager;\r\n        content = content_init;\r\n        SpecChain sc = new SpecChain(thumbnail_init);\r\n        thumbnail = sc.getData();\r\n    \tupdateCost();\r\n\t}\r\n    \r\n    \r\n}",
  "sourcePath": "D:/projects/spectrum/ethereum/contracts/Spectrum.sol",
  "compiler": {
    "name": "solc",
    "version": "0.6.0+commit.26b70077.Emscripten.clang"
  },
  "schemaVersion": "3.3.4",
  "updatedAt": "2021-03-08T05:36:28.227Z",
  "devdoc": {
    "methods": {}
  },
  "userdoc": {
    "methods": {}
  }
}