{
  "contractName": "Spectrum",
  "abi": [
    {
      "inputs": [
        {
          "internalType": "uint256",
          "name": "",
          "type": "uint256"
        }
      ],
      "name": "deployedPosts",
      "outputs": [
        {
          "internalType": "address",
          "name": "",
          "type": "address"
        }
      ],
      "stateMutability": "view",
      "type": "function",
      "constant": true
    },
    {
      "inputs": [
        {
          "internalType": "string",
          "name": "content",
          "type": "string"
        },
        {
          "internalType": "string",
          "name": "name",
          "type": "string"
        }
      ],
      "name": "createPost",
      "outputs": [
        {
          "internalType": "address[]",
          "name": "",
          "type": "address[]"
        }
      ],
      "stateMutability": "nonpayable",
      "type": "function"
    },
    {
      "inputs": [],
      "name": "getDeployedPosts",
      "outputs": [
        {
          "internalType": "address[]",
          "name": "",
          "type": "address[]"
        }
      ],
      "stateMutability": "view",
      "type": "function",
      "constant": true
    }
  ],
  "bytecode": "0x608060405234801561001057600080fd5b50611d58806100206000396000f3fe608060405234801561001057600080fd5b50600436106100415760003560e01c8063392338f5146100465780639cd62aa8146101ed578063c01c052d1461025b575b600080fd5b6101966004803603604081101561005c57600080fd5b810190808035906020019064010000000081111561007957600080fd5b82018360208201111561008b57600080fd5b803590602001918460018302840111640100000000831117156100ad57600080fd5b91908080601f016020809104026020016040519081016040528093929190818152602001838380828437600081840152601f19601f8201169050808301925050505050505091929192908035906020019064010000000081111561011057600080fd5b82018360208201111561012257600080fd5b8035906020019184600183028401116401000000008311171561014457600080fd5b91908080601f016020809104026020016040519081016040528093929190818152602001838380828437600081840152601f19601f8201169050808301925050505050505091929192905050506102ba565b6040518080602001828103825283818151815260200191508051906020019060200280838360005b838110156101d95780820151818401526020810190506101be565b505050509050019250505060405180910390f35b6102196004803603602081101561020357600080fd5b81019080803590602001909291905050506104ed565b604051808273ffffffffffffffffffffffffffffffffffffffff1673ffffffffffffffffffffffffffffffffffffffff16815260200191505060405180910390f35b610263610529565b6040518080602001828103825283818151815260200191508051906020019060200280838360005b838110156102a657808201518184015260208101905061028b565b505050509050019250505060405180910390f35b606060003384846040516102cd906105b7565b808473ffffffffffffffffffffffffffffffffffffffff1673ffffffffffffffffffffffffffffffffffffffff1681526020018060200180602001838103835285818151815260200191508051906020019080838360005b83811015610340578082015181840152602081019050610325565b50505050905090810190601f16801561036d5780820380516001836020036101000a031916815260200191505b50838103825284818151815260200191508051906020019080838360005b838110156103a657808201518184015260208101905061038b565b50505050905090810190601f1680156103d35780820380516001836020036101000a031916815260200191505b5095505050505050604051809103906000f0801580156103f7573d6000803e3d6000fd5b5090506000819080600181540180825580915050600190039060005260206000200160009091909190916101000a81548173ffffffffffffffffffffffffffffffffffffffff021916908373ffffffffffffffffffffffffffffffffffffffff16021790555060008054806020026020016040519081016040528092919081815260200182805480156104df57602002820191906000526020600020905b8160009054906101000a900473ffffffffffffffffffffffffffffffffffffffff1673ffffffffffffffffffffffffffffffffffffffff1681526020019060010190808311610495575b505050505091505092915050565b600081815481106104fa57fe5b906000526020600020016000915054906101000a900473ffffffffffffffffffffffffffffffffffffffff1681565b606060008054806020026020016040519081016040528092919081815260200182805480156105ad57602002820191906000526020600020905b8160009054906101000a900473ffffffffffffffffffffffffffffffffffffffff1673ffffffffffffffffffffffffffffffffffffffff1681526020019060010190808311610563575b5050505050905090565b61175e806105c58339019056fe608060405266470de4df820000600455600060075560006008556000600c60006101000a81548160ff0219169083151502179055506000600d553480156200004657600080fd5b506040516200175e3803806200175e833981810160405260608110156200006c57600080fd5b8101908080519060200190929190805160405193929190846401000000008211156200009757600080fd5b83820191506020820185811115620000ae57600080fd5b8251866001820283011164010000000082111715620000cc57600080fd5b8083526020830192505050908051906020019080838360005b8381101562000102578082015181840152602081019050620000e5565b50505050905090810190601f168015620001305780820380516001836020036101000a031916815260200191505b50604052602001805160405193929190846401000000008211156200015457600080fd5b838201915060208201858111156200016b57600080fd5b82518660018202830111640100000000821117156200018957600080fd5b8083526020830192505050908051906020019080838360005b83811015620001bf578082015181840152602081019050620001a2565b50505050905090810190601f168015620001ed5780820380516001836020036101000a031916815260200191505b5060405250505080600290805190602001906200020c9291906200031b565b5082600160006101000a81548173ffffffffffffffffffffffffffffffffffffffff021916908373ffffffffffffffffffffffffffffffffffffffff160217905550600160009054906101000a900473ffffffffffffffffffffffffffffffffffffffff166000806101000a81548173ffffffffffffffffffffffffffffffffffffffff021916908373ffffffffffffffffffffffffffffffffffffffff1602179055508160039080519060200190620002c89291906200031b565b50620002d9620002e260201b60201c565b505050620003ca565b60146008546007540101600a600754016004540281620002fe57fe5b046005819055506005546004540360068190555047600d81905550565b828054600181600116156101000203166002900490600052602060002090601f016020900481019282601f106200035e57805160ff19168380011785556200038f565b828001600101855582156200038f579182015b828111156200038e57825182559160200191906001019062000371565b5b5090506200039e9190620003a2565b5090565b620003c791905b80821115620003c3576000816000905550600101620003a9565b5090565b90565b61138480620003da6000396000f3fe6080604052600436106101145760003560e01c80638b563f62116100a0578063b0acb3c911610064578063b0acb3c9146105d5578063befa4bfb14610600578063c7af3dd11461062b578063d6dd6c2614610642578063d716dd1a1461066d57610114565b80638b563f62146104915780638fbb38ff146104bc5780639566eb691461053757806395d765e9146105415780639d9a7fe9146105a657610114565b8063481c6a75116100e7578063481c6a7514610346578063522e11771461039d5780636aba253c146103a75780637eb84be3146103d65780638a4d5a671461040157610114565b806306fdde03146101195780632ddbd13a146101a95780634051ddac146101d457806340b7cba61461033c575b600080fd5b34801561012557600080fd5b5061012e6106d2565b6040518080602001828103825283818151815260200191508051906020019080838360005b8381101561016e578082015181840152602081019050610153565b50505050905090810190601f16801561019b5780820380516001836020036101000a031916815260200191505b509250505060405180910390f35b3480156101b557600080fd5b506101be610770565b6040518082815260200191505060405180910390f35b3480156101e057600080fd5b506101e9610776565b604051808b73ffffffffffffffffffffffffffffffffffffffff1673ffffffffffffffffffffffffffffffffffffffff16815260200180602001806020018a8152602001898152602001888152602001878152602001861515151581526020018515151515815260200184815260200183810383528c818151815260200191508051906020019080838360005b83811015610291578082015181840152602081019050610276565b50505050905090810190601f1680156102be5780820380516001836020036101000a031916815260200191505b5083810382528b818151815260200191508051906020019080838360005b838110156102f75780820151818401526020810190506102dc565b50505050905090810190601f1680156103245780820380516001836020036101000a031916815260200191505b509c5050505050505050505050505060405180910390f35b610344610912565b005b34801561035257600080fd5b5061035b610b4e565b604051808273ffffffffffffffffffffffffffffffffffffffff1673ffffffffffffffffffffffffffffffffffffffff16815260200191505060405180910390f35b6103a5610b74565b005b3480156103b357600080fd5b506103bc610f72565b604051808215151515815260200191505060405180910390f35b3480156103e257600080fd5b506103eb610f85565b6040518082815260200191505060405180910390f35b34801561040d57600080fd5b50610416610f8b565b6040518080602001828103825283818151815260200191508051906020019080838360005b8381101561045657808201518184015260208101905061043b565b50505050905090810190601f1680156104835780820380516001836020036101000a031916815260200191505b509250505060405180910390f35b34801561049d57600080fd5b506104a6611029565b6040518082815260200191505060405180910390f35b3480156104c857600080fd5b506104f5600480360360208110156104df57600080fd5b810190808035906020019092919050505061102f565b604051808273ffffffffffffffffffffffffffffffffffffffff1673ffffffffffffffffffffffffffffffffffffffff16815260200191505060405180910390f35b61053f61106b565b005b34801561054d57600080fd5b506105906004803603602081101561056457600080fd5b81019080803573ffffffffffffffffffffffffffffffffffffffff1690602001909291905050506112c1565b6040518082815260200191505060405180910390f35b3480156105b257600080fd5b506105bb6112d9565b604051808215151515815260200191505060405180910390f35b3480156105e157600080fd5b506105ea6112ec565b6040518082815260200191505060405180910390f35b34801561060c57600080fd5b506106156112f2565b6040518082815260200191505060405180910390f35b34801561063757600080fd5b506106406112f8565b005b34801561064e57600080fd5b50610657611330565b6040518082815260200191505060405180910390f35b34801561067957600080fd5b506106bc6004803603602081101561069057600080fd5b81019080803573ffffffffffffffffffffffffffffffffffffffff169060200190929190505050611336565b6040518082815260200191505060405180910390f35b60028054600181600116156101000203166002900480601f0160208091040260200160405190810160405280929190818152602001828054600181600116156101000203166002900480156107685780601f1061073d57610100808354040283529160200191610768565b820191906000526020600020905b81548152906001019060200180831161074b57829003601f168201915b505050505081565b60045481565b600060608060008060008060008060003060026003600554600654600754600854600c60009054906101000a900460ff16600c60019054906101000a900460ff16600d54888054600181600116156101000203166002900480601f01602080910402602001604051908101604052809291908181526020018280546001816001161561010002031660029004801561084f5780601f106108245761010080835404028352916020019161084f565b820191906000526020600020905b81548152906001019060200180831161083257829003601f168201915b50505050509850878054600181600116156101000203166002900480601f0160208091040260200160405190810160405280929190818152602001828054600181600116156101000203166002900480156108eb5780601f106108c0576101008083540402835291602001916108eb565b820191906000526020600020905b8154815290600101906020018083116108ce57829003601f168201915b50505050509750995099509950995099509950995099509950995090919293949596979899565b6000809054906101000a900473ffffffffffffffffffffffffffffffffffffffff1673ffffffffffffffffffffffffffffffffffffffff163373ffffffffffffffffffffffffffffffffffffffff16141561098f576000600c60016101000a81548160ff02191690831515021790555061098a610b74565b610b4c565b6000600960003373ffffffffffffffffffffffffffffffffffffffff1673ffffffffffffffffffffffffffffffffffffffff16815260200190815260200160002054148015610a1d57506000600a60003373ffffffffffffffffffffffffffffffffffffffff1673ffffffffffffffffffffffffffffffffffffffff16815260200190815260200160002054145b15610a8657600b339080600181540180825580915050600190039060005260206000200160009091909190916101000a81548173ffffffffffffffffffffffffffffffffffffffff021916908373ffffffffffffffffffffffffffffffffffffffff1602179055505b600654341015610a9557600080fd5b6003600a60003373ffffffffffffffffffffffffffffffffffffffff1673ffffffffffffffffffffffffffffffffffffffff168152602001908152602001600020541115610ae257600080fd5b600a60003373ffffffffffffffffffffffffffffffffffffffff1673ffffffffffffffffffffffffffffffffffffffff16815260200190815260200160002060008154809291906001019190505550600860008154809291906001019190505550610b4b6112f8565b5b565b600160009054906101000a900473ffffffffffffffffffffffffffffffffffffffff1681565b6000809054906101000a900473ffffffffffffffffffffffffffffffffffffffff1673ffffffffffffffffffffffffffffffffffffffff163373ffffffffffffffffffffffffffffffffffffffff161415610f70576001600c60006101000a81548160ff02191690831515021790555047600d8190555060011515600c60019054906101000a900460ff1615151415610dbd5760008090505b600b80549050811015610db757600060096000600b8481548110610c2d57fe5b9060005260206000200160009054906101000a900473ffffffffffffffffffffffffffffffffffffffff1673ffffffffffffffffffffffffffffffffffffffff1673ffffffffffffffffffffffffffffffffffffffff168152602001908152602001600020541115610daa57600b8181548110610ca657fe5b9060005260206000200160009054906101000a900473ffffffffffffffffffffffffffffffffffffffff1673ffffffffffffffffffffffffffffffffffffffff166108fc6064605f600754600d5460096000600b8981548110610d0557fe5b9060005260206000200160009054906101000a900473ffffffffffffffffffffffffffffffffffffffff1673ffffffffffffffffffffffffffffffffffffffff1673ffffffffffffffffffffffffffffffffffffffff168152602001908152602001600020540281610d7357fe5b040281610d7c57fe5b049081150290604051600060405180830381858888f19350505050158015610da8573d6000803e3d6000fd5b505b8080600101915050610c0d565b50610f6f565b60008090505b600b80549050811015610f6d576000600a6000600b8481548110610de357fe5b9060005260206000200160009054906101000a900473ffffffffffffffffffffffffffffffffffffffff1673ffffffffffffffffffffffffffffffffffffffff1673ffffffffffffffffffffffffffffffffffffffff168152602001908152602001600020541115610f6057600b8181548110610e5c57fe5b9060005260206000200160009054906101000a900473ffffffffffffffffffffffffffffffffffffffff1673ffffffffffffffffffffffffffffffffffffffff166108fc6064605f600854600d54600a6000600b8981548110610ebb57fe5b9060005260206000200160009054906101000a900473ffffffffffffffffffffffffffffffffffffffff1673ffffffffffffffffffffffffffffffffffffffff1673ffffffffffffffffffffffffffffffffffffffff168152602001908152602001600020540281610f2957fe5b040281610f3257fe5b049081150290604051600060405180830381858888f19350505050158015610f5e573d6000803e3d6000fd5b505b8080600101915050610dc3565b505b5b565b600c60019054906101000a900460ff1681565b60085481565b60038054600181600116156101000203166002900480601f0160208091040260200160405190810160405280929190818152602001828054600181600116156101000203166002900480156110215780601f10610ff657610100808354040283529160200191611021565b820191906000526020600020905b81548152906001019060200180831161100457829003601f168201915b505050505081565b60065481565b600b818154811061103c57fe5b906000526020600020016000915054906101000a900473ffffffffffffffffffffffffffffffffffffffff1681565b600c60009054906101000a900460ff161561108557600080fd5b6000809054906101000a900473ffffffffffffffffffffffffffffffffffffffff1673ffffffffffffffffffffffffffffffffffffffff163373ffffffffffffffffffffffffffffffffffffffff161415611102576001600c60016101000a81548160ff0219169083151502179055506110fd610b74565b6112bf565b6000600960003373ffffffffffffffffffffffffffffffffffffffff1673ffffffffffffffffffffffffffffffffffffffff1681526020019081526020016000205414801561119057506000600a60003373ffffffffffffffffffffffffffffffffffffffff1673ffffffffffffffffffffffffffffffffffffffff16815260200190815260200160002054145b156111f957600b339080600181540180825580915050600190039060005260206000200160009091909190916101000a81548173ffffffffffffffffffffffffffffffffffffffff021916908373ffffffffffffffffffffffffffffffffffffffff1602179055505b60055434101561120857600080fd5b6003600960003373ffffffffffffffffffffffffffffffffffffffff1673ffffffffffffffffffffffffffffffffffffffff16815260200190815260200160002054111561125557600080fd5b600960003373ffffffffffffffffffffffffffffffffffffffff1673ffffffffffffffffffffffffffffffffffffffff168152602001908152602001600020600081548092919060010191905055506007600081548092919060010191905055506112be6112f8565b5b565b60096020528060005260406000206000915090505481565b600c60009054906101000a900460ff1681565b600d5481565b60055481565b60146008546007540101600a60075401600454028161131357fe5b046005819055506005546004540360068190555047600d81905550565b60075481565b600a602052806000526040600020600091509050548156fea264697066735822122025e1c002e6b40eaec5cb584b5b2fd3dd71dc525a49290fa0efac0215cf82d50564736f6c63430006000033a2646970667358221220015329575471280b81fc1de9e4b60c9ce45bdab4385c32bc325d8aa3b96ad11464736f6c63430006000033",
  "source": "pragma solidity ^0.6.0;\r\n\r\n\r\ncontract Spectrum{\r\n\r\n    address[] public deployedPosts;\r\n    \r\n    function createPost(string memory content, string memory name) public returns (address[] memory){\r\n        Post newPost = new Post(msg.sender, content, name);\r\n        deployedPosts.push(address(newPost));\r\n        return deployedPosts;\r\n    }\r\n\r\n    function getDeployedPosts() public view returns (address[] memory){\r\n        return deployedPosts;\r\n    }\r\n\r\n}\r\n\r\ncontract Post{\r\n\r\n    address tempAddress;\r\n    \r\n    address public manager;\r\n    string public name;\r\n    string public content;\r\n    \r\n    uint public total = 20000000000000000;\r\n    uint public yayprice;\r\n    uint public nayprice;\r\n    uint public yaycount = 0;\r\n    uint public naycount = 0;\r\n    mapping(address=>uint) public yays;\r\n    mapping(address=>uint) public nays;\r\n    address payable [] public voted;\r\n    bool public completed = false;\r\n    bool public verdict;\r\n    uint public balanceRef = 0;\r\n\r\n    \r\n    modifier active(){\r\n    \trequire(!completed);\r\n      _;\r\n    }\r\n\t\r\n  \tfunction complete() public payable{\r\n\r\n        if(msg.sender== tempAddress) {\r\n\t\t\tcompleted = true;\r\n            balanceRef = address(this).balance;\r\n            if(verdict==true){\r\n                for(uint i = 0; i < voted.length; i++){\r\n                    if(yays[voted[i]]>0){\r\n                        voted[i].transfer((yays[voted[i]]*balanceRef)/(yaycount)*95/100);\r\n                    }\r\n                }\r\n            }else{\r\n                for(uint i = 0; i < voted.length; i++){\r\n                    if(nays[voted[i]]>0){\r\n                        voted[i].transfer((nays[voted[i]]*balanceRef)/(naycount)*95/100);\r\n                    }\r\n                }\r\n            }\r\n        }\r\n    }\r\n \r\n    \r\n    function updateCost() public {\r\n        yayprice =  ((total *(yaycount+10))/(yaycount + naycount + 20));\r\n        nayprice = total - yayprice;\r\n        balanceRef = address(this).balance;\r\n    }\r\n    \r\n    function voteYay() public payable active{\r\n    \t\t\r\n        if(msg.sender == tempAddress){\r\n            verdict = true;\r\n            complete();\r\n        }else{\r\n        \tif(yays[msg.sender]==0 && nays[msg.sender]==0){\r\n          \t    voted.push(msg.sender);\r\n        \t}\r\n            require(msg.value>=yayprice);\r\n            require(yays[msg.sender]<=3);\r\n\r\n            yays[msg.sender]++;\r\n            yaycount++;\r\n            updateCost();\r\n        }       \r\n    }\r\n    \r\n    function voteNay() public payable {\r\n    \t\r\n      \t if(msg.sender==tempAddress){\r\n            verdict = false;\r\n            complete();\r\n        }else{\r\n        \tif(yays[msg.sender]==0 && nays[msg.sender]==0){\r\n          \t    voted.push(msg.sender);\r\n        \t}\r\n            require(msg.value>=nayprice);\r\n            require(nays[msg.sender]<=3);\r\n\r\n            nays[msg.sender]++;\r\n            naycount++;\r\n            updateCost();\r\n        }       \r\n    }\r\n\r\n    function getSummary() public view returns (address, string memory, string memory, uint, uint, uint, uint, bool, bool, uint){\r\n        return(address(this), name, content, yayprice, nayprice, yaycount, naycount, completed, verdict, balanceRef);\r\n    }\r\n    \r\n    \r\n    constructor(address manager_init, string memory content_init, string memory name_init) public {\r\n        name = name_init;\r\n        manager = manager_init;\r\n        tempAddress = manager;\r\n        content = content_init;\r\n    \tupdateCost();\r\n\t}\r\n    \r\n    \r\n}",
  "sourcePath": "D:/blockchain/spectrum/ethereum/contracts/Spectrum.sol",
  "compiler": {
    "name": "solc",
    "version": "0.6.0+commit.26b70077.Emscripten.clang"
  },
  "schemaVersion": "3.3.4",
  "updatedAt": "2021-03-06T18:52:00.551Z",
  "networkType": "ethereum",
  "devdoc": {
    "methods": {}
  },
  "userdoc": {
    "methods": {}
  }
}