{
  "contractName": "Spectrum",
  "abi": [
    {
      "inputs": [
        {
          "internalType": "string",
          "name": "content_init",
          "type": "string"
        },
        {
          "internalType": "string",
          "name": "name_init",
          "type": "string"
        }
      ],
      "stateMutability": "nonpayable",
      "type": "constructor"
    },
    {
      "inputs": [
        {
          "internalType": "uint256",
          "name": "",
          "type": "uint256"
        }
      ],
      "name": "deployedPosts",
      "outputs": [
        {
          "internalType": "address",
          "name": "",
          "type": "address"
        }
      ],
      "stateMutability": "view",
      "type": "function",
      "constant": true
    },
    {
      "inputs": [],
      "name": "createPost",
      "outputs": [
        {
          "internalType": "address[]",
          "name": "",
          "type": "address[]"
        }
      ],
      "stateMutability": "nonpayable",
      "type": "function"
    },
    {
      "inputs": [],
      "name": "getDeployedPosts",
      "outputs": [
        {
          "internalType": "address[]",
          "name": "",
          "type": "address[]"
        }
      ],
      "stateMutability": "view",
      "type": "function",
      "constant": true
    }
  ],
  "bytecode": "0x608060405234801561001057600080fd5b50604051611d17380380611d178339818101604052604081101561003357600080fd5b810190808051604051939291908464010000000082111561005357600080fd5b8382019150602082018581111561006957600080fd5b825186600182028301116401000000008211171561008657600080fd5b8083526020830192505050908051906020019080838360005b838110156100ba57808201518184015260208101905061009f565b50505050905090810190601f1680156100e75780820380516001836020036101000a031916815260200191505b506040526020018051604051939291908464010000000082111561010a57600080fd5b8382019150602082018581111561012057600080fd5b825186600182028301116401000000008211171561013d57600080fd5b8083526020830192505050908051906020019080838360005b83811015610171578082015181840152602081019050610156565b50505050905090810190601f16801561019e5780820380516001836020036101000a031916815260200191505b5060405250505081600190805190602001906101bb9291906101da565b5080600290805190602001906101d29291906101da565b50505061027f565b828054600181600116156101000203166002900490600052602060002090601f016020900481019282601f1061021b57805160ff1916838001178555610249565b82800160010185558215610249579182015b8281111561024857825182559160200191906001019061022d565b5b509050610256919061025a565b5090565b61027c91905b80821115610278576000816000905550600101610260565b5090565b90565b611a898061028e6000396000f3fe608060405234801561001057600080fd5b50600436106100415760003560e01c806345612d20146100465780639cd62aa8146100a5578063c01c052d14610113575b600080fd5b61004e610172565b6040518080602001828103825283818151815260200191508051906020019060200280838360005b83811015610091578082015181840152602081019050610076565b505050509050019250505060405180910390f35b6100d1600480360360208110156100bb57600080fd5b81019080803590602001909291905050506103de565b604051808273ffffffffffffffffffffffffffffffffffffffff1673ffffffffffffffffffffffffffffffffffffffff16815260200191505060405180910390f35b61011b61041a565b6040518080602001828103825283818151815260200191508051906020019060200280838360005b8381101561015e578082015181840152602081019050610143565b505050509050019250505060405180910390f35b606060003360016002604051610187906104a8565b808473ffffffffffffffffffffffffffffffffffffffff1673ffffffffffffffffffffffffffffffffffffffff16815260200180602001806020018381038352858181546001816001161561010002031660029004815260200191508054600181600116156101000203166002900480156102435780601f1061021857610100808354040283529160200191610243565b820191906000526020600020905b81548152906001019060200180831161022657829003601f168201915b50508381038252848181546001816001161561010002031660029004815260200191508054600181600116156101000203166002900480156102c65780601f1061029b576101008083540402835291602001916102c6565b820191906000526020600020905b8154815290600101906020018083116102a957829003601f168201915b505095505050505050604051809103906000f0801580156102eb573d6000803e3d6000fd5b5090506000819080600181540180825580915050600190039060005260206000200160009091909190916101000a81548173ffffffffffffffffffffffffffffffffffffffff021916908373ffffffffffffffffffffffffffffffffffffffff16021790555060008054806020026020016040519081016040528092919081815260200182805480156103d357602002820191906000526020600020905b8160009054906101000a900473ffffffffffffffffffffffffffffffffffffffff1673ffffffffffffffffffffffffffffffffffffffff1681526020019060010190808311610389575b505050505091505090565b600081815481106103eb57fe5b906000526020600020016000915054906101000a900473ffffffffffffffffffffffffffffffffffffffff1681565b6060600080548060200260200160405190810160405280929190818152602001828054801561049e57602002820191906000526020600020905b8160009054906101000a900473ffffffffffffffffffffffffffffffffffffffff1673ffffffffffffffffffffffffffffffffffffffff1681526020019060010190808311610454575b5050505050905090565b61159e806104b68339019056fe60806040526002600455600060075560006008556000600c60006101000a81548160ff0219169083151502179055503480156200003b57600080fd5b506040516200159e3803806200159e833981810160405260608110156200006157600080fd5b8101908080519060200190929190805160405193929190846401000000008211156200008c57600080fd5b83820191506020820185811115620000a357600080fd5b8251866001820283011164010000000082111715620000c157600080fd5b8083526020830192505050908051906020019080838360005b83811015620000f7578082015181840152602081019050620000da565b50505050905090810190601f168015620001255780820380516001836020036101000a031916815260200191505b50604052602001805160405193929190846401000000008211156200014957600080fd5b838201915060208201858111156200016057600080fd5b82518660018202830111640100000000821117156200017e57600080fd5b8083526020830192505050908051906020019080838360005b83811015620001b457808201518184015260208101905062000197565b50505050905090810190601f168015620001e25780820380516001836020036101000a031916815260200191505b5060405250505080600290805190602001906200020192919062000309565b5082600160006101000a81548173ffffffffffffffffffffffffffffffffffffffff021916908373ffffffffffffffffffffffffffffffffffffffff160217905550600160009054906101000a900473ffffffffffffffffffffffffffffffffffffffff166000806101000a81548173ffffffffffffffffffffffffffffffffffffffff021916908373ffffffffffffffffffffffffffffffffffffffff1602179055508160039080519060200190620002bd92919062000309565b50620002ce620002d760201b60201c565b505050620003b8565b60146008546007540101600a6007540181620002ef57fe5b046004540260058190555060075460045403600681905550565b828054600181600116156101000203166002900490600052602060002090601f016020900481019282601f106200034c57805160ff19168380011785556200037d565b828001600101855582156200037d579182015b828111156200037c5782518255916020019190600101906200035f565b5b5090506200038c919062000390565b5090565b620003b591905b80821115620003b157600081600090555060010162000397565b5090565b90565b6111d680620003c86000396000f3fe6080604052600436106100e85760003560e01c80638a4d5a671161008a578063befa4bfb11610059578063befa4bfb146104c9578063c7af3dd1146104f4578063d6dd6c261461050b578063d716dd1a14610536576100e8565b80638a4d5a671461039f5780638b563f621461042f5780639566eb691461045a57806395d765e914610464576100e8565b806340b7cba6116100c657806340b7cba614610309578063481c6a7514610313578063522e11771461036a5780637eb84be314610374576100e8565b806306fdde03146100ed5780632ddbd13a1461017d5780634051ddac146101a8575b600080fd5b3480156100f957600080fd5b5061010261059b565b6040518080602001828103825283818151815260200191508051906020019080838360005b83811015610142578082015181840152602081019050610127565b50505050905090810190601f16801561016f5780820380516001836020036101000a031916815260200191505b509250505060405180910390f35b34801561018957600080fd5b50610192610639565b6040518082815260200191505060405180910390f35b3480156101b457600080fd5b506101bd61063f565b604051808a73ffffffffffffffffffffffffffffffffffffffff1673ffffffffffffffffffffffffffffffffffffffff1681526020018060200180602001898152602001888152602001878152602001868152602001851515151581526020018415151515815260200183810383528b818151815260200191508051906020019080838360005b8381101561025f578082015181840152602081019050610244565b50505050905090810190601f16801561028c5780820380516001836020036101000a031916815260200191505b5083810382528a818151815260200191508051906020019080838360005b838110156102c55780820151818401526020810190506102aa565b50505050905090810190601f1680156102f25780820380516001836020036101000a031916815260200191505b509b50505050505050505050505060405180910390f35b6103116107d3565b005b34801561031f57600080fd5b50610328610a22565b604051808273ffffffffffffffffffffffffffffffffffffffff1673ffffffffffffffffffffffffffffffffffffffff16815260200191505060405180910390f35b610372610a48565b005b34801561038057600080fd5b50610389610e20565b6040518082815260200191505060405180910390f35b3480156103ab57600080fd5b506103b4610e26565b6040518080602001828103825283818151815260200191508051906020019080838360005b838110156103f45780820151818401526020810190506103d9565b50505050905090810190601f1680156104215780820380516001836020036101000a031916815260200191505b509250505060405180910390f35b34801561043b57600080fd5b50610444610ec4565b6040518082815260200191505060405180910390f35b610462610eca565b005b34801561047057600080fd5b506104b36004803603602081101561048757600080fd5b81019080803573ffffffffffffffffffffffffffffffffffffffff169060200190929190505050611133565b6040518082815260200191505060405180910390f35b3480156104d557600080fd5b506104de61114b565b6040518082815260200191505060405180910390f35b34801561050057600080fd5b50610509611151565b005b34801561051757600080fd5b50610520611182565b6040518082815260200191505060405180910390f35b34801561054257600080fd5b506105856004803603602081101561055957600080fd5b81019080803573ffffffffffffffffffffffffffffffffffffffff169060200190929190505050611188565b6040518082815260200191505060405180910390f35b60028054600181600116156101000203166002900480601f0160208091040260200160405190810160405280929190818152602001828054600181600116156101000203166002900480156106315780601f1061060657610100808354040283529160200191610631565b820191906000526020600020905b81548152906001019060200180831161061457829003601f168201915b505050505081565b60045481565b60006060806000806000806000803060026003600554600654600754600854600c60009054906101000a900460ff16600c60019054906101000a900460ff16878054600181600116156101000203166002900480601f0160208091040260200160405190810160405280929190818152602001828054600181600116156101000203166002900480156107135780601f106106e857610100808354040283529160200191610713565b820191906000526020600020905b8154815290600101906020018083116106f657829003601f168201915b50505050509750868054600181600116156101000203166002900480601f0160208091040260200160405190810160405280929190818152602001828054600181600116156101000203166002900480156107af5780601f10610784576101008083540402835291602001916107af565b820191906000526020600020905b81548152906001019060200180831161079257829003601f168201915b50505050509650985098509850985098509850985098509850909192939495969798565b6000809054906101000a900473ffffffffffffffffffffffffffffffffffffffff1673ffffffffffffffffffffffffffffffffffffffff163373ffffffffffffffffffffffffffffffffffffffff161415610863576001600c60006101000a81548160ff0219169083151502179055506000600c60016101000a81548160ff021916908315150217905550610a20565b6000600960003373ffffffffffffffffffffffffffffffffffffffff1673ffffffffffffffffffffffffffffffffffffffff168152602001908152602001600020541480156108f157506000600a60003373ffffffffffffffffffffffffffffffffffffffff1673ffffffffffffffffffffffffffffffffffffffff16815260200190815260200160002054145b1561095a57600b339080600181540180825580915050600190039060005260206000200160009091909190916101000a81548173ffffffffffffffffffffffffffffffffffffffff021916908373ffffffffffffffffffffffffffffffffffffffff1602179055505b60065434101561096957600080fd5b6003600a60003373ffffffffffffffffffffffffffffffffffffffff1673ffffffffffffffffffffffffffffffffffffffff1681526020019081526020016000205411156109b657600080fd5b600a60003373ffffffffffffffffffffffffffffffffffffffff1673ffffffffffffffffffffffffffffffffffffffff16815260200190815260200160002060008154809291906001019190505550600860008154809291906001019190505550610a1f611151565b5b565b600160009054906101000a900473ffffffffffffffffffffffffffffffffffffffff1681565b6000809054906101000a900473ffffffffffffffffffffffffffffffffffffffff1673ffffffffffffffffffffffffffffffffffffffff163373ffffffffffffffffffffffffffffffffffffffff161415610c6e5760011515600c60019054906101000a900460ff1615151415610c695760008090505b600b80549050811015610c6757600060096000600b8481548110610adf57fe5b9060005260206000200160009054906101000a900473ffffffffffffffffffffffffffffffffffffffff1673ffffffffffffffffffffffffffffffffffffffff1673ffffffffffffffffffffffffffffffffffffffff168152602001908152602001600020541115610c5a57600b8181548110610b5857fe5b9060005260206000200160009054906101000a900473ffffffffffffffffffffffffffffffffffffffff1673ffffffffffffffffffffffffffffffffffffffff166108fc6064605f6007544760096000600b8981548110610bb557fe5b9060005260206000200160009054906101000a900473ffffffffffffffffffffffffffffffffffffffff1673ffffffffffffffffffffffffffffffffffffffff1673ffffffffffffffffffffffffffffffffffffffff168152602001908152602001600020540281610c2357fe5b040281610c2c57fe5b049081150290604051600060405180830381858888f19350505050158015610c58573d6000803e3d6000fd5b505b8080600101915050610abf565b505b610e1e565b60008090505b600b80549050811015610e1c576000600a6000600b8481548110610c9457fe5b9060005260206000200160009054906101000a900473ffffffffffffffffffffffffffffffffffffffff1673ffffffffffffffffffffffffffffffffffffffff1673ffffffffffffffffffffffffffffffffffffffff168152602001908152602001600020541115610e0f57600b8181548110610d0d57fe5b9060005260206000200160009054906101000a900473ffffffffffffffffffffffffffffffffffffffff1673ffffffffffffffffffffffffffffffffffffffff166108fc6064605f60085447600a6000600b8981548110610d6a57fe5b9060005260206000200160009054906101000a900473ffffffffffffffffffffffffffffffffffffffff1673ffffffffffffffffffffffffffffffffffffffff1673ffffffffffffffffffffffffffffffffffffffff168152602001908152602001600020540281610dd857fe5b040281610de157fe5b049081150290604051600060405180830381858888f19350505050158015610e0d573d6000803e3d6000fd5b505b8080600101915050610c74565b505b565b60085481565b60038054600181600116156101000203166002900480601f016020809104026020016040519081016040528092919081815260200182805460018160011615610100020316600290048015610ebc5780601f10610e9157610100808354040283529160200191610ebc565b820191906000526020600020905b815481529060010190602001808311610e9f57829003601f168201915b505050505081565b60065481565b600c60009054906101000a900460ff1615610ee457600080fd5b6000809054906101000a900473ffffffffffffffffffffffffffffffffffffffff1673ffffffffffffffffffffffffffffffffffffffff163373ffffffffffffffffffffffffffffffffffffffff161415610f74576001600c60006101000a81548160ff0219169083151502179055506001600c60016101000a81548160ff021916908315150217905550611131565b6000600960003373ffffffffffffffffffffffffffffffffffffffff1673ffffffffffffffffffffffffffffffffffffffff1681526020019081526020016000205414801561100257506000600a60003373ffffffffffffffffffffffffffffffffffffffff1673ffffffffffffffffffffffffffffffffffffffff16815260200190815260200160002054145b1561106b57600b339080600181540180825580915050600190039060005260206000200160009091909190916101000a81548173ffffffffffffffffffffffffffffffffffffffff021916908373ffffffffffffffffffffffffffffffffffffffff1602179055505b60055434101561107a57600080fd5b6003600960003373ffffffffffffffffffffffffffffffffffffffff1673ffffffffffffffffffffffffffffffffffffffff1681526020019081526020016000205411156110c757600080fd5b600960003373ffffffffffffffffffffffffffffffffffffffff1673ffffffffffffffffffffffffffffffffffffffff16815260200190815260200160002060008154809291906001019190505550600760008154809291906001019190505550611130611151565b5b565b60096020528060005260406000206000915090505481565b60055481565b60146008546007540101600a600754018161116857fe5b046004540260058190555060075460045403600681905550565b60075481565b600a602052806000526040600020600091509050548156fea264697066735822122069033c9c8267cd98462bcedc1a3e99b1c7b2c32405572a04e4b877884bc74b3864736f6c63430006000033a2646970667358221220e518ee28bfb35096ede34469d8c0707b6f5bc815a6c65338020328745259078c64736f6c63430006000033",
  "source": "pragma solidity ^0.6.0;\r\n\r\n\r\ncontract Spectrum{\r\n\r\n    address[] public deployedPosts;\r\n    string content;\r\n    string name;\r\n    \r\n    \r\n    //Pass post content and alias name as string. How??\r\n    \r\n    function createPost() public returns (address[] memory){\r\n        Post newPost = new Post(msg.sender, content, name);\r\n        deployedPosts.push(address(newPost));\r\n        return deployedPosts;\r\n    }\r\n\r\n    function getDeployedPosts() public view returns (address[] memory){\r\n        return deployedPosts;\r\n    }\r\n\r\n    // function returnName() public view returns(string memory){\r\n    //     return name;\r\n    // }\r\n\r\n    constructor(string memory content_init, string memory name_init)public{\r\n        content = content_init;\r\n        name = name_init;\r\n    }\r\n}\r\n\r\ncontract Post{\r\n\r\n    // address tempAddress = address(keccak256(\"0x604BCD042D2d5B355ecE14B6aC3224d23F29a51c\"));//delete this\r\n    address tempAddress;\r\n    \r\n    address public manager;\r\n    string public name;\r\n    string public content;\r\n    \r\n    uint public total = 2;\r\n    uint public yayprice;\r\n    uint public nayprice;\r\n    uint public yaycount = 0;\r\n    uint public naycount = 0;\r\n    mapping(address=>uint) public yays;\r\n    mapping(address=>uint) public nays;\r\n    address payable [] voted;\r\n    bool completed = false;\r\n    bool verdict;\r\n\r\n    \r\n    modifier active(){\r\n    \trequire(!completed);\r\n      _;\r\n    }\r\n\t\r\n  \tfunction complete() public payable{\r\n\r\n        if(msg.sender== tempAddress) {\r\n            if(verdict==true){\r\n                for(uint i = 0; i < voted.length; i++){\r\n                    if(yays[voted[i]]>0){\r\n                        voted[i].transfer(yays[voted[i]]*address(this).balance/(yaycount)*95/100);\r\n                    }\r\n                }\r\n            }\r\n        }else{\r\n            for(uint i = 0; i < voted.length; i++){\r\n                if(nays[voted[i]]>0){\r\n                    voted[i].transfer(nays[voted[i]]*address(this).balance/(naycount)*95/100);\r\n                }\r\n            }\r\n        }\r\n    }\r\n \r\n    \r\n    function updateCost() public {\r\n        yayprice = total * ((yaycount+10)/(yaycount + naycount + 20));\r\n        nayprice = total - yaycount;\r\n    }\r\n    \r\n    function voteYay() public payable active{\r\n    \t\t\r\n        if(msg.sender == tempAddress){\r\n            completed = true;\r\n            verdict = true;\r\n        }else{\r\n        \tif(yays[msg.sender]==0 && nays[msg.sender]==0){\r\n          \t    voted.push(msg.sender);\r\n        \t}\r\n            require(msg.value>=yayprice);\r\n            require(yays[msg.sender]<=3);\r\n\r\n            yays[msg.sender]++;\r\n            yaycount++;\r\n            updateCost();\r\n        }       \r\n    }\r\n    \r\n    function voteNay() public payable {\r\n    \t\r\n      \t if(msg.sender==tempAddress){\r\n\t\t\tcompleted = true;\r\n            verdict = false;\r\n        }else{\r\n        \tif(yays[msg.sender]==0 && nays[msg.sender]==0){\r\n          \t    voted.push(msg.sender);\r\n        \t}\r\n            require(msg.value>=nayprice);\r\n            require(nays[msg.sender]<=3);\r\n\r\n            nays[msg.sender]++;\r\n            naycount++;\r\n            updateCost();\r\n        }       \r\n    }\r\n\r\n    function getSummary() public view returns (address, string memory, string memory, uint, uint, uint, uint, bool, bool){\r\n        return(address(this), name, content, yayprice, nayprice, yaycount, naycount, completed, verdict);\r\n    }\r\n    \r\n    \r\n    constructor(address manager_init, string memory content_init, string memory name_init) public {\r\n        name = name_init;\r\n        manager = manager_init;\r\n        tempAddress = manager;\r\n        content = content_init;\r\n    \tupdateCost();\r\n\t}\r\n    \r\n    \r\n}",
  "sourcePath": "D:/blockchain/spectrum/ethereum/contracts/Spectrum.sol",
  "compiler": {
    "name": "solc",
    "version": "0.6.0+commit.26b70077.Emscripten.clang"
  },
  "schemaVersion": "3.3.4",
  "updatedAt": "2021-02-21T13:29:00.558Z",
  "networkType": "ethereum",
  "devdoc": {
    "methods": {}
  },
  "userdoc": {
    "methods": {}
  }
}