{
  "contractName": "SpecTime",
  "abi": [
    {
      "inputs": [],
      "stateMutability": "nonpayable",
      "type": "constructor"
    },
    {
      "inputs": [],
      "name": "getLatestPrice",
      "outputs": [
        {
          "internalType": "int256",
          "name": "",
          "type": "int256"
        }
      ],
      "stateMutability": "view",
      "type": "function"
    },
    {
      "inputs": [],
      "name": "price",
      "outputs": [
        {
          "internalType": "int256",
          "name": "",
          "type": "int256"
        }
      ],
      "stateMutability": "view",
      "type": "function"
    },
    {
      "inputs": [],
      "name": "getPrice",
      "outputs": [
        {
          "internalType": "int256",
          "name": "",
          "type": "int256"
        }
      ],
      "stateMutability": "view",
      "type": "function"
    }
  ],
  "bytecode": "0x608060405234801561001057600080fd5b50738a753747a1fa494ec906ce90e9f37563a8af630e6000806101000a81548173ffffffffffffffffffffffffffffffffffffffff021916908373ffffffffffffffffffffffffffffffffffffffff16021790555061007361007e60201b60201c565b600181905550610166565b6000806000806000806000809054906101000a900473ffffffffffffffffffffffffffffffffffffffff1673ffffffffffffffffffffffffffffffffffffffff1663feaf968c6040518163ffffffff1660e01b815260040160a06040518083038186803b1580156100ee57600080fd5b505afa158015610102573d6000803e3d6000fd5b505050506040513d60a081101561011857600080fd5b81019080805190602001909291908051906020019092919080519060200190929190805190602001909291908051906020019092919050505094509450945094509450839550505050505090565b6101ce806101756000396000f3fe608060405234801561001057600080fd5b50600436106100415760003560e01c80638e15f4731461004657806398d5fdca14610064578063a035b1fe14610082575b600080fd5b61004e6100a0565b6040518082815260200191505060405180910390f35b61006c610188565b6040518082815260200191505060405180910390f35b61008a610192565b6040518082815260200191505060405180910390f35b6000806000806000806000809054906101000a900473ffffffffffffffffffffffffffffffffffffffff1673ffffffffffffffffffffffffffffffffffffffff1663feaf968c6040518163ffffffff1660e01b815260040160a06040518083038186803b15801561011057600080fd5b505afa158015610124573d6000803e3d6000fd5b505050506040513d60a081101561013a57600080fd5b81019080805190602001909291908051906020019092919080519060200190929190805190602001909291908051906020019092919050505094509450945094509450839550505050505090565b6000600154905090565b6001548156fea264697066735822122024fcfbaabb4ad6bec23e819a0bf635b75199706b33297fa352d90030d06b77d364736f6c63430006000033",
  "source": "pragma solidity ^0.6.0;\r\n\r\nimport \"@chainlink/contracts/src/v0.6/interfaces/AggregatorV3Interface.sol\";\r\n\r\ncontract PriceConsumerV3 {\r\n\r\n    AggregatorV3Interface internal priceFeed;\r\n\r\n\r\n    constructor() public {\r\n        priceFeed = AggregatorV3Interface(0x8A753747A1Fa494EC906cE90E9f37563A8AF630e);\r\n    }\r\n\r\n\r\n    //this function returns the price and timestamp to be stored on Posts on spectrum.\r\n\r\n    function getLatestPrice() public view returns (int) {\r\n        (\r\n            uint80 roundID, \r\n            int price,\r\n            uint startedAt,\r\n            uint timeStamp,\r\n            uint80 answeredInRound\r\n        ) = priceFeed.latestRoundData();\r\n        return price;\r\n    }\r\n}\r\n\r\ncontract SpecTime is PriceConsumerV3{\r\n    int public price;\r\n    constructor() public{\r\n        price = getLatestPrice();\r\n    }\r\n    function getPrice() public view returns (int){\r\n        return price;\r\n    }\r\n}",
  "sourcePath": "D:/projects/spectrum/ethereum/contracts/SpecTime.sol",
  "compiler": {
    "name": "solc",
    "version": "0.6.0+commit.26b70077.Emscripten.clang"
  },
  "schemaVersion": "3.3.4",
  "updatedAt": "2021-03-08T06:53:35.858Z",
  "networkType": "ethereum",
  "devdoc": {
    "methods": {}
  },
  "userdoc": {
    "methods": {}
  }
}